:020000040800F2
:1000000000000110BDFB0208DD3000081D9A020847
:1000100079FC020879FC020879FC02080000000063
:10002000000000000000000000000000E3300008B5
:10003000E130000800000000DF3000081D1D02084C
:1000400079FC020879FC020879FC020879FC0208B4
:1000500079FC020879FC02086B220208732202086C
:1000600079FC0208712202086F220208A105020829
:100070009105020881050208710502086105020860
:100080004D0502083905020879FC020879FC0208CE
:1000900079FC020879FC020879FC02086D2202084A
:1000A0001D7D0108917D010879FC0208817D010810
:1000B000717D0108617D0108517D010879FC02080C
:1000C00079FC020879FC020879FC020879FC020834
:1000D00079FC0208290902081D0902081109020811
:1000E0006922020879FC0208BD6A000879FC02084E
:1000F0003D7D010879FC02082D7D010825050208D7
:1001000079FC020879FC0208417D010879FC0208AB
:1001100005090208F908020879FC020879FC0208BE
:1001200011050208FD040208E9040208D5040208CA
:10013000C104020879FC020879FC020879FC020873
:1001400079FC020879FC020879FC02088153000856
:10015000AD040208990402088504020879FC02082B
:1001600079FC020879FC020879FC020879FC020893
:1001700079FC020879FC020879FC020879FC020883
:0801800079FC020879FC020879
:1001880070B50B4B0B4CA34202D30022104670BD36
:100198005A7982420AD11A7A8A4207D11A681E7994
:1001A8001579AE4202D11568AB42EFD00C33EAE7BD
:1001B800309F0308D89F0308836A33F8110000EBC7
:1001C8008000C01000F55C7080B2704703788B42E5
:1001D80086BF024B33F8110000207047A81A002090
:1001E800034B187E10B100221A760120704700BF19
:1001F800A81A002007299DBF024B03EB8101888BB9
:1002080000207047A81A0020024B03EB4101888F99
:10021800C0087047A81A002082B000230193019BF0
:1002280043F020030193019B60F38A130193074B6A
:100238009A6E019B1361064B11690191013B02D033
:1002480001998906F8D4002002B07047A81A002046
:10025800410D030030B50D4B00F00704C0081D1810
:100268001B5CA340DBB20020C4F108028A4228BF0D
:100278000A46C2F1080423419040891A40EA030063
:100288004FF0000415F8013FEED130BD38210020B1
:1002980070B50246131A12F8014BDBB2002CF9D1E3
:1002A8000C4A01335B000B8082F8A036032382F8E6
:1002B800A1360138022310F8015F05B970BD591C39
:1002C800D61852FA81F1023386F8A056DBB281F8CB
:1002D800A046F0E7A81A0020012380F849307047AB
:1002E800044BD3F8D40620B1D3F8D406431F5842A0
:1002F80058417047A81A0020074AD2F8D836D2F8D1
:10030800DC168B42FDD0D1180133C3F30A0391F8F0
:10031800E006C2F8D8367047A81A0020054BD3F873
:10032800D806D3F8DC36984288BF03F50063181A5C
:10033800704700BFA81A0020012070477047704717
:1003480030B5124CD4F8D826D4F8DC369A4286BF99
:1003580003F50065AA1A9A1A0A44B2F5006F12D872
:1003680001440022814204D10AB1C4F8DC360020DD
:1003780030BDE21810F8015B82F8E0560133C3F390
:100388000A030122EEE70220F2E700BFA81A0020C4
:10039800064AD2F8E03ED2F8E42E934294BF4FF4D6
:1003A80000600020013B9B1A18447047A81A0020DF
:1003B800EEE7212838B50C461BD022282BD0202860
:1003C80015D1A1B1072A12D1194D0968D5F8E83E0F
:1003D8000BB1002098472368C5F8EC3E237985F8CF
:1003E800F03E637985F8F13EA37985F8F23E002066
:1003F80038BD0029FBD0072AF9D10D4BD3F8EC2ED4
:100408000A6093F8F02E0A7193F8F12E4A7193F866
:10041800F23E8B71EBE70029E9D0022AE7D1044BC1
:10042800D3F8F43E002BE2D0098800209847DEE795
:10043800A81A0020024B0020C3F8D406704700BF5A
:10044800A81A0020044B00200522C3F8D426C3F8BC
:10045800F40EC3F8E80E7047A81A002070477047DA
:100468007047704770477047704708B50248FFF7F4
:100478000FFF024808BD00BFE05E030848210020C6
:1004880008B50248FFF704FF014808BDEE5E0308FF
:100498004821002008B50248FFF7FAFE014808BDC8
:1004A800F95E03084821002008B50248FFF7F0FE6E
:1004B800014808BD035F03084821002008B5024829
:1004C800FFF7E6FE014808BD085F03084821002041
:1004D80004230B80004870470000002012230B8083
:1004E8000048704704000020044B41F2B411012277
:1004F800585C00B95A545A70704700BF544B0020DA
:100508000378022B08D10E4B1A684368B3EB422FCD
:100518002CBF012000207047006970B1094B1B787F
:10052800032B0EBF084B80B24FF6F773984294BF67
:100538000020012000F0010070470120FAE700BF09
:10054800745D0020544B0020F7FFFF0F074B1B780A
:10055800022B0BBF030AC0F3D413C0B200F07F0014
:100568000CBF0B600B601060704700BF544B00203D
:1005780010B5037841680F4A022B0AD141F20423CF
:10058800D35802F59052106800EB430000EB51205D
:1005980010BD036941F21020023B145841F21820A3
:1005A80010580840400A04FB030041F20C23D358BA
:1005B8001844EDE7544B0020837B042B0DD0074BE8
:1005C80041F298015A5801325A50426041F29C0156
:1005D800042282735A5801325A507047544B0020F3
:1005E80008B5064BC01A4FF4007390FBF3F00728C8
:1005F80003D9FFF779FF4FF0FF3008BD6C4B00209F
:1006080043230B80004870471600002010B5074CA4
:10061800E06DFF2808D00649D1F8F82E01F6FC61F4
:10062800FFF7C7FEFF23E365002010BD0000002090
:10063800A81A002008B5D0F8E4355B6A984700206E
:1006480008BD08B5D0F8E4351B6A9847002008BDF6
:10065800D0F8E43510B504461B689847D4F8E83557
:100668009B689847002010BD08B5D0F8E435DB69D1
:1006780003B19847002008BD08B590F8123180F8FA
:100688001331042380F81231D0F8E835DB68984735
:10069800002008BD10B5D0F8E83504461B69984716
:1006A800032384F81231002010BD82B00023019387
:1006B8000C4A036819690191013A10D0019900297F
:1006C800F8DA019A42F001020192019A1A61054A88
:1006D80019690191013A02D00199C907F8D400209B
:1006E80002B07047410D0300436D064A1A61C27893
:1006F800012A06D100F2CC5058611A684FF08022C6
:100708001A60704718000860F0B54B784C69012BE7
:1007180027D182691568136914B964F3060305E0E3
:100728008E68A642F9D24E6166F3060343F40023AD
:100738001361C478012C05D10B780E6900EB830393
:100748009B695E6145F00445156044B94B6933B156
:1007580002690978506B01238B40034353630020DF
:10076800F0BD0B788F6800EB830307F07F065A6DA6
:10077800156813696CB966F3060343F40023136123
:10078800C378012B04BF0B69536145F0044515601C
:10079800E5E74F61EFE72DE9F04191F801E00D78C9
:1007A8004B69CE78BEF1010F4FD100EB850CDCF818
:1007B80018703A683C6963F3120493B96EF3DC4429
:1007C8003C61C478012C1BD10D697D61012E25D1B6
:1007D80000698068C00554BF42F0005242F0805260
:1007E8001CE0D1F8088008EB030E0EF1FF3E012E45
:1007F800BEFBF8FE6EF3DC4408BF66F35E74DFE709
:10080800012EE5D053B1D0F810E00120DEF8348095
:1008180000FA05F545EA0805CEF8345042F00442DE
:10082800012E3A6009D144B99BB20333C968DCF898
:10083800D0009B102246934202D10020BDE8F081EF
:1008480051F8224004600132F5E700EB8505D1F844
:1008580008C06F6DCCF312053A683C69A3B965F31B
:100868001204012363F3DC443C61C378012B04BF09
:100878000B697B61012E03D14B79A3B142F0005281
:1008880042F004423A60D8E76344013BB3FBFCF30F
:10089800C3F3090363F3DC446B43C3F3120363F349
:1008A80012044B61E0E742F08052E9E730B50B787B
:1008B800497801229A4000EB830301294FF0000593
:1008C8002C460CBF9B695B6D92B20CBF62F30F04A0
:1008D80062F31F446FF3CF3502691D60D36923EAC1
:1008E8000403D361002030BD40F2011310B500F5B8
:1008F800A2710446A0F84431FFF7D8FF0123A4F8F9
:100908009C3304F567712046FFF7D0FF4FF48173DD
:10091800A4F86C3104F5B6712046FFF7C7FFFFF75E
:1009280089FD002010BD0B7830B501224D789A4022
:1009380000EB8303012D0CBF9D695D6D2B6892B29E
:100948004FF000040CBF62F30F0462F31F441A0453
:100958000DD48A6862F30A03CA7862F39343CA889B
:1009680062F3995343F0805343F400432B600369C7
:10097800DA691443DC61002030BD70B500254026DB
:100988000446A0F87453C0F87C6380F8775300F5E8
:100998005D71FFF7C8FF4FF48073A4F81C3104F5AC
:1009A8008E71C4F8246184F81F51A4F8225120469E
:1009B800FFF7B9FF012384F81231D4F8E835A0789D
:1009C8005B689847284670BD4BB201F07F02002B48
:1009D80010B54FF02804B5BF04FB020104FB010168
:1009E80001F58E7101F55D710124DB0F8C700A70C1
:1009F8004B7000EB820053B182691368002B01DA57
:100A080043F0804343F400131360002010BD426D8F
:100A18001368F7E710B580210446FFF7D5FF204695
:100A28000021FFF7D1FF2046BDE810405CE670B515
:100A380001F07F05282404FB050104FB05040126B9
:100A4800C4F82821C4F82C21002201F58E7184F8FD
:100A58001D6184F81C51C4F83421C4F830311DB923
:100A6800FFF752FE002070BDFFF795FEFAE7284B0E
:100A7800D3F8042F0F2A10B5194602F1010403D048
:100A8800C3F8044F002010BD0023C1F8043F91F8BB
:100A9800083F002BF6D1D1F8E02EB2F5006F08BF61
:100AA800C1F8E03ED1F8E02ED1F8E43E9A4203D1F5
:100AB800002381F8083FE5E78CBFC2F500639B1A65
:100AC800C1F80C3FD1F80C3F402B11D9403B02F143
:100AD8004004C1F80C3F012381F8083FC1F8E04EFB
:100AE80040230C4911FA82F28121FFF7A0FFC9E7E0
:100AF80002EB0304C1F8E04E4FF00004C1F80C4FBC
:100B08000EBF022401249BB281F8084FE9E700BF19
:100B1800A81A0020B829002010B51D4991F8083FEF
:100B2800012B0C4604D1D1F80C3F73B981F8083F6A
:100B380094F8083F022B1AD100231A468121FFF7A7
:100B480076FF002384F8083F11E0402BD1F8E02E0F
:100B58000FD9403B02F14004C1F80C3FC1F8E04E08
:100B680040230C4911FA82F28121FFF760FF00202F
:100B780010BD03EB0204C1F8E04E4FF00004C1F8C9
:100B88000C4F0ABF02249BB281F8084FE9E700BF67
:100B9800A81A0020B829002010B5042380F81131C4
:100BA800002304461A461946FFF741FF2046FFF77F
:100BB8009BFD002010BD10B504461346C4F83C2127
:100BC800C4F83821022280F811210A460021FFF7D3
:100BD8002EFF002010BDF0B590F8CF2590F8CE3547
:100BE80090F8D05590F8D37590F8CC1590F8CD655D
:100BF80003EB022390F8D12505EB022590F8D225C6
:100C080002EB0722012785B080F8117101F01F0758
:100C180092B29BB2ADB2012F04468DF808108DF840
:100C28000960ADF80A30ADF80C50ADF80E20C0F8E8
:100C3800402100F0098105D3022F00F0198101F04D
:100C4800800182E1092E5ED8DFE816F0B500F300D6
:100C58005D00C7005D0057000A005D00A80076002F
:100C68001D0A022DADF806200BD0032D25D0012D2D
:100C780049D1D0F8EC351B68A0780DF106019847EA
:100C880009E0D0F8E43580789B6A0DF106019847B1
:100C98004570C4F8F005BDF80620002A47D0BDF815
:100CA8000E30002B43D09A4228BF1A46ADF80620D2
:100CB80001462046FFF77FFF39E0DBB2052B22D83B
:100CC800DFE803F003070B0F1317D0F8EC355B6868
:100CD800D2E7D0F8EC359B68CEE7D0F8EC35DB6886
:100CE800CAE7D0F8EC351B69C6E7D0F8EC355B6984
:100CF800C2E7D0F8EC359B69BEE725B91AB990F878
:100D08001211032903D12046FFF784FE0FE003F0F8
:100D18007F0563F30A12036980F8145119680A43BE
:100D28001A60FFF739FF2DB1022384F81231002031
:100D380005B0F0BD0123F8E7D9B2894D012985F83E
:100D48001816E0D890F81231022B0CD0032BDAD108
:100D5800B9B9022380F81231D0F8E43580F81011BF
:100D68005B68984709E041B10121032380F810111D
:100D780080F812312046FFF76BFC2046FFF70CFF86
:100D8800D5E790F810110129F7D0D0F8E4355B6861
:100D9800984795F8181684F81011EBE7012AB2D194
:100DA80090F81231022B04D0032BACD100F58871D6
:100DB8007FE76C497DE790F81231023B012BA2D8FE
:100DC800674B0022C3F82026D0F8182112B102225E
:100DD800C3F82026022264496BE7012B08D1C4F826
:100DE8001831D4F8E43502A99B6820469847C4E72F
:100DF800022B9CD115F0FF0F99D103692D0A023DF2
:100E08005B68032D03D8DFE805F00C0E10120122F1
:100E180062F30613524AC2F82436012384F81631C5
:100E2800ABE70222F4E70322F2E70422F0E7052207
:100E3800EEE790F81221023A012A3FF664AF012B3F
:100E48007FF475AF0023CAE790F81231032B7FF4C3
:100E58005AAFEDB2012D3FF656AFD0F8E43502A9EE
:100E68009B689847BDF80E30002B7FF460AF84E78D
:100E780001F06001202905D1D0F8E43502A99B686A
:100E8800984754E7012EE9B211D041D3032E7FF4DD
:100E98004EAF90F81221022A54D0032A7FF433AFC0
:100EA800002B9ED14A069CD0FFF78EFD99E790F85B
:100EB8001221022A46D0032A7FF425AF002B7FF4A3
:100EC80036AF11F07F033FF458AF6DB2002D4FF0ED
:100ED8002802B5BF02FB030102FB010101F58E7177
:100EE80001F55D710022ED0F0B708A704D7000EBFB
:100EF80083035DB19A69C978136802396FF3555352
:100F0800012998BF43F0805313606AE75A6DF2E7EE
:100F180090F81231022B15D0032B7FF4F4AE15F0A4
:100F2800800F0F4B4FF0280214D001F07F0102FB15
:100F3800010191F81E215AB10122C3F828260B4954
:100F48000222B6E64B063FF4F2AEFFF73DFDEEE6B1
:100F58000022F2E702FB010191F87623EBE700BFDC
:100F6800A02B0020BC310020C0310020C831002057
:100F780070B50C46282606FB040506FB0101C5F8DA
:100F88008833002385F87443C5F88023C5F88C336B
:100F980085F87533C37806FB0404012B08BFC5F830
:100FA800842394F8743301F55D711BB9FFF7ACFB2A
:100FB800002070BDFFF7EFFBFAE738B5282303FBE5
:100FC8000101074DB1F88C1304462846FFF7B8F91C
:100FD80040232A4601212046FFF7CAFF002038BDDA
:100FE800CC31002070B50A7812F0600406460D4630
:100FF8002CD0202C31D1CC884B780CB312060CD5D0
:1010080022461F491846FFF7D4F9EA881C4930469A
:10101800FFF7D1FD0024204670BD1A4AC0F894435A
:10102800D365194AC0F890430323C2F8F84E80F8F4
:10103800113102F6FC6223460021FFF799FFE9E728
:10104800224621461846FFF7B4F9E4E74B780A2B05
:1010580008D00B2B0BD0062BDDD13046FFF7DAFC7E
:101068000224D8E701220949FFF7A5FDD3E78B78C9
:101078001BB9074AC2F86C36CCE7FFF7CBFCCAE7C6
:10108800A429002000000020A81A00200C3200200B
:10109800A02B00202DE9F04140F20113044602265E
:1010A80000254FF040080127A0F84431C0F84C81D2
:1010B80080F84761A0F84A7180F8485100F5A2719C
:1010C800FFF731FC04F56771A4F89C73C4F8A48396
:1010D80084F89F6384F8A0532046FFF724FC4FF45C
:1010E8008173A4F86C310823C4F87431032304F520
:1010F800B67184F86F31A4F872612046FFF713FCCB
:10110800064B1E725D72FFF79DF94346044A394645
:101118002046FFF72DFF2846BDE8F081000000209B
:10112800CC31002038B5044600295BD190F8113144
:10113800022B1ED1D0F83831D0F82421934226D979
:10114800C178012908BFD0F82811A3EB020304BF16
:101158005218C0F82821C0F83831D0F828219BB29D
:101168000021FFF764FC00231A4619462046FFF7C2
:10117800FFFE94F81631012B07D1204A2369D2F8D3
:1011880024265A60002384F81631002038BDD0F890
:101198003C31B3FBF2F502FB153565B99A420AD822
:1011A800D0F84021934206D22B462A46FFF73FFC4F
:1011B800C4F84051D7E7D4F8E435DB682BB194F88C
:1011C8001221032A01D120469847052384F81131BA
:1011D80000231A4619462046FFF7CAFE2046FFF7A5
:1011E80083FAC6E7D0F8E4355B69002BCDD090F8D8
:1011F8001221032AC9D19847C7E700BFA02B0020B6
:1012080010B5044671BB90F81131032B1BD1D0F8EF
:101218009023D0F87C339A4217D9C178012908BFA6
:10122800D0F88013A2EB030204BFC918C0F88013DA
:10123800934228BF1346C0F890239BB2D0F880236E
:101248000021FFF795FE002010BDD0F8E4351B699A
:1012580023B190F81221032A00D198472046FFF7BE
:101268009BFCF0E7D0F8E4359B69002BEBD090F8B5
:101278001221032AE7D19847E5E70E4BDA68D20333
:1012880010D4DA68D1060FD4DA68D2050ED4DA6839
:1012980012F0E00F0CD1DB6813F0020F14BF082026
:1012A80009207047012070470620704702207047C8
:1012B80007207047003C02401222002108B52EF09A
:1012C80061FE012242704274044A0F214180116874
:1012D8009288C0F80A10C28108BD00BF50090308EF
:1012E800064B196841B1986864224243B2FBF1F297
:1012F8009A8000221A609A60704700BF00000010B0
:10130800F0B5264E00221346344641F221078118D3
:101318003144082591F8701683EA012313F4004F2D
:101328004FEA430105F1FF3518BF794015F0FF0575
:101338008BB2F3D10132192AE9D100F1190200F177
:101348001A012244214492F8706691F8702602EB43
:10135800062292B29A420BD12B4694F89166104D10
:1013680001304FF4AF67DAB2B24202D301232B76D1
:10137800F0BD00EB4202D1B262180131214492F86B
:1013880070C691F8702602EB0C2292B27A431213BF
:1013980002F5487225F813200133E4E7A02B00205A
:1013A800A81A0020174A92F8923630B543B30023A2
:1013B80082F8923692F89336A82B21D192F8A63665
:1013C800F3B9114C9FED116ADFED116A02F29362D5
:1013D800D018C578017901EB052107EE901AB8EE0F
:1013E800E77AC7EE067A77EEE67AFCEEE77A17EE4A
:1013F800901A44F813100233102BE9D1012030BDA4
:101408000020FCE7A02B0020C41A0020CDCCCC4043
:101418000080BB431D4B93F8A826F0B519460AB9BE
:101428000020F0BD93F8A946B3F8AA6603EB44057B
:10143800002095F8AF7695F8B02683F8A80642EA1A
:1014480007229642ECD193F8AD36012B03D0812BBD
:10145800E7D1032000E01846102C84BF102381F840
:10146800A93691F8A9460A4A0A4D0023D9B28C42F6
:1014780002F10202D5D912F8026C12F8011C41EAF5
:10148800062125F813100133F0E700BFA02B002038
:101498004F320020E41A002003788B420CD9074B06
:1014A80003EB810193F80437D1F8D40603B140085F
:1014B80000F5777080B2704700207047A02B00209D
:1014C800334B93F80507F0B5002840D0002283F885
:1014D800052793F8062793F80707D3F8184793F8D2
:1014E800201700EB02204FF4FA72B4FBF2F4D3F8A1
:1014F8001C2780B262BBA3F82207C3F81C47D3F8A5
:10150800282793F82457167893F82C770320441E3D
:101518001A1992F806272A4102F00F02B24212D293
:101528000B2A10D809B191420DD01C4403EB82025A
:1015380094F806C71C180CEA070C94F8064704EB45
:101548000C24C2F8D44602301128E0D10120F0BDA5
:101558009442D4D0A21A012ACDD10029CBD0B3F815
:10156800222793F804778D00821A6FF013061D4422
:101578003FB1D20292FBF6F202F50062C5F8D4261A
:10158800B9E7920292FBF6F202F58062F6E700BF35
:10159800A02B002038B5074D0824FF21284620F04D
:1015A8005FFFFF2803D0013CF7D1204638BD01205A
:1015B800FCE700BF003C004070B5064E054600241D
:1015C800FF21304620F04CFFFF2802D10134A5420C
:1015D800F6DA70BD003C004038B5104D1048FF21C8
:1015E8000024C5F8704620F03BFFFD210C4820F090
:1015F80037FF0120FFF7E0FFFF2804D1042385F817
:101608007436022038BD092385F87436054BD3F8A3
:101618001837C5F864362046F4E700BFA81A00203A
:10162800003C0040A02B002070B5334C054616F056
:1016380085FCD4F83037C4F83417C31AB3F5FA5F09
:10164800C2BF002384F8383784F8393794F838371C
:10165800C4F8300723B9A12D04BF012284F8392723
:1016680094F8392732B1E218EDB2013382F8705696
:1016780084F8383794F8383794F83A279A420AD1D8
:1016880094F83B37052B07D0062B09D0002384F8A4
:10169800393784F8383770BD0020FFF731FEF5E799
:1016A80094F871361E2BF1D100252946013AEBB288
:1016B800934206DB224492F870369942E6D1032021
:1016C800EBE72344082093F87036DBB281EA03067F
:1016D80016F0010F4FEA530318BF83F08C0300F193
:1016E800FF3018BFDBB210F0FF00C1F34701EDD1A6
:1016F80001351946DBE700BFA02B002010B50446D2
:1017080016F01CFC0F4BD3F84027C3F84417821A75
:1017180041F288318A42C4BF002283F8482793F8EF
:101728004827C3F84007142A03EB020114BF01320B
:10173800012281F8934614BF83F8482783F892263C
:1017480010BD00BFA02B002010B5044616F0F6FB14
:10175800264BD3F85027C3F85007821AB2F57A6F90
:10176800C4BF002283F85827214A516093F85827AC
:101778004AB9A82C2ED183F8A826A3F8AA26991826
:1017880081F8AC4606E0022A02D183F8A946F6E7BA
:10179800242AF4D993F8A91601320231D2B24900A9
:1017A8008A4283F8582716DAB3F8AA06E4B280EA20
:1017B8000420082241F2210110F4004F02F1FF3207
:1017C8004FEA400018BF484012F0FF0280B2F3D140
:1017D800A3F8AA0610BD01318A4201BF002283F88E
:1017E8005827012283F8A826F4E700BFA02B002081
:1017F800F032002010B5044616F0A0FB104BD3F8C9
:101808006027C3F86417821A41F288318A42C4BF3C
:10181800002283F8682793F86827C3F860070F2A1F
:101828000DD8511CC9B21A441029E4B282F80647EF
:101838000CBF0122002283F8681783F8052710BD22
:10184800A02B0020104B70B51E4693F8082F002AD5
:10185800FBD104464518AC4201D1002070BDD6F832
:10186800E43E14F8011BF2180133C3F30A0382F8AB
:10187800101FC6F8E43EFEF78BFD0028EBD10120CF
:1018880016F09FFEF7E700BFA81A002038B50D46EE
:10189800FEF726FD50B1064C002AD4F8183705DDAE
:1018A80011462846FFF7CEFFD4F8183738BD00BFD9
:1018B800A02B002010B590F84810002380F848307D
:1018C80079B10B4CD4F8D4266AB1D4F8D426052AB9
:1018D8000BD1084C3430D4F81837FFF7B3FFD4F8DD
:1018E8001837012010BD1046FCE71846FAE700BF7C
:1018F800A81A0020A02B0020002280F84920D9E750
:1019080090F84820531C0244DBB280F8483082F833
:10191800341090F849200AB1132B00D9CAE7704750
:10192800024BD3F86C0720F011BC00BFA02B00209D
:1019380038B5044608200D46FFF73EFEFF2811D0B3
:10194800FE2811D12B4600222146084820F05AFDD6
:10195800FF21064820F084FDFF21044820F080FD87
:10196800002038BD0120FCE70220FAE7003C0040D7
:1019780013B540F040038DF800300B0E8DF80130A0
:101988000B0C8DF802300B0A8DF8033095230446B2
:101998008DF804108DF80530FFF7FCFD00B954B937
:1019A80006236A460021054820F02CFD0820FFF791
:1019B80003FE02B010BDFF20FBE700BF003C004063
:1019C80010B50E4C94F87436032B03D900210C483B
:1019D80020F0E9FC94F868360133DBB2072B84F871
:1019E80068369DBF074BD3F81837C4F86436002310
:1019F80098BF012384F8743610BD00BFA81A0020D0
:101A0800003C0040A02B00202DE9F047C04C94F882
:101A180070978CB0CDE90001B9F1000F40F09880C3
:101A28000CB0BDE8F087D4F8740720F086FAD4F833
:101A38007837132B06D85A1C2344C4F8782783F820
:101A48007C074D46DDE90023C8E90023D4F8740774
:101A580020F079FA0028E6D1D8E90023DDE900670B
:101A6800B61A67EB0307002F08BFB6F57A7FC0F0F8
:101A7800C981D4F8783733B1D4F8A437C4F87807D3
:101A88000133C4F8A43794F8343E012B00F0D78012
:101A9800C0F0BF80022BC3D1DFF880C24FF0FF3502
:101AA800E6464FF4807A4FF00009E0469EF8003091
:101AB800CBB19EF80130B3B1BEF80430DE0712D5C1
:101AC800DEE90601DDE90067DEE90423361A67EB83
:101AD80001079F4208BF964205D39EF8023053453E
:101AE800BCBF4D469A4609F10109B9F1100F0EF134
:101AF800680EDBD1681C00F0BB800DF1300945F0A1
:101B0800400309F8243D01224946002022F08BFABF
:101B1800DDE900127F4B8DF80D00C3E90012D4F8FF
:101B280074070222494620F014FAD4F89837013392
:101B3800C4F8983768235D432C444544D4F8C83723
:101B48000133C4F8C837DDE90034C5E9063467E76E
:101B5800002504F5F26879E7402D26D0602D7FF442
:101B68005FAF94F87D27D11C8B427FF459AF202AB0
:101B78003FF656AF324626446749002022F053FA12
:101B880096F87C3708E0042B7FF44AAF03226249B9
:101B980022F049FA94F87F37834200F08C81D4F818
:101BA800A0370133C4F8A03785E194F87E572A1D81
:101BB80093427FF435AF202D3FF632AF3246564977
:101BC800264422F030FA96F87C378342E7D1682021
:101BD80000FB074696F8A837002B00F06C81B6F892
:101BE800AC37DB0740F1678196F8CC3753B94DB174
:101BF8004A4900FB07102A46293926302EF05CF99D
:101C080086F8CC57682303FB07470023C7F8C83773
:101C180051E1404BDDE90067D3E90023B61A67EBD1
:101C280003073F4A0023BB4208BFB242BFF4F8AEE5
:101C38000023C4F8303E012384F8343EF0E6374AE6
:101C48000023682101FB03F0805C002800F0B080CD
:101C58000133102BF6D10023DDE90012C4F8403E11
:101C6800304BC3E90012CBE00133C4F8303ED7E66D
:101C78004FF4807200239CF8001079B19CF8011091
:101C880061B19CF8251049B1BCF80410890705D545
:101C98009CF802109142BCBF1D460A460133102B26
:101CA8000CF1680CE7D16B1C3ED06821694304EB4A
:101CB8000109463199F8CD278DF80D20414445F0AA
:101CC80060050DF10E008DF80C502EF0F5F822226B
:101CD80003A9002022F0A7F9DDE900120D4B8DF8C9
:101CE8002E00C3E90012D4F87407232203A920F0B8
:101CF80030F9D4F898370133C4F89837D9F8C83789
:101D08000133C9F8C837002389F8CD3788E600BF02
:101D1800A02B0020C83900201C33002048330020A5
:101D280080841E00D8390020654D6648D5E9002317
:101D3800DDE90067B61A67EB03070021B94208BF5F
:101D4800B042BFF46DAED4F8403E682202FB0342B5
:101D580092F8A81719B392F8AA278DF80D2043F026
:101D680020030020032203A98DF80C308DF80E0003
:101D780022F059F9DDE900238DF80F0045E9042325
:101D880003A90422D4F8740720F0E3F8D4F89837AC
:101D98000133C4F89837DDE90023C5E90023D4F8F6
:101DA800403E01330F2BC8BF0023C4F8403E37E63E
:101DB80094F8302E8DF80D2003A903228DF80C30ED
:101DC8008DF80E0022F02FF9DDE900123E4B8DF858
:101DD8000F00C3E90012D4F87407042203A920F005
:101DE800B8F8D4F898370133C4F89837D4F8303EA7
:101DF800FF2B7FF439AF94F8343E022B3FF410AE3A
:101E0800022319E7002D3FF40BAED4F87837032BE3
:101E18007FF606AE94F87C5705F01F0705F0E0053D
:101E2800202D03F1FF363FF4AEAE3FF695AE002D00
:101E38007FF4F6AD0D2B7FF4F3AD0C22234922F08D
:101E4800F2F894F8883783427FF4A9AEB4F8803763
:101E5800B4F8821794F87D6768227A434FF47A7051
:101E68005843A318012783F8A877194FA3F8AC178C
:101E7800174494F8842783F8AE2794F8852783F8C5
:101E8800AF2794F8862783F8B027C11794F88727D7
:101E980083F8AA67C7E9040183F8B127A3F8CC57E8
:101EA80000200021C3F8C857D4F89C37C7E90601B9
:101EB8000133C4F89C370023C4F87837B0E500BF75
:101EC800D8390020400D0300C83900201C330020F9
:101ED80048330020031EB8BF2D2210B5B8BF5842A2
:101EE8000C46AEBF0A2201F8012B0A2221F044FA5F
:101EF80000230370204610BDF0B5204C0B4685B07A
:101F0800024606250021A4461CF80570D61B501A67
:101F1800002EB8BF76420028B8BF404286420CEB7C
:101F2800050E05F10605BCBF79B27446602DEBD1EC
:101F380000251CF805608E420CEB05000CD1678863
:101F48004688DF1B9E1B002FB8BF7F42002EB8BFFC
:101F58007642B742C8BF04460635602DE9D161799B
:101F680003912179029161880191217800910020E3
:101F7800034922F06FF8204605B0F0BD5609030862
:101F8800105F03080D4B4278DB680D49DB43C3F350
:101F98000223C3F10403DBB202FA03F302781B0144
:101FA800881803F0F00380F800335009012302F089
:101FB8001F0203FA02F241F82020704700ED00E00A
:101FC80000E100E000F01F0240090123032803FAA2
:101FD80002F308D004280BD002280DD1074A516C0F
:101FE8000B4353647047054A116C0B4313647047E5
:101FF800024A116B0B431363704700BF003802405D
:102008001A4A038890429BB212D002F5806290422D
:102018000ED0B0F1804F0BD0A2F58032904207D09D
:1020280002F58062904203D002F58062904202D1AC
:1020380023F070039BB20E4A904206D002F58062EC
:1020480090421CBF23F440739BB203804B68C36269
:102058000B880385054B984203D003F580639842AB
:1020680001D18B7A038601238382704700000140E7
:102078000010004010B50649002301EB0312147943
:10208800844203D001330B2BF7D10022104610BD38
:10209800B80903080C2921D8DFE801F0072020201F
:1020A80010202020182020202100038B23F0080373
:1020B8001B041B0C43F0080303837047038B23F4B2
:1020C80000631B041B0C43F40063F5E7838B23F0C8
:1020D80008031B041B0C43F0080383837047838B9E
:1020E80023F400631B041B0C43F40063F5E7044B63
:1020F8001A89920746BF1889C0F3C010012070479B
:10210800003C004008B5FFF7F2FF0028FBD1034B65
:10211800D3F86C07BDE8084020F01DB8A02B0020BC
:1021280010B5044600681CF095FC60681CF092FC31
:10213800A068BDE810401CF08DBC30B5002351F8F4
:10214800234052F82350641B40F823400133032BEB
:10215800F5D130BD70B5274D05F11002294611F8AB
:10216800016BA6F13003092B28D9224A0020AB1AAB
:10217800022B28DC002395422FD82E2E37D1042499
:1021880000220D7802EB8202303D5200092D92B2F6
:1021980098BF521904F1FF349CBF013192B214F078
:1021A800FF04EED164214A43134901FB03230622AD
:1021B800B3FBF2F3114A02FB003070BD8A420D46B0
:1021C800CCD10020F9E700EB8000400012F8013B79
:1021D8003038184400F0FF00C9E703EB83046400BB
:1021E80012F8013B303C1C4404F0FF03C3E7002213
:1021F800D8E700BFE439002040420F0080969800DD
:10220800044BD3F8543E1BB11B689B6903B11847B4
:1022180000207047A02B0020044BD3F8543E1BB17C
:102228001B68DB6903B1184700207047A02B00200A
:10223800044BD3F8543E1BB11B681B6A03B1184703
:1022480000207047A02B0020642828BF642000EBE2
:10225800800070B545006424002695FBF4F4E4B2D0
:10226800F3B29C4212D80A2C0BD0142095FBF0F044
:10227800C4EB84156638C4EB85052844C0B20AF05F
:1022880013FF0134E4B2092C05D970BD9F200AF070
:102298000BFF0136E4E79A20F1E72DE9F743124DE9
:1022A80095F8584E06460F46DCB905F65C6520469B
:1022B800A846A14663596BB11A68126A0AB1184652
:1022C8009047CDF8009008EB04033A463146B62013
:1022D80028F0FCFDDC34B4F5257FEBD103B0BDE874
:1022E800F0830020FAE700BFA02B002030B51A4C7D
:1022F80094F854315BB3D4F85C510368DFED176A86
:102308005B1B07EE103AB8EEC77A4368D4F8605101
:1023180027EE267A5B1B07EE903A81ED007A94ED62
:10232800567A8368012AF8EEE77A27EE267A18BFEC
:10233800D4F8642167EE877A18BF9B1AC1ED017A39
:1023480007EE903AF8EEE77AC1ED027A30BD002345
:102358000B604B608B60F9E7983C00202C7D8E3F2A
:102368000E4B062230B483F86A27242283F86B27A1
:1023780083F86C27002283F86D27094A03F26E71EF
:1023880002F1240452F8045B41F8045BA242F9D13B
:1023980030BC83F8700709F079BE00BF983C002074
:1023A800680A030813490023F0B51A460D461E466D
:1023B8000A278C1894F8444E0CB91846F0BD2E2CF8
:1023C80006D101320028F8D08C18044484F8446EF1
:1023D800AC187B4394F8444EA4F1300CBCF1090FBF
:1023E8009CBF303B1B190E2A01D80132E1E70023BC
:1023F800E3E700BFA02B0020F0B505460C4689B0E6
:102408001422002120462DF0BDFD2A681F4E04A984
:10241800C2F3855000230D4640FA03F7FF0744BF77
:102428009F5D0F7003F1010348BF0131062BF3D103
:10243800174800230B70C2F303210144C2F3053689
:1024480091F842118DF8181000F249100DF1190198
:1024580046FA03F7FF0744BF1F5C0F7003F101033F
:1024680048BF0131062BF3D100230B70C2F383431D
:10247800029306ABCDE90053064902F00F0320464C
:10248800C2F3031221F09AF909B0F0BD8C0A0308CF
:1024980050090308495F030838B51C4B93F85421C9
:1024A8002DED028B05460C4652B3D3F85C210A6029
:1024B800D3F860214A6093ED568AD3F864218A6084
:1024C800DFED138A95ED000A80EE280A2DF078FEDC
:1024D80023681844206028EE288A95ED010A80EECA
:1024E800080A2DF06DFE63681844606095ED020AD5
:1024F8002DF066FEBDEC028BA3681844A06038BDC1
:10250800C1E900228A60B7EE008AD9E7983C00202A
:102518002C7D8E3F38B5D0ED087ACA072DED068B95
:1025280070EE608A56BF70EEE77A78EEE77AF1EEE1
:10253800677A90ED008A54BFC0ED080A87EE810AD9
:1025480004460D4600F110004FF00A014CBFC0EDE3
:10255800048A87EE810A50ED02AAF0EE410AF0EEF5
:10256800619AB0EE419AB0EE42AA28EE888A21F02C
:1025780022FDD4ED076A78EE267AEAEE807AF4EE48
:10258800E97AF1EE10FA08D4F4EECA7AF1EE10FA0C
:10259800D4BFF0EE679AF0EE4A9A94ED017A94ED82
:1025A800036A68EE878AB0EE667AA9EE287A6B0726
:1025B80079EEE77A67EE867AA9EE277AF0EE477A1F
:1025C80014D5B5EEC07AF1EE10FAF5EEC06A4CBF3C
:1025D800B1EE477AB0EE677AF1EE10FA48BFF1EE45
:1025E800666AB4EEE67AF1EE10FA01D5C4ED077A20
:1025F800B0EE690ABDEC068B38BD10B588B0002373
:1026080000930B6801934B6802938B6814490393FA
:10261800D1ED047ACB680493F1EE677ACDED057AB3
:10262800D1ED057AF1EE677ACDED067AD1ED067A2D
:102638000446F1EE677A6A460C316846CDED077AB2
:102648002BF01CF9694604AA08462BF017F9019BE0
:102658002360029B6360039BA360204608B010BD03
:102668000000001030B5194CD4ED047A89B0F1EEB1
:10267800677ACDED057AD4ED057A00230093F1EE63
:10268800677A0B680193CDED067A4B68D4ED067A2C
:1026980002938B6803930546E3680493F1EE677A27
:1026A8006A4604A96846CDED077A2BF0E7F8694633
:1026B80004F10C0208462BF0E1F8019B2B60029B09
:1026C8006B60039BAB60284609B030BD000000106A
:1026D80010B4074991F8AD2700240480022A28BFC6
:1026E800022201F2B2715DF8044B2DF0E5BB00BF88
:1026F800983C0020054991F8AD270023042A03607F
:1027080028BF042201F2B2712DF0D6BB983C0020FC
:102718002DE9F743274C9846FE2384F8BC3894F8F3
:10272800D03984F8BE380DF10809013384F8D0395E
:102738004FF6FF7329F8023D174684F8BD2884F840
:10274800BF0884F8C018002604F6BA050136062E1C
:1027580024D1BDF80630A4F8BA3894F8BD38164E1E
:1027680008331D44A6F10809AE421DD1404613495D
:1027780005F07CFE94F8BD38B4F8BA28234407F174
:10278800080083F8C22894F8BD38B4F8BA2823445E
:10279800120A83F8C32803B0BDE8F083AB19494691
:1027A800987805F063FED1E7494616F8010B05F065
:1027B8005DFED9E7983C00205A450020524500208C
:1027C80017B48DF805308DF804200A4BBDF80420A5
:1027D8009DF81040A3F8C2282F2283F8C12883F857
:1027E800C448032299238DF8064003B05DF8044BD2
:1027F8008EE700BF983C0020F8B5104C0646002133
:10280800D4F8FC091FF0A2FB002504F52067B542A7
:10281800D4F8FC090DDB00211FF098FB084BD3F816
:102828001837C4F8203AB4F8243A0133A4F8243A03
:10283800F8BD795D1FF08AFB0135E8E7983C002078
:10284800A02B0020011D0023884201D118467047A3
:1028580010F8012B5340082213F0800F02F1FF32C9
:102868004FEA430318BF83F0310312F0FF02DBB2D3
:10287800F2D1E9E71FB52C4C2C4BC4F8543AB4F804
:10288800A23A0A2204F668211B0193FBF2F3A3F58E
:10289800B063C4F8601A9BB2002221F812300132EA
:1028A800122AFAD1224B84F8382A42F6F82000215D
:1028B800C3E902011F4BC4F8583A40201E4BC4F824
:1028C8005C3A29F01FF850B394F8933A94F8922A96
:1028D80090F90200002B14BF08230023002A18BF18
:1028E80043F00103029303224FF4E133CDE90032B0
:1028F80040210023114A28F05DFEC4F8B00A58B1FF
:1029080094F8B43A6BB90E4BC4F8B83A022384F879
:10291800B43A012384F8BC3A003018BF012004B04F
:1029280010BD0023F6E700BF983C0020C101000855
:10293800D0460020A1A902081DA4020865A002082B
:10294800DDA3020830B51D4C102341F27C5084F8F9
:10295800383A002104F63823C3E90201184BC4F8B9
:10296800543A184BC4F8583A85B00025282340201B
:1029780084F8BD5A84F8BE3A28F0C4FFD8B194F858
:10298800933A90F90200AB4214BF08232B460293F6
:102998000D4B0322CDE9003240212B460B4A28F08B
:1029A80009FE0121C4F8C00A1FF0BEFAD4F8C00A13
:1029B800401B18BF012005B030BD00BF983C002067
:1029C800419B0208599B020848E80100C59E02087D
:1029D8007FB5214C0E2344F6206084F8383A002154
:1029E80004F63823C3E902011C4BC4F8543A002604
:1029F8001B4B84F8C46A4020C4F8583A28F082FF78
:102A080028B3058894F8933A84F8C56A05F41075D4
:102A1800B5F5107F90F902000CBF03220122C3B95B
:102A2800B5F5107F14BF33460823CDE901234FF4D1
:102A3800E13300930B4A0023402128F0BBFDB5F594
:102A4800107F08BFC4F8C80A003018BF012004B0BE
:102A580070BD0823E9E700BF983C0020E99B020805
:102A680053AC0208A19F0208F0B5314D95F8912AA0
:102A7800052A85B04FF0000003D0062A45D005B0DE
:102A8800F0BD2C4B18762C4B0C2183F8390783F8B2
:102A980038071B2085F8381A83F83A0783F8911607
:102AA80083F83B274FF4E136244B42F6F820002107
:102AB800C3E90201224BC5F8543A4020214BC5F81E
:102AC800583A28F01FFF04460028D8D021F05CFFB0
:102AD80095F8932A94F902700096002814BF0323EE
:102AE8000123002A14BF082200220446CDE901323E
:102AF80040210023144A384628F05CFD0CB1C5F883
:102B0800CC0A003018BF0120B9E70A4B0F4E1876DF
:102B1800094B0C2183F8390783F83807212085F8F9
:102B2800381A83F83A0783F8911683F83B27BBE7EE
:102B3800983C0020A81A0020A02B0020D046002096
:102B4800D5010008E90100083116000890D00300FB
:102B58007FB5194D082385F8383A42F6F82005F66E
:102B680038230021C3E90201144BC5F8543A402028
:102B7800134BC5F8583A28F0C5FE0446C8B121F0F1
:102B880003FF94F90260002814BF032201220023E6
:102B9800CDE901234FF4E132044600924021094A6D
:102BA800304628F007FD0CB1C5F8CC0A003018BF34
:102BB800012004B070BD00BF983C0020FD01000852
:102BC800AD130008051700087FB51C4D102385F8C4
:102BD800383A42F6F82005F638230021C3E9020105
:102BE800174BC5F8543A4020164BC5F8583A28F008
:102BF80089FE0446F8B121F0C7FE95F8932A94F9A6
:102C08000260002814BF03230123002A14BF0822EE
:102C18000022CDE901324FF4E133044600930A4A19
:102C280000234021304628F0C5FC0CB1C5F8CC0A79
:102C3800003018BF012004B070BD00BF983C0020D0
:102C4800110200081D14000851170008F0B52A4D9C
:102C580005F6F423C5F8643A284BC5F8543AB5F894
:102C6800A23A0A2105F52D601B0193FBF1F3A3F5A8
:102C7800B06385B0C5F8600A9BB2002120F8113016
:102C880001311229FAD11E4E85F8381A42F6F82277
:102C98000023C6E9022340201A4BC5F8583A28F009
:102CA80031FE044630B321F06FFE95F8923A95F85C
:102CB800931A94F90270002814BF03220122002BF2
:102CC8000CBF07230623002914BF082100210B434A
:102CD800CDE901230C4B0093044606F1BC030B4AD3
:102CE8004021384628F066FC0CB1C5F8CC0A003003
:102CF80018BF012005B0F0BD983C0020C1010008B4
:102D0800D0460020379D0208A0860100959D020844
:102D1800F0B5324C324D94F8913A04F6382285B029
:102D2800C5F82827002B4BD0012B0FD1032185F89C
:102D3800241785F8043707210C2385F82C1784F805
:102D4800383A42F6F8200021C2E90201254BC4F8BE
:102D5800543A4020244BC4F8583A28F0D3FD06468C
:102D680060B321F011FE94F8932A96F902700028B6
:102D780014BF03230123002A14BF08220022CDE92F
:102D880001324FF4E13306460093184A00234021EC
:102D9800384628F00FFC0EB1C4F8CC0A94F89F3AD4
:102DA80094F8382A013BDBB29A4285F820379CBF59
:102DB800002385F82037003018BF012005B0F0BD8A
:102DC800022185F8241785F804370321072385F89D
:102DD8002C1784F8383A45F2F050B4E7983C0020B4
:102DE800A02B0020A1140008C9140008FD17000832
:102DF800F0B5174B93F8182B03EBC20101F61C3101
:102E0800002403F654360C27062A04D90CB183F89B
:102E1800182B0020F0BD31F8024C0132E507D2B280
:102E28000DD520420BD091F900C0002407FB04F512
:102E380015F906E0E64505D00134072CF6D108312E
:102E48000124E1E783F8182B2B44D3F8580BE1E76A
:102E5800983C0020024B002283F8182BC8E700BFDB
:102E6800983C002070B52D4C94F89D5A1DF0E4FC58
:102E78000646002851D1013D092D4ED801210846AA
:102E88001FF018F913201FF039F9C4F8A80B20B166
:102E9800182383710223C371067201211FF0BAF946
:102EA800D4F8A83B13B11A689B8813833C2015F00B
:102EB80088FB002101201FF0FDF8002594F89D3AB9
:102EC8009D420CDB94F89E3A012B26D11DF0B4FCF0
:102ED80018BB84F89D0ABDE8704016F003B80021BD
:102EE80008461FF0E7F8D4F8A83B13B11A689B8886
:102EF80053837820002115F053FB012100201FF097
:102F0800D9F8D4F8A83B13B11A689B8813837820A2
:102F1800002115F045FB0135D0E770BD983C002035
:102F280010B51E4C94ED040AD4ED036A94ED057AAD
:102F3800D4ED067A20EE000AA6EEA60AA7EE070A46
:102F4800A7EEA70A2DF0BCFBDFED157AB4EEE70A71
:102F5800F1EE10FA08D54FF07E53E36000232361A9
:102F68006361A3610F4810BD94ED037AC7EE007A40
:102F780094ED047AC4ED037AC7EE007A94ED057AED
:102F8800C4ED047AC7EE007A94ED067AC4ED057AAA
:102F9800C7EE007AC4ED067AE4E700BF000000102F
:102FA800BD3786350C00001030B5ADF5815D87B0B2
:102FB800D0F8D0100DF5815300F10A0218330393AD
:102FC80006924FF6FF730A44ADF8103007920023BB
:102FD800B0F8D6208DF81230ADF81430ADF82020B6
:102FE800ADF8243090F8D520019306AB04460AAD1D
:102FF8008DF8222002A901AA1846029524F0B2FEF3
:1030080040B1029B94F8D42002A92046CDE902538E
:1030180027F07AFE0198002363720DF5815D07B0F1
:1030280030BDF8B5204C1D250F46064684F8AC5B2C
:1030380028F06AF9002028F0F3F8082028F0F0F8C2
:103048000E2028F0EDF8284628F0EAF8042028F0A9
:10305800E7F8042028F0E4F8002028F0E1F8302010
:1030680028F0DEF8002028F0DBF8384628F0D8F8F9
:10307800002028F0D5F828F027F904F6AD3028F01C
:1030880035F8234670B194F8AD2B52B994F8AE2BAD
:10309800302A00D02AB993F8AF2B12B993F8B03B75
:1030A80033700120F8BD00BF983C002010B5084AD5
:1030B8000023682101FB03F0845C1CB11044847870
:1030C800802C03D00133102BF4D1002010BD00BF99
:1030D80048330020704770477047704790F91A309E
:1030E8005A1C0AD003F58172124B03EB0213DA79EA
:1030F8006FF30002DA71FF23837690F91B104B1CE3
:1031080016D00C4A01F5817102EB011302EB011292
:10311800DB79D179C3F34503012B86BF03F1FF3374
:1031280003F03F03002363F34601FF23D171C37605
:10313800704700BF544B00202DE9F04F85B017466B
:1031480012F00202064603910193029200F0FD80FC
:10315800002840F0FA80FDF7C7F90220A9E04FF0F7
:10316800FF300446864680460021834A41F2260BFA
:1031780041F2180A02EB011C5CF80A301CF80B90AB
:103188009E4221D1B9F1000F00F0D98041F2980494
:1031980010590130105101F58174240110510C4669
:1031A80004F5817805EB08129279042AD3D8DFE870
:1031B80012F05600A100E100A100AA004FF0FF3074
:1031C800044686468046D0E7B9F1000F40D0B9F1F1
:1031D800010F14D101F5817902EB091999F80790CB
:1031E80019F0010F0BD119F07E0F08D15FEAD9133E
:1031F80030D10CF5815CDCF800C0C4452CD301311A
:103208000829B7D1431C40F09C80BEF1FF3F40F035
:103218009A80611C00F0AE8005EB041141F2980021
:1032280041F218028E502A5801322A5041F21C00ED
:103238000A5004F58170000129182A50CA79002023
:1032480002F0800260F3C71288808871CA71A7E70C
:103258000846D4E78E46D2E70C46E046CFE717F09B
:10326800010235D0454F97F87436042B24D1FEF768
:1032780057FB97F86A3633BB71021120FEF778FBCB
:1032880018BB3F4BC7F8546603EB44243D4BC7F8C3
:103298005C36052387F874363B4BC7F85046D3F89D
:1032A8001837C7F8643605EB08150223C7F8600617
:1032B800AB7105B0BDE8F08F082B5BD1FEF78CF938
:1032C800022857D1D3E73146D7E7FEF71BFF51E075
:1032D80005EB0811019BCE79F81060F3C716032B94
:1032E800CE712AD94FF6FF72934228BF134605EBD9
:1032F80008129380029B33B105EB041000F580504F
:103308001830FDF759F97A0741BF05EB0812D37950
:1033180043F00103D371FB0608D505EB0815EB79DB
:10332800C3F34502013262F34603EB71144B03EB1E
:103338004424039B01201C60BBE71346D7E70C46D7
:103348006AE7044668E7744666E70B4A41F20821D3
:103358001546515800293FF431AF41F2102041F28F
:103368000C241058125900FB01218E42FFF4F7AECD
:10337800FDF7BAF800209CE7544B0020A81A00205B
:103388006C4B002029440008A02B00207FB5104D6D
:1033980002AA0C4601A9FDF7D9F805F59053019E3C
:1033A80018680122002303A93044FFF7C5FE01284D
:1033B8000BD1DDE902232978022916BF53F8223000
:1033C80033F8123023F07043236004B070BD00BF9F
:1033D800544B002037B50446C0690D4698B1002308
:1033E800032201A9FFF7A8FE012806D1B4F920207D
:1033F800002A0ADAFDF778F8022003B030BDE52587
:103408008D54A2680AE00120F7E701995201012DC5
:1034180001EB0203F5D0022DF1D0E268DA612278DF
:10342800032A04D100221A775A779A77DA77626AE0
:103438005A83C2F30F419982DFE77FB50E4D01AA87
:103448000C4602A9FDF782F805F59053029E18680C
:103458000322002303A93044FFF76EFE012808D198
:103468002978039B019A02290CBF23F8124043F8DC
:10347800224004B070BD00BF544B0020034B1B78A2
:10348800032B0CBF80204FF480707047544B0020F2
:1034980008B50B4A68B1816811B10723937008BD5C
:1034A800FFF7ECFF0423C2E90100C2E9031111751B
:1034B800F4E741F2B411012353545370EFE700BF0E
:1034C800544B002008B5FFF7D9FF034A41F21023F7
:1034D800D3585B02584308BD544B00202DE9F04FE8
:1034E8000E4685B0174602A901AA80463068FDF746
:1034F8002DF8374A0299136801EB0309019B013B38
:10350800DD19FFF7BBFF3368ED1A0544A2F5905AA1
:10351800B5FBF0F54D443368BB42A5EB090103D375
:10352800012005B0BDE8F08FDDF804B00BEB070211
:10353800D21AFFF7A3FF8242044643D214460B2255
:103548000B46484603A9FFF7F7FD0128E9D19AF889
:10355800000032680399019B022802F101022ED172
:10356800A34223D33368019A9B1A2344B8F1010F6D
:10357800336016D1BB4214D19AF80030022B0BBF2E
:1035880004F1004404F1804404F1FF3404F1FF34F1
:103598000BBF4FF6FF734FF0FF3321F8143041F89B
:1035A8002430002309F101090193B4E721F813201D
:1035B80001330132D4E741F8232001330132A34219
:1035C800F9D3CFE7BBF1000F0CBF0A220B22B7E7F4
:1035D800545D00202DE9F7430029DFF808813F4EAC
:1035E800044614BF0227002794F83C30042B66D801
:1035F800DFE803F02403313B5A00DFF8EC9098F839
:103608000030206B032B4AD1484594BF0025012583
:10361800002D42D101A9FFF7B9FE01285AD1294648
:10362800206BFFF70AFF012854D1019B23633268FE
:10363800013B934294BF33603260E0E7394620464D
:10364800FFF7C8FE012803463BD1626B02B1022393
:1036580084F83C30C8E7626B04F130010020FFF7C2
:103668003DFF01282DD10323F2E71D48E16A0368D5
:10367800C26F016052025B1A534350F81C2C1A4463
:1036880040F81C2C50F8182C134440F8183C002122
:103698002438FFF79FFE012813D10423D8E785B209
:1036A8004FF6F7739D42B0E794F82830042B04BF17
:1036B800002384F82830A36B0BB1204698470120DB
:1036C80008E0022806D194F82830042B02D1002300
:1036D80084F8283003B0BDE8F08300BF685D00209F
:1036E800E85C0020544B0020F7FFFF0F2DE9F04164
:1036F8002C4E044600F1300806F1240794F83830BF
:10370800032B4CD8DFE803F00229313A39682161EC
:10371800FFF7D8FEE368244D1844E060FFF7AEFEDB
:1037280008443860FFF7CEFE2B68181A2860FFF7A8
:10373800C9FE6B68181A68602163FFF79FFEE36A89
:103748000844606323B96162012384F83830D5E7FF
:10375800FFF794FE081A2063F6E700213046FFF7CA
:1037680039FE01280ED10223EFE7626B41460120A2
:10377800FFF7B4FE012805D10323E6E70021204620
:10378800FFF728FE431EDBB2012B06D894F8283039
:10379800062B04BF002384F82830BDE8F0810120FF
:1037A800F0E700BFC45C0020CC5C00202DE9F04F9E
:1037B80085B00C4681461646FFF760FE01AA804692
:1037C80002A92068FCF7C2FE09F1FF33012B65D975
:1037D800019B2BB94546DFF8D8B00BF5905A1BE092
:1037E800FCF782FE022005B0BDE8F08F2E4A126871
:1037F800B2B12E490868984212D1C96F531E4902C6
:103808000B44B3FBF1F30344B3FBF5F205FB1232AF
:103818000AB12B449B1A23602368B342E6D32DE0F8
:10382800DAF8003002981F4607440023092203A94A
:103838003846FFF781FC012803D031D30228EBD1A9
:10384800D0E7039A9BF80030022B07D0032BC9D18D
:10385800019B52F8233023F0704302E0019B32F8B9
:1038680013302168B9F1010FB3FA83F38CBF00203C
:1038780001205B09984204D18E4213D826600320A8
:10388800B1E7019B2B442944434521600193D9D3D7
:10389800029B0133029300230193BDE701259AE7B8
:1038A8000020A0E701209EE7CC5C0020E85C002017
:1038B800544B002070B52F4D044605F10C0694F8C2
:1038C8003430052B10D8DFE803F003232E363E47AB
:1038D8002A6804F1300102320120FFF767FF01284E
:1038E80004D001D3032811D9002070BD224A236BCC
:1038F8001168E268336002EB4122E260E26A236108
:1039080002B96362012384F83430D8E70523FAE763
:103918004FF0FF31206BFFF790FD0128E4D1E36AF7
:103928003BB10223EFE7D4E90B01FFF786FD01283D
:10393800DAD10323E7E700212046FFF74BFD0128F2
:10394800D2D10423DFE794F82830082B02D10023D2
:1039580084F828300120C8E794F82830074A082B53
:1039680004BF002384F8283041F2B5130121D15453
:103978000220BAE75C5D0020645D0020544B002003
:1039880010B5044608B9FCF7AFFD204610BDF8B5E0
:10399800174C0023237041F21805A4F5855441F211
:1039A800260604EB031047598F421CD1805D03287B
:1039B80019D103F581754AB941F29C0204EB05154A
:1039C8000423AB71A3580133A350F8BD094901EB97
:1039D8004323D31A5842584104EB0514FFF7D0FF8C
:1039E8000123A371F1E70133082BDAD1EDE700BF1A
:1039F800F45B00206C4B002043682DE9F743C3F3C8
:103A080008020A44B2F5007F04460E4603D21E445B
:103A1800666001203FE0FFF761FB0378022B01D1CC
:103A28006368F4E7214A41F21023D7587F02B7426E
:103A380039DB41F218234168D35801EA0308C8F179
:103A48000003B3422FDC06EB0803BB421ED3237EE0
:103A5800006913F0080521D041F29413451C52F86F
:103A68000390A94534BF00200120FFF789FFA9452D
:103A780006BF00230193019523696361019B2361BC
:103A88006368A7EB08073B446360F61B2046FCF716
:103A980037FD0028C4D003B0BDE8F08301A9FFF7C3
:103AA80075FC0128E8D00020F5E700BF544B002042
:103AB80070B504460E461546FFF79EFF20B10DB1BE
:103AC8002046A847012008E094F82830022023B9AE
:103AD800C4E90B5684F82800184670BDD0E90132B5
:103AE80010B59A422CBF82608360FFF7F7FA002274
:103AF800436A4261036142601146BDE81040D7E75E
:103B080038B51A4C04F58F530146187858BB49B19B
:103B180091F828202AB94422A3F128002CF0CCF9E6
:103B2800012038BD124D442228462CF02BFA41F2D0
:103B3800D2134FF6FF72E25241F2D0120323A3547C
:103B48002278022A08BF13462B7041F21C2328460C
:103B5800E25841F2DC13E25041F2D1131022E25450
:103B6800FFF7BCFFDCE70020DBE700BF544B002079
:103B78000C5D00202DE9F04F4668DFF88CA185B078
:103B8800044689461746C6F308064FF00008BFB139
:103B9800C6F5007594F91AB0BD4228BF3D46BBF181
:103BA800FF3F204610D0FCF7E3FC524B41F21802CD
:103BB80003EB0B118A58904200F09680FCF794FCB6
:103BC800404605B0BDE8F08FFCF79AFC08B3237EA9
:103BD80094F828101A076ED5FFF774FC0629EFD061
:103BE800454B1A68904284BF012283F83D2093F820
:103BF8003D30002BE4D10029E2D1062384F8283097
:103C0800636984F83810E3622046FFF76FFD0128E6
:103C1800D6D12046FCF7ACFC6368C3F308028346A0
:103C2800002A5DD123F4FF7121F00101A26801F59A
:103C38000071914234BF07210621227E02F00C0256
:103C48000C2A4FD10193FFF73DFC019B013800EA94
:103C58000302FFF713FCDAF800304343A3EB5223C7
:103C68000A46584603A9FFF767FA0128A8D103981E
:103C7800FCF7B6FCA07603980028A1D02A4649464E
:103C880030442CF019F9002229462046A844FFF7B1
:103C98000FFF002894D0237E1B0708D5174B2069F7
:103CA8001B6898422CBF00200120FFF769FE7F1B8C
:103CB800A94400266BE7124B1B78002B80D1002902
:103CC8007FF47EAF082384F828306369E3620D4BE4
:103CD80084F834101B6823632046FFF7EBFD96E752
:103CE8000721AAE70023BBE7183303EB4B23039311
:103CF800C1E700BF544B0020CC5C0020E85C0020EA
:103D0800095D0020685D0020645D002070B50378BF
:103D1800023B012B04461CD8237E990623D4204657
:103D2800FFF7DCF9237E1A070AD5214E41F29815D0
:103D3800705DC31F58425841FFF722FE0023735598
:103D48000023237084F82830E36A5BB1BDE8704033
:103D58001847037E13F0060FDED00121FFF73AFB68
:103D68000128D9D070BD1249E269002341F2180533
:103D7800084605EB03167658B24210D103F5817256
:103D880001EB0211CB79C3F34503012B0BD80023B8
:103D980000EB0212D17963F34601D171BFE7013319
:103DA800082BE6D1BBE7013B03F03F03F0E700BF78
:103DB800544B002010B580B1027872B190F82820D9
:103DC8006AB9D0E9012494422CBF8460826003223E
:103DD80080F82820C162FFF799FF012010BD00205C
:103DE800FCE72DE9F743DFF82081044608F10809CC
:103DF80094F83830032B00F28280DFE803F00210D9
:103E08006F782046FFF756FD012802D184F8380064
:103E1800EEE7022873D1032384F83830E8E72378E3
:103E28006568022B18BFD9F80030204618BF1D401E
:103E3800FCF79EFBC5F34F2506462D1A00230222E8
:103E480001A93046FFF778F9AF190128BFB257D159
:103E58004FF40072002101982CF094F8E3691BB329
:103E680063680BBB019B4FF020322E211A605A6009
:103E78001970C3F80720606A5883C0F30F4C1020EC
:103E880083F8201083F82110D872C3F82220C3F8D1
:103E9800262083F82A20E26BA3F814C0C2F30F414E
:103EA80099865A8783F82B00D8F800104B1E9F423A
:103EB80008D24FF400712046FFF79EFDFFF760FD22
:103EC8000136BBE7C1EBC151490201F5007120463B
:103ED800FFF792FDFFF754FD02239DE7002384F8C6
:103EE8002830236C0BB120469847012008E0236C4A
:103EF800002084F8280003B19847022000E0002041
:103F080003B0BDE8F08300BF645D0020B1F9043060
:103F18000F2B2DE9F34104460D4616460BD14FF4FD
:103F28000071FFF769FD18B9002002B0BDE8F08103
:103F38004FF6FF73AB802046FCF71AFB94F91B2061
:103F4800531C074611D01F4B41F2180103EB021016
:103F580041588F4230D0FCF7C7FA2046FCF7D0FA18
:103F68000028E1D00023336024E02046FCF7C8FA9B
:103F780080460028F1D1381C18BF0120FFF700FD4A
:103F88004346112201A93846FFF7D6F80128E4D1A3
:103F98000198FCF725FBE076019A002ADDD0AB8872
:103FA80001331BB2AB8002EB431333602046FCF7AE
:103FB800DFFA28600120B8E7183303EB42230193A6
:103FC800EAE700BF544B00202DE9F041914D86B03F
:103FD800044605F1280694F83030042B11D8DFE8A0
:103FE80013F0130005005400CF00150104F11C085C
:103FF80001AA41462846FFF789FF01280ED002286A
:104008003ED006B0BDE8F0812846FFF767FD4FF6C1
:10401800FF732384012384F83030DCE7019F0FB15C
:104028003B7863B92846FFF759F8237ED9062AD585
:10403800FFF754FD4FF6FF7323840223EBE70B22AF
:1040480004F1310138462BF0C9FF0028D0D1BA8AD3
:104058007B8B43EA0243704A63621268FB69A36080
:104068005202B3FBF2F102FB113109B113445B1A9E
:10407800E360FB7A63762846FFF730F80323CAE744
:104088002846FFF72BF80423C5E73378002BB8D16F
:10409800624FA7F1380801AA04F11C015D48FFF737
:1040A80035FF01284BD1019878B30378E52B01D06F
:1040B800002BF0D1FCF794FA594F07EB0010FCF7EE
:1040C8007BFA07F5D070FFF709F820220021019844
:1040D8002BF058FF2346019A53F8311F1160596895
:1040E8005160198911819B7A9372019B627EDA7201
:1040F80003A81FF093F9019B20BB6FF07E021A748E
:1041080047225A749873D87335E02B78022BBAD0AB
:104118003278002AB7D109233370424B3A70C3E989
:10412800002253F8281C03F8082C1A6A43F8101CBC
:1041380043F80C2C4046FFF754FE0128ABD0022868
:10414800A1D05EE79DF80E109DF80F2042EA4112BB
:10415800BDF80C10A1F2BC7142EA41221A829DF806
:1041680010209DF81110D20242EA41129DF8121057
:1041780042EA5102DA811A8A1A83DA89DA827DE7F9
:10418800237E9A0608D50023112202A9E069FEF7CA
:10419800D3FF01287FF435AF2046FFF79FFC226943
:1041A800237E8AB91B0708D51F4A41F29813D15CB0
:1041B80000297FF426AF0721D154002384F8283042
:1041C800E36A204698471CE703F0F70113F004035D
:1041D8002176E26A07D0002384F82830A1682046B7
:1041E800FFF766FC0DE71229E7D1A263626A84F83B
:1041F8003C30042184F82810C4E90B22636363620D
:10420800C4E902332046FFF769FCFAE60020207073
:10421800E36AD7E70C5D0020645D0020445D002060
:104228006C5B0020485D0020544B00202DE9F347CB
:10423800037804466BB190F82830013B082B08D866
:10424800DFE803F0050A59695C6D07707300FFF732
:10425800BBFE02B0BDE8F087354B4568DFF8D49067
:1042680041F210229F5841F218227F029B581D40AC
:10427800216B20466E18FCF743F9B742804616D9E1
:10428800002834D0D4E901329A422CBFA260A3603E
:10429800002384F82830E36A002BDAD020469847B8
:1042A800D7E701A9FFF772F8012813D0D1E7002852
:1042B800E8D1237E20691B07F3D5D9F800A0461C56
:1042C800B24534BF00200120B24508BF4646FFF77B
:1042D80057FB019623696361019B62682361236B25
:1042E8007D1B2A445B1B626023630025C0E763686B
:1042F8000B446360C6E7FFF709FDAAE70121FFF752
:1043080069F90128A5D1002384F82830216C2046BA
:10431800FFF750FD9DE70021FFF75CF999E7FFF7EC
:10432800E5F996E7FFF7C6FA93E7FFF75AFD90E736
:10433800544B0020E85C0020F8B504460D461646AC
:10434800002144221F462BF01DFE4FF6FF736383A6
:10435800012384F8283027762F4928462AF038FC8C
:1043680020BB2E4B41F2DC129A58626241F2C41211
:104378009A58E26003F58E521268A26041F2D11297
:104388009A5C627641F2B8129B5C2370069BE362EA
:10439800214928462AF01CFC00283BD1032320464B
:1043A80084F83030FFF710FE2046F8BD04F13100E4
:1043B8002B46002120271A780AB12E2A18D14754F3
:1043C80001310829F7D11A782E2A04F1390108BFDA
:1043D800013304F13C0020271A7892B90F7001319B
:1043E8008142F9D1F30666764CBF03230123CCE75B
:1043F800A2F1610CBCF1190F98BF203A4254013365
:10440800DEE7A2F1610CBCF1190F98BF203A0A70DF
:104418000133E4E70023C2E7287D0308544B00205A
:10442800F8B5154C002341F22605274641F2180C31
:1044380004EB0316705DD8B156F80C608E4217D1A4
:1044480003F581751AB904EB0514A271F8BD0B497F
:1044580001EB43239A4209D1831E5842584107EB86
:104468000514FFF78DFA0123A371EFE70020F6E7A3
:104478000133082BDCD1E9E7544B00206C4B0020BA
:104488002DE9F043C44DC54E85B02C4695F87436D9
:10449800013B082B00F2AB81DFE813F009003F0075
:1044A800C800A901C70127018C01A901FE01FDF778
:1044B80037FA00210846FDF75BFA8046FDF722FE31
:1044C800B8F1010F40F09381002784F86976FDF771
:1044D80027FA40F2AB110820FDF74AFA05280CD15B
:1044E80084F86986FDF70EFE94F86936002B00F013
:1044F8007581022384F87436C8E70128F2D10423B1
:104508003A466946A6481DF07DFF9DF80330AB2B5F
:1045180004BF022384F86936E4E7FDF701FA94F84A
:104528006936022B14BF00274FF08047002137203F
:10453800FDF71EFA39462920FDF71AFA0746FDF756
:10454800E1FD002F40F0538194F86936022B35D1F4
:10455800FDF7E6F939463A20FDF70AFA04238046C2
:104568003A4669468E481DF04DFFB8F1000F58D104
:10457800FDF7C8FD009B1BBAC3F3807384F86A3645
:10458800FDF7CEF900210920FDF7F2F998B91021BD
:104598008448FDF7CDF9804668B901217F20FBF7F3
:1045A80059FE0128074606D102214046FBF752FE74
:1045B80038B101282CD0FDF7A5FD18E184F86A76FA
:1045C800DEE704212C20FBF745FE032181464E201F
:1045D800FBF740FE0C2180463620FBF73BFE08F136
:1045E8000208013000FA08F007FA09F7A0FB0701F2
:1045F800430A43EAC153C4F88C36FDF783FDFDF73F
:104608008FF900210A20FDF7B3F950B9032371E7A8
:1046180016213A20FBF71EFE01308002C4F88C06F2
:10462800EBE7FDF76FFDFDF7CBF92FE710216846A3
:10463800FDF77EF9002840F0DA809DF800309DF8FB
:10464800012084F878369DF8023043EA0223A4F862
:104658007A369DF8033084F87C369DF8043084F867
:104668007D369DF8053084F87E369DF8063084F84E
:104678007F369DF8073084F880369DF808301A098F
:1046880003F00F0384F88236DDF8093084F88126B8
:104698001BBAC4F884369DF80D309DF80E201B0116
:1046A800DBB243EA121303F5FA6302F00F02A4F82F
:1046B800883684F88A26FDF725FD94F86A365BB9B2
:1046C800FDF72EF94FF400711020FDF751F9074658
:1046D800FDF718FD002FA6D1022131481DF063FE19
:1046E8000023C4F87036042304E72F4B93F8BD1B4E
:1046F800002900F0E4802D4B5A68110140F18680B2
:104708004FF00062DA603368254923F00103336013
:104718000B89DA0701D58B89FAE7FDF7E8FC002851
:10472800FBD18B8823F002031B041B0C8B80002118
:104738001B481DF095FE002119481DF091FEFF2130
:1047480017481DF08DFE00F01F00052814D107231F
:1047580084F87436164BD4F85C56D3F81837C4F876
:104768006436002D52D0D4F86036D4F85026D4F8E8
:1047780054160120A8473AE0FDF722F9D4F85C76F0
:10478800002F3FF483AED4F86036D4F854160022D4
:104798000120B8477AE600BFA81A0020B860024096
:1047A800003C004038210020983C00200060024076
:1047B800A02B0020FCF7EEFE002874D0002384F81C
:1047C8006836D4F87036012B0BD9013BC4F8703623
:1047D800D4F86C360133C4F86C36082384F8743680
:1047E80005E01ED1FCF7F8FE02283FF4E4AE94F889
:1047F8007436013B022B09D83B4BD4F86426D3F816
:1048080018379B1AC82B01D9FDF7DAF894F8740603
:10481800042852D0A0F108035842584105B0BDE819
:10482800F083042384F87436C5E64FF40071D4F895
:104838005006FDF77DF8012825D011D30228D6D1DE
:10484800FDF760FCFDF7BCF8D4F85C76002F3FF468
:104858001DAE0022D4F86036D4F85416104698E7F6
:10486800FDF750FCD4F85C560423002084F8743615
:1048780084F86806002DC9D0D4F86036D4F85026DC
:10488800D4F8541676E7184BD3F81827D4F86436BA
:1048980064339342D4D3AAE7FCF77CFE18B1FDF742
:1048A80031FC04239AE7104BD3F81827D4F8643660
:1048B800FA339342FFF4B7AE99E70120AEE794F8D4
:1048C8005806D4F850264FF4807302EB00220748AC
:1048D8001DF098FD94F858360133DBB2022B84F8AA
:1048E80058363FF424AF82E7A02B0020003C00405C
:1048F8000B88F0B54C888E880D89C98803BB038C5A
:1049080023F001031B041B0C0384028B038C92B25B
:104918009BB222F0F302324323F00A0342EA051263
:10492800234343F0010392B202830384038B23F0F1
:104938000C031B041B0C0383038B19430183F0BD79
:10494800042B26D1038C23F010031B041B0C0384B7
:10495800078B038C27F440779BB23F05320223F084
:10496800A0033F0D42EA053243F0100347EA02056F
:1049780043EA04139BB2ADB205830384038B23F48B
:1049880040631B041B0C0383038B43EA012189B298
:10499800D4E7082B038C21D123F480731B041B0C50
:1049A8000384828B038C92B29BB222F0F30223F42D
:1049B8002063324343F4807342EA051243EA042336
:1049C8009BB292B282830384838B23F00C031B0473
:1049D8001B0C8383838B19438183B0E723F48053B3
:1049E8001B041B0C0384828B038C23F4005340F6B6
:1049F800FF475B0417405B0C2A0342EA062243F494
:104A080080533A4343EA04339BB296B286830384C5
:104A1800838B23F440631B041B0C8383838B43EA3F
:104A2800012189B2D8E71FB5012302930023002989
:104A3800ADF80C304379ADF8043001A914BF002358
:104A480002230068ADF80630FFF752FF05B05DF8A5
:104A580004FB0023C0E90033C0E90233C0E9043392
:104A6800C0E90633C0E90833C0E90A33C0E90C33AA
:104A7800836370470368134A10B51A40CC680B6803
:104A880023434C6923438C692343CC6923430C6A31
:104A980023434C6A23438C6A23434C6B23438C6B1C
:104AA800234313430360D1E90B344269234322F0C3
:104AB8000702134343610B6943604B6883608B684B
:104AC800C36010BD3F801CF0036823F0010303603E
:104AD8000023036043608360C36003612123436153
:104AE8002A4B984203D13D2243F8082C7047284BA3
:104AF800984204D14FF4746243F8202C7047254B38
:104B0800984204D14FF4741243F8382C7047224B62
:104B1800984204D14FF0746243F8502C70471F4BF1
:104B2800984203D11E4A43F8642C70471D4B9842A3
:104B380003D11D4A43F87C2C70471C4B984203D183
:104B48001B4A43F8942C70471A4B984204D14FF0F3
:104B58003D5243F8AC2C17E0174B9842C3D0174B83
:104B68009842C7D0164B9842CCD0164B9842D1D019
:104B7800154B9842D6D0154B9842DAD0144B984230
:104B8800DED0144B9842E2D0704700BF106002405C
:104B98002860024040600240586002407060024055
:104BA8003D00002088600240400F0020A0600240C5
:104BB80000003D20B86002401064024028640240B2
:104BC80040640240586402407064024088640240B5
:104BD800A0640240B86402402DE9F04779494FF0DB
:104BE800FF3290B01646002341F226070D4641F2E7
:104BF8001C0C01EB0314E05D04280ED103F5817051
:104C080001EB0010C079C00707D454F80C00741CDD
:104C180001D0904201D21E4602460133082BE8D14A
:104C2800701C00F0CD8006F5817805EB081337017C
:104C3800B3F804A0644CBAF1000F22D041F2180373
:104C4800EA1952F8039094F87436042B0FD1FCF744
:104C580067FE00213720FCF78BFE51461720FCF732
:104C680087FE10B3FDF74EFAFCF7AAFE09E0082B01
:104C780007D1D4F86C364B4503D0FCF7ADFC0228BD
:104C8800E5D02F4441F21803FF5894F87436042BEA
:104C98001FD0082B07D1D4F86C369F422AD0FCF7D6
:104CA8009BFC0228F1D0002080E094F86A3673B9A2
:104CB8004FEA49211920FCF75BFE0028D2D10823CE
:104CC80084F87436C4F870A6C4F86C96D9E74946D7
:104CD800F0E7FCF725FE94F86A364BB979021820FC
:104CE800FCF746FE30B1FDF70DFAFCF769FEDAE78E
:104CF8003946F4E794F874963448FF211DF0B0FB68
:104D0800B9F1080FDFF8C490314B14BFFE21FC2124
:104D1800484603EB46261DF0A3FB2E4B93F8BD1B1C
:104D2800002946D001A8FFF794FE4022DFF8B4A07E
:104D38000492294A02924FF4806200230792504657
:104D48004FF4007201930B930693089309930A9307
:104D580005920396FFF7B8FE01A9FFF78BFEDAF874
:104D6800003043F00103CAF80030B9F8043043F0CA
:104D78000203A9F80430194BC4F85C3641F29C01CF
:104D8800062384F874366B58C4F85066013B6B50A0
:104D980005EB08150323AB71114BC4F854760122B7
:104DA8000020C4F8600684F858261A7010B0BDE8D0
:104DB800F0874FF48073324648461DF023FBDAE74C
:104DC8000120F3E7544B0020A81A0020003C0040C3
:104DD8006C4B0020983C00200C3C004097390008A0
:104DE800F45B0020B860024082B000230193009376
:104DF800012300900193019B63B1009B143321F0C0
:104E08007F410093009B1B680B4214BF01200020C8
:104E180002B07047009A183200921946F2E7838A66
:104E2800028B43EA024331EA03030CBF012000204E
:104E3800704707B509238DF80730FCF71EFA8DF87F
:104E480007009DF80730012BF7D09DF8070003B045
:104E58005DF804FB2DE9F0430D68002201260324C8
:104E680006FA02FE3EEA05033DD15700D0F800C01D
:104E780004FA07F3DB430CEA030CC0F800C091F80E
:104E880004C0D0F800900CFA07F80CF1FF3C48EA8F
:104E98000908BCF1010FC0F8008017D8D0F808C085
:104EA80003EA0C0383604B79D0F808C0BB4043EA9F
:104EB8000C038360436823EA0E0343608B79D0F8C0
:104EC80004C093409BB243EA0C034360C36804FAEE
:104ED80007FC23EA0C03C360CB79D0F80CC0BB40B5
:104EE80043EA0C03C3600132102AB9D1BDE8F0834C
:104EF800F0B51C2085B01DF001F9112104461DF004
:104F080089F920461DF027F9C82013F05AFB2046DE
:104F18001DF01CF91B201DF0F1F828B11023837136
:104F28000123C371002303722CB11023A371022340
:104F3800E37100232372CC4BCC4ECD4D0822C3F82D
:104F48008820336B43F0010333634FF4C0530024CC
:104F58000DEB020102272846029303238DF80D303A
:104F68008DF80C708DF80E408DF80F40FFF772FF2A
:104F78006B6A23F470436B626B6A43F420436B6281
:104F88006B6A23F470236B626B6A43F420236B62B1
:104F98002C201DF0B3F821461DF03CF9736CB54A7E
:104FA800B54843F480437364736B43F080037363C1
:104FB800336A43F080533362B04B01265E61B04BD5
:104FC80002F12C01C3F840264832C3F84826AD4AFE
:104FD800C3F84416C3E917024FF0A0429A6602F5D7
:104FE8000062DA6602F580725A6702F50072C3F849
:104FF800B020A2F5F0729A6702F50072C3F8B420E7
:10500800A2F5F072DA6702F50072C3F8B820A2F5CB
:10501800F072C3F8802002F50072C3F8BC20A2F534
:10502800EC621A674032C3F82821C032C3F8EC207A
:105038002032C3F8F0202032C3F8F4202032C3F81D
:10504800F8202032C3F8FC202032C3F80021203297
:1050580083F8647083F86760C3F804212032C3F8CA
:10506800082102F52262C3F82C2102F58052C3F808
:10507800302102F58052C3F8342102F58052C3F87A
:1050880038214FF05022C3F83C2102F58052C3F872
:10509800402102F58052C3F8442102F58052C3F83A
:1050A8004821A2F5E442C3F86821214603F15C02D5
:1050B80083F8704183F86E611C46104615460B460E
:1050C800402780F81C11A0F822110131042980F82A
:1050D8001D6180F81F31C0F82471C0F82831C0F86C
:1050E800303100F12800ECD100231946402082F825
:1050F8007433A2F87A330133042B82F8751382F8DB
:105108007713C2F87C03C2F88013C2F8881302F13F
:105118002802ECD14FF0A0435B489A6822F00102C4
:105128009A60DA6842F04002DA60FBF7BEFA94F857
:105138006530002BA36E0CBF4FF434124FF4741279
:105148009A6394F85F20012A06D19A68052161F3D1
:10515800440242F020029A60DA686FF35D7242F00E
:105168008042DA60D4F8682100201060E26E11688D
:1051780060F3CC21116094F86710012912D11168ED
:1051880041F00301116080225A6202F580029A629E
:1051980002F14012C3F804214FF4A072C3F80821A9
:1051A800C3F80C211020FBF737F800230293029B69
:1051B80043F010030293A26E029B1361334B1169F3
:1051C8000291013B02D00299C906F8D4E26E00238D
:1051D8004FF0FF3113615361916194F85D10D36111
:1051E8001846FF268B4261D300231946FF2094F806
:1051F8005D20934268D3E36E94F85F101A69012921
:1052080042F480721A6104BF214A1A63A26E002315
:1052180099426FF080404FF0FF359361506108BFAD
:105228001023556050611B48906143F470139169D5
:1052380043F4605343F008030B439361936843F0CE
:1052480001039360D4F844361B689847124B134AFD
:10525800DA6040F24323ADF8043000238DF80630BD
:1052680001A801231CE000BF00E100E00038024073
:10527800000002406000002008040100003C0140DA
:10528800A81A002040004001101B0020410D030017
:10529800030181000008008000ED00E00005FA0528
:1052A8008DF80730FCF76EFE05B0F0BD05EB830204
:1052B800013392691768002FACBF00274FF0904761
:1052C8001760106196608DE705EB83020133526D1C
:1052D8001668002EACBF00264FF09046166011618C
:1052E800906084E7204A936803F00C03042B10B500
:1052F80020D0082B20D01D4B1B4C0360A3681C4AF0
:10530800C3F30313134493F8C4100368CB404360FA
:10531800A168C1F38221114491F8C41023FA01F164
:105328008160A168C1F342310A4492F8C420D34095
:10533800C36010BD0F4BDFE75468516852686302C1
:10534800C2F3881201F03F014CBF0A4B074BB3FB75
:10535800F1F35343044A5268C2F301420132520046
:10536800B3FBF2F3C8E700BF003802400024F400A2
:105378000000002000127A002DE9F04FA84CA36E1F
:105388005D6915F001058BB040F06A825F699B6921
:105398001F4000F06582C7F3074B1BF0080F0BD0C6
:1053A800E36EDFF888829E69DB691E40360C04F1E3
:1053B8005C09002E40F0E5801BF0040F0FD0E26E70
:1053C800984E9369D26903EA02091FFA89F94FF0E6
:1053D8000008A6F58E7AB9F1000F40F02F81FDB2D2
:1053E800AA0741BF8E4B9B6E02225A61002F18DA22
:1053F80094F866303BB1D4F8682113686FF3410321
:105408006FF300031360E26E8748536823F00103CB
:105418005360864BD3F8EC309847A36E4FF00042A8
:105428005A61C7F307273B072DD500238DF817309E
:1054380094F86E318DF817307C4B7B48D3F8E83000
:105448009847A26EE36E4FF400619B68516194F82F
:105458006620C2B1DE0716D594F87131012B12D13E
:105468009DF81730032B0ED1D4F868311A6842F032
:1054780001021A601A6842F003021A606C4A136942
:1054880043F006031361280707D5684B6648D3F82D
:10549800E0309847A36E08225A61E90613D5A06E3A
:1054A800836923F010038361036AC3F3434102292C
:1054B80003F00F0200F06B81062900F08F818369E9
:1054C80043F010038361FA0629D5E26E536823F08E
:1054D800010353600020FAF79FFE94F85D00554AD7
:1054E8000023FF218342C0F08781E36E4E484FF0CE
:1054F800FF329A614FF00112DA610B225A611A6188
:105508001A686FF30A121A60FBF7EEF8A36E4648A2
:105518004FF480525A61454BD3F8E4309847BB06A4
:1055280040F18681E36E606F99680268C1F34101BA
:10553800022906BF032161F30A026FF30A0202601F
:105548005A6842F480725A6006A8FFF7CBFEA16E33
:10555800E06ECB68079A6FF38D23CB608568364879
:10556800C5F34105284490F84F01032840F04B81CA
:10557800002284F85E204FF40072A4F8602009220B
:1055880050E1F00749D5E9B204EB8103D3F8B03014
:105598009868E36E5B6900EA030A1AF0010F26D0E7
:1055A80009EB850394F85F005B6D4FF0010A5045E5
:1055B800C3F808A00BD11869282303FB0593C0F38F
:1055C800120CD3F87C03A0EB0C00C3F88C03D8F8BA
:1055D800D4304846984794F85F30012B07D135B945
:1055E80094F86D31052B02D14846FBF77DF81AF087
:1055F800020F1FBF09EB85034FF0020A5B6DC3F86A
:1056080008A01AF0080F08D0D8F8DC3006489847E8
:1056180009EB850308225B6D9A6001357608C8E6B8
:10562800A81A0020201C0020041B002000000020D5
:1056380000ED00E0181B00205009030819F0010FC5
:105648006DD0E26E5FFA88F31069556B04EB830145
:10565800DD40496FED018968EDB205430D40E9076A
:1056680022D5516B0193012000FA08F021EA0001CC
:1056780051630AEB8802012592699A4895609A4A13
:105688001946D2F8D820904794F85F20019BAA4287
:105698000AD1B8F1000F07D194F86D21042A03D17B
:1056A8005046FBF721F8019B280741BF0AEB880207
:1056B800082592699560E90641BF0AEB8802102522
:1056C800926995606A0641BF0AEB88024025926993
:1056D8009560A80741BF0AEB880202259269956088
:1056E80029061CD5D6E90521521AB168D4F86CE010
:1056F8008A4228BF0A460AEB88013233D1F818C01B
:10570800033204EB8303DCF8185003939208ADB21C
:10571800954204D9D6E90503984200D928B908F179
:1057280001084FEA5909283655E6C01AB368984265
:1057380028BF184694F85F30C21C9208ABB1F168D4
:10574800B369DCF818500144F160716903448B4275
:10575800B361DCD13178DEF83430012000FA01F190
:1057680023EA0103CEF83430D1E7F168019181B220
:105778000331891002910399496E0D4602999942A5
:10578800DDD0019951F8231029600133F6E747F677
:10579800F07119423FF493AE282101FB0241C3F393
:1057A8000A13DD1CD4F82CC1D1F8DC63AD1000213C
:1057B8008D420DD1282101FB0242D2F8DC13194495
:1057C800C2F8DC13D2F8E8130B44C2F8E83376E6E3
:1057D800DCF800E046F821E00131E9E7D4F82C11C3
:1057E8000D68C4F828560968C4F82C16282101FB4E
:1057F8000242C3F30A13E5E752F8045FA960D56BC8
:105808000133A9606EE6012084F85E004020A4F808
:105818006000A0F56400A0F56240344D1044A84231
:1058280021D80E2262F38D23CB604FF400534B61D5
:105838001BF0100F08D02C4B2A48D3F8F0309847AB
:10584800A36E4FF480125A611BF0200F08D0264B2C
:105858002448D3F8F4309847A36E4FF400125A61E5
:105868000BB0BDE8F08FA2F57400214DA0F51050E3
:10587800A84201D80D22D5E71E481F4D1044A84262
:1058880001D80C22CEE7A2F18C701C4DA0F5434044
:10589800A84201D80B22C5E719481A4D1044A8425E
:1058A80001D80A22BEE71848184D1044A8427FF6CE
:1058B80066AEA2F1B770164DA0F55850A84201D8AF
:1058C8000822AFE71348144D1044A84201D8072214
:1058D800A8E712481044124A904294BF06220522B3
:1058E800A0E700BF041B0020000000203F420F007B
:1058F800DFC810002013FBFE1FD61300FF69180035
:1059080000D3CEFE3F771B00C05BB3FEBF912100E2
:105918003FAC2700C01D6AFE3FE13300803C36FEE5
:10592800DF9C4100094BD3F8C02B12060BD4D3F8E7
:10593800C40B10F0800007D0D3F8D03B042B34BF41
:105948000020022070470120704700BF983C0020CB
:10595800064B93F8DD3B3BB9054B93F80531002B1B
:1059680014BF02200020704701207047983C002097
:10597800000000200B4A92F8DC3B5BB10A4BD2F8DE
:10598800082CD3F818379B1AB3F5FA7F34BF0120D7
:1059980003207047054B93F80431002B14BF0220F5
:1059A80000207047983C0020A02B00200000002019
:1059B800064B93F8DA3B3BB9054B93F80231002BC1
:1059C80014BF02200020704701207047983C002037
:1059D80000000020064B93F8D93B3BB9054B93F8E0
:1059E8000131002B14BF02200020704701207047AE
:1059F800983C002000000020074BD3F8542C42B9F3
:105A0800D3F8582C2AB9D3F85C0C003018BF012001
:105A180070470120704700BF983C002008B5094B2B
:105A280093F8DB3B33B1FFF7E7FF002814BF0120F1
:105A3800032008BD044B93F80331002B14BF022048
:105A48000020F6E7983C002000000020F8B5FFF79A
:105A5800C1FF0746FFF7ACFF0646FFF7DFFF054625
:105A6800FFF788FF0446FFF773FF023FFFB20146C6
:105A7800FFF758FF012F16D9023EF6B2012E12D9B0
:105A8800023DEDB2012D0ED9023CE4B2012C0AD937
:105A98000239C9B2012906D90238C0B2012894BF17
:105AA80000200120F8BD0020FCE7D1ED017AD2EDFD
:105AB800046AD1ED005A92ED017A91ED026A92EDF5
:105AC800025A67EEA66AE5EE876A92ED077AE6EE75
