:020000040800F2
:10000000F0FF00103DDE04086DCE03088571010885
:10001000D9DE0408D9DE0408D9DE04080000000097
:1000200000000000000000000000000079CE03087E
:1000300075CE03080000000071CE0308253F0108BB
:10004000D9DE0408D9DE0408D9DE0408D9DE0408A4
:10005000D9DE0408D9DE04080972010835730108E5
:10006000F9720108BD72010881720108E5D3000828
:10007000D5D30008C5D30008B5D30008A1D3000824
:100080008DD3000879D30008D9DE0408D9DE04082E
:10009000D9DE0408D9DE0408D9DE04084572010857
:1000A000E521010871270108D9DE0408312801087B
:1000B000B1260108F12501082525010895FC000855
:1000C0009DFC000885FC00088DFC0008D9DE0408B2
:1000D000D9DE0408C94101082D41010891400108F9
:1000E000CD710108D9DE040851140408D9DE0408D2
:1000F000B5220108D9DE04088523010865D300086C
:10010000D9DE0408D9DE040855240108D9DE040824
:10011000F53F0108593F0108DDD80108C9D8010899
:1001200051D300083DD3000829D3000815D3000897
:1001300001D30008D9DE0408D9DE0408D9DE04089A
:10014000D9DE0408D9DE0408D9DE040895030408C2
:10015000EDD20008D9D20008C5D20008D9DE0408C3
:1001600075FC00087DFC0008D9DE0408D9DE04080F
:10017000D9DE0408D9DE0408D9DE0408D9DE040873
:08018000D9DE0408D9DE0408F1
:08018800E4D9040001000000AD
:10019000100201009831002094310020000000007E
:1001A000080700081A023C00C05100203455002006
:1001B000000000000D92000827000400BC51002040
:1001C00070550020000000000A0700080702020026
:1001D000C45C0020085D0020000000000E0700083D
:1001E00002000C009C5C00200C5D00200000000060
:1001F0000000000006020C00905C0020185D00204A
:10020000000000003993000808120900145C002067
:10021000245D0020000000006D840008F701060046
:100220000E5C0020305D0020000000001007000878
:100230000A020A007C5B0020385D002000000000FC
:1002400016070008030001008C560020445D0020C2
:10025000000000000000000014000300B46500204E
:10026000C8670020000000002007000810100200EE
:1002700008670020CC670020000000002407000869
:1002800028101000F8660020D06700200000000051
:100290004D1E020823001000C4620020E067002009
:1002A00000000000651E0208F8210600F06600202C
:1002B000F067002000000000260700080E40200123
:1002C000EC5F0020F867002000000000196B0408B4
:1002D000130004008C630020186900200000000057
:1002E0002C070008010104006A5F00201C6900203F
:1002F000000000000000000000010400625F002018
:1003000020690020000000003007000802010300FF
:100310005D5F00202469002000000000ED840108DA
:1003200009020100FC65002028690020000000008F
:10033000340700080C106C00386100202C69002084
:10034000000000007184010801020500725F0020B6
:100350009869002000000000FD140208000205005A
:1003600044630020A069002000000000000000009D
:100370001B020800D88300205084002000000000E9
:10038000C584000801200800A882002058840020AD
:1003900000000000360700081900050058830020FF
:1003A00060840020000000003E07000837001E00A7
:1003B000308300206884002000000000440700080B
:1003C0001E000500386E0020888400200000000018
:1003D000620700081B00F400446B0020908400209A
:1003E000000000003DA902080E0202008C750020EA
:1003F0008485002000000000680700082F0011001D
:10040000F083002088850020000000006A070008B3
:1004100005100600308400209C85002000000000AC
:100420007C070008F5317000BC6A0020A48500201C
:10043000000000000DD0020826000E0024860020D7
:100440001486002000000000ED9002080B20100030
:100450002E6B002058860020000000008207000854
:100460001F201C009C6A00206886002000000000FD
:1004700092070008050204009C700020848600207A
:1004800000000000AE070008031233005E8C00205D
:100490005E90002000000000B407000825009600D0
:1004A000C88B0020B88F0020000000000000000072
:1004B000F6210C00EC8D0020488F00200000000089
:1004C000E807000815007000F88D0020D88E002085
:1004D00000000000000000002A006000008A0020E8
:1004E000788E002000000000F16A04082C00100043
:1004F000688E00204E90002000000000151C0308AC
:100500002B002400FC8C00209190002000000000B3
:10051000E51B030829106400988C0020548F0020EC
:100520000000000000000000160008006891002094
:100530007091002000000000F407000803010A0089
:10054000E8A300207CA4002000000000FC070008B5
:1005500013020300A899002088A4002000000000D6
:1005600006080008040080009CDC002054DD002008
:1005700000000000000000000D00440018DC002016
:10058000D4DD002000000000A57D0308FD0124004B
:1005900048D3002018DE002000000000F1FE000813
:1005A00018202C0018D300203CDE002000000000A2
:1005B000D59200080610180070C6002068DE0020E2
:1005C00000000000756B0408FB0101006CC60020F0
:1005D00080DE002000000000A9920008FC01090054
:1005E00038C5002084DE002000000000B992000819
:1005F0000A401E0010C5002090DE00200000000010
:100600000A0800083400100040C40020B0DE0020BA
:1006100000000000496B04081102080018C4002003
:10062000C0DE0020000000002808000812120400AC
:1006300010C40020C8DE00200000000030080008C0
:1006400012200D0000C40020CCDE002000000000BD
:1006500034080008FF010800C4BD0020DCDE0020D3
:1006600000000000D5CF0008F901040058BD0020AB
:10067000E4DE00200000000069FF0008180202000C
:1006800060B70020E8DE002000000000000000004D
:1006900017020B0054B70020ECDE00200000000021
:1006A00029840008FA01020030B70020F8DE00209B
:1006B00000000000C585000802020300E0B400202D
:1006C000FCDE002000000000000000000C0203001F
:1006D0009CB4002000DF0020000000001984000806
:1006E000FE01090008B7002004DF00200000000020
:1006F000A58400081A000E0030F3002058F40020F2
:0807000000000000420800089F
:10070800000020030000013C3D0100000000000043
:100718004A01B400D60100000300000000050401EE
:10072800F401190048040430B30000001300E80382
:100738006400040A000100002801000020003200C3
:10074800C800D0079600140032002800B004400604
:100758000005500014000F00080000000100000010
:100768000000000000000000000000000000000081
:10077800000000002000020100002B21231E64015C
:100788000100000001000A0129000000000000012A
:100798000000000500000102030000000000000046
:1007A8000000000000000000000000000000000041
:1007B8000000000000000000000000000000000031
:1007C8000000000000000000000000000000000021
:1007D8000000000000000000000000000000010010
:1007E800000000000100000002020000C40900002F
:1007F80019012828040101006C16000000000000FF
:100808000000003001000000000064002C0100001E
:100818000000000000000000020000019E077D00AB
:100828000000000001010101FFFFFFFF00000001BF
:100838000000054D4B46340000007E05EA05B4056E
:080848003200E803D0070000B4
:100850001A0300000000000000000000000000007B
:100860000000000000000000000000000403090474
:100870001201000200000040830420570002010220
:1008800003010000E1990008218500084199000852
:10089000058500089D99000851990008F584000815
:1008A000DC0000204DB800080D850008098500080F
:1008B0000185000849940008FD840008F9840008B7
:1008C00048FA0408CDFE03080DC50308B5FD03086A
:1008D000000000000000000005F303082DF30308EA
:1008E0000000000000000000000000006DC30308CD
:1008F000B9850008AD8500083D9A0008599A00089E
:1009000065850008219A0008059A0008010000008A
:10091000500100000700000002000000000000007D
:10092000000000000102030406070809008002021B
:100930001F00000053544D202020202050726F646F
:10094000757420202020202020202020302E3031BF
:10095000685E0C00010102FFFF00000001000000C2
:100960005D7B010800000000000000000000803FE7
:10097000000000000000000000000000FF00000078
:1009800000000000F85C00200800000000000000EB
:10099000E85C002008000000EC07050805080400DA
:1009A000000000003C110508483B05082811050817
:1009B00000000000000000001808050805080A00F3
:1009C000000000003C110508483B05080C10050814
:1009D0000000000000000000E00101010100000033
:1009E000ED1602080000000004030020CC5E05089C
:1009F00000000000000000000000000000000000F7
:100A00003C61050800000000000000008503002094
:100A100004000000205D05080D0000009936020862
:100A2000E01C002000000000A45605080D00000096
:100A3000C1360208D41C0020000000001C58050824
:100A40000800000000000000C81C00200400000096
:100A5000105705080D000000A1170208BC1C00205B
:100A600000000000CC57050803000000053902080B
:100A7000B01C002000000000DC5E05080300000040
:100A800005390208A41C002000000000F0520508EF
:100A90000100000000000000000000000000000055
:100AA000000000000E000000000000000000000038
:100AB00000000000CC5E05080000000000000000FF
:100AC00000000000000000003C610508000000007C
:100AD000000000008503002004000000CC5C050835
:100AE00003000000B9220208981C00200800000042
:100AF000105705080D000000A1170208BC1C0020BB
:100B000000000000CC57050803000000053902086A
:100B1000B01C002000000000DC5E0508030000009F
:100B200005390208A41C002000000000F05205084E
:100B300001000000000000000000000000000000B4
:100B4000000000000E000000000000000000000097
:100B500000000000E45E0508000000000000000046
:100B600000000000000000003C61050800000000DB
:100B7000000000008503002004000000D45C05088C
:100B80000300000005390208EC1C002000000000F2
:100B9000F052050801000000000000000000000005
:100BA00000000000000000000E0000000000000037
:100BB000000000000000000020700020702D720076
:100BC000000101010008000000000000000000001A
:100BD00054180020012D202D2D202D2D2D2D202DC0
:100BE0002D2D0000000000000000000000000000AB
:100BF00000000000FFFFFFFFFA00000001000000FE
:100C00000100000001000000C0520508C85205089C
:100C1000E85205080000000000000000000000008D
:100C200000000000874C0508040000006134020841
:100C30000000000000000000F05205080100000064
:100C400000000000000000000000000000000000A4
:100C50000E00000000000000000000000000000086
:100C60003CDD00200100C409000000003ADD002046
:100C70000100C4090000000038DD00200100C409A3
:100C80000000000036DD00200100C4090000000063
:100C900032DD00200100C4090000000034DD002026
:100CA0000100C4090000000030DD00200100C4097B
:100CB000000000002EDD00200100C409000000003B
:100CC000845F00200100C80001000000825F002056
:100CD0003200307532000000805F0020055A0500A8
:100CE0007D5F002000FF01007F5F00200100000009
:100CF000B80300207B5F0020020000007414050888
:100D00007C5F002000FF01007E5F002001000000EA
:100D1000B80300207A5F0020020000007414050868
:100D2000705F002080C1803E050000006E5F0020E3
:100D300080C1803E05000000685F002080C1803EC9
:100D400005000000665F002080C1803E05000000B5
:100D5000605F002000FF01005C5F00200A3201009C
:100D60005B5F002004000000EC0F05085A5F0020C4
:100D70000200000000100508000000000000000054
:100D8000C00300202CA400209CFF2C0100000000C8
:100D90008A0100200A0000000C100508505F0020A6
:100DA000E0150C17000000008C0100200800000076
:100DB000483B05088B010020050000003C11050898
:100DC000525F00200200000024100508B8610020D6
:100DD0000100FF7F01000000B76100200200000059
:100DE00030100508E15F00200300000040100508F6
:100DF000E05F00200300000040100508166100209D
:100E00000000F40101000000146100200000F40162
:100E100001000000126100200000F4010100000048
:100E2000106100200000F401010000000E610020AC
:100E30000000803E010000000C6100200000803EA8
:100E40000100000034610020E803D0070A00000020
:100E500032610020006401000A00000027610020C8
:100E60000064010026610020006401002E61002062
:100E7000006401000A0000002D61002000640100F0
:100E80000A0000002C610020006401000A0000003C
:100E900031610020006401000A0000003061002080
:100EA000006401000A0000002F61002000640100BE
:100EB0000A0000002B61002000FF01000A00000072
:100EC0002A61002000FF01000A00000029610020C3
:100ED00000FF01000A000000E85F00200000F401AC
:100EE00001000000E65F00200000F40101000000A6
:100EF000E45F00200000F40101000000E25F002038
:100F00000000F40101000000226100201400E80349
:100F10000100000020610020E80330750A00000095
:100F20001F61002000C801001E61002000C80100F0
:100F30001D61002000C801001C6100200064010048
:100F40000A0000001A6100200000D0070100000024
:100F5000AD61002000C80100AC61002000C80100A4
:100F6000AB61002000C80100AA61002000C8010098
:100F7000A961002000C80100A861002000C801008C
:100F8000A761002000C80100A661002000C8010080
:100F9000A561002000C801002053050800000000E2
:100FA00000000000000000000000000030530508B1
:100FB000090000000000000064040020040000009C
:100FC0003853050809000000000000005804002004
:100FD00004000000A45A05080900000000000000F9
:100FE0004C04002004000000884A050809000000A5
:100FF00000000000400400200400000040530508E9
:10100000090000000000000034040020040000007B
:1010100048530508090000000000000028040020D3
:101020000400000050530508090000000000000003
:101030001C040020040000005853050809000000AB
:10104000000000001004002004000000F052050819
:10105000010000000000000000000000000000008F
:10106000000000000E000000000000000000000072
:10107000000000008455050800000000000000008A
:101080000000000000000000249005080700000098
:1010900000000000880400200000000094550508AE
:1010A00008000000000000007C0400200000000098
:1010B000A055050808000000000000007004002092
:1010C00000000000F05205080100000000000000D0
:1010D0000000000000000000000000000E00000002
:1010E000000000000000000000000000A8550508F6
:1010F00000000000000000000000000000000000F0
:10110000B85505080D00000000000000C4040020D0
:1011100000000000C05505080D00000000000000A0
:10112000B804002000000000C855050807000000B2
:1011300000000000B004002000000000D0550508A9
:101140000D00000000000000A404002000000000CA
:10115000D85505080D00000000000000980400208C
:1011600000000000E0550508070000000000000036
:101170009004002000000000F0520508010000006B
:10118000000000000000000000000000000000005F
:101190000E00000000000000000000000000000041
:1011A000E8550508000000000000000000000000F5
:1011B00000000000249005080C0000000000000062
:1011C000865F002000000000FC5505080C000000B0
:1011D00000000000885F0020000000000C56050899
:1011E0000C00000000000000BE5F002000000000B6
:1011F0001C5605080C00000000000000B25F002033
:1012000000000000305605080C000000000000003F
:101210008A5F0020000000003C5605080C0000001A
:10122000000000008C5F002000000000445605080C
:101230000C000000000000008E5F00200000000095
:10124000585605080C00000000000000905F0020C8
:1012500000000000605605080C00000000000000BF
:10126000925F002000000000685605080C00000096
:1012700000000000D05F002000000000805605083C
:101280000C00000000000000945F0020000000003F
:101290008C5605080C00000000000000965F00203E
:1012A00000000000945605080C000000000000003B
:1012B000985F002000000000A05605080C00000008
:1012C000000000009A5F002000000000AC560508F6
:1012D0000C000000000000009C5F002000000000E7
:1012E000B85605080C000000000000009E5F0020BA
:1012F00000000000C45605080C00000000000000BB
:10130000A05F002000000000D05605080C0000007F
:1013100000000000A25F002000000000DC5605086D
:101320000C00000000000000B65F0020000000007C
:10133000E45605080C00000000000000B45F002027
:1013400000000000EC5605080C0000000000000042
:10135000C25F002000000000F85605080C000000E5
:1013600000000000C45F00200000000004570508D2
:101370000C00000000000000CA5F00200000000018
:10138000085405080C00000000000000A45F0020C5
:1013900000000000105705080C00000000000000CD
:1013A000AC5F002000000000185705080C0000008A
:1013B00000000000A65F0020000000002457050880
:1013C0000C00000000000000A85F002000000000EA
:1013D000305705080C00000000000000AA5F002044
:1013E00000000000385705080C0000000000000055
:1013F000AE5F002000000000445705080C0000000C
:1014000000000000B85F0020000000004C570508F5
:101410000C00000000000000B05F00200000000091
:10142000585705080C00000000000000C05F0020B5
:1014300000000000645705080C00000000000000D8
:10144000BA5F0020000000006C5705080C00000087
:1014500000000000BC5F0020000000007457050879
:101460000C00000000000000C65F0020000000002B
:101470007C5705080C00000000000000C85F002039
:1014800000000000F052050801000000000000000C
:101490000000000000000000000000000E0000003E
:1014A0000000000000000000000000008457050854
:1014B000000000000000000000000000000000002C
:1014C000905705080D000000000000001C050020DA
:1014D00000000000985705080D0000000000000003
:1014E0001005002000000000A057050807000000BC
:1014F000000000000805002000000000AC570508AF
:1015000007000000000000000005002000000000AF
:10151000B85705080900000000000000F40400208E
:1015200000000000C457050809000000000000008A
:10153000E804002000000000D05705080900000062
:1015400000000000DC04002000000000E057050857
:101550000900000000000000D0040020000000008E
:10156000F05205080100000000000000000000002B
:1015700000000000000000000E000000000000005D
:101580000000000000000000F45705080000000003
:1015900000000000000000000000000004580508E2
:1015A0000500000000000000DF5F002000000000D8
:1015B000F0520508010000000000000000000000DB
:1015C00000000000000000000E000000000000000D
:1015D00000000000000000000C580508000000009A
:1015E0000000000000000000000000003C61050851
:1015F0000000000000000000C424002004000000DF
:10160000185805080D000000C534020870050020B8
:1016100000000000205D05080D000000A51602086E
:101620006405002000000000A45605080D0000001D
:101630008916020858050020000000001C58050803
:1016400008000000000000004C050020040000001D
:10165000105705080D000000D115020840050020B4
:1016600000000000245805080900000000000000E8
:101670003405002004000000CC57050803000000DA
:10168000053902082805002000000000F052050876
:101690000100000000000000000000000000000049
:1016A000000000000E00000000000000000000002C
:1016B000000000002C580508000000000000000099
:1016C00000000000000000003C5805080D0000006C
:1016D00000000000880500200000000044580508B4
:1016E0000A00000000000000E96300200000000084
:1016F000505805080A00000000000000F1630020B7
:1017000000000000585805080A0000000000000012
:10171000F963002000000000605805080800000080
:10172000000000007C05002000000000685805084B
:1017300004000000253B020800000000000000003B
:10174000F052050801000000000000000000000049
:1017500000000000000000000E000000000000007B
:1017600000000000000000007458050800000000A0
:10177000000000000000000000000000885805087C
:101780000D00000000000000A00500200000000087
:1017900098580508040000003D37020800000000CA
:1017A00000000000A05805080D0000000000000027
:1017B0009405002000000000B45805080400000053
:1017C000193702080000000000000000F052050870
:1017D0000100000000000000000000000000000008
:1017E000000000000E0000000000000000000000EB
:1017F00000000000BC5805080000000000000000C8
:101800000000000000000000D0580508080000009B
:1018100000000000E805002000000000DC5805087A
:101820000800000000000000DC05002000000000AF
:10183000E85805080800000000000000D00500205E
:1018400000000000F4580508080000000000000037
:10185000C405002000000000005905080800000031
:1018600000000000B8050020000000000C59050829
:101870000800000000000000AC050020000000008F
:10188000F052050801000000000000000000000008
:1018900000000000000000000E000000000000003A
:1018A00000000000000000001859050800000000BA
:1018B000000000006B030020000000002459050810
:1018C0000B000000000000007C060020000000006B
:1018D000305905080B0000000000000070060020D1
:1018E000000000003C5905080B000000000000004B
:1018F0006406002000000000485905080B000000A5
:10190000000000005806002000000000545905089F
:101910000B000000000000004C060020000000004A
:10192000605905080B000000000000004006002080
:10193000000000006C5905080B00000000000000CA
:101940003406002000000000785905080B00000054
:10195000000000002806002000000000845905084F
:101960000B000000000000001C060020000000002A
:101970009059050807000000000000001406002030
:101980000000000098590508070000000000000052
:101990000C06002000000000A45905080B00000000
:1019A000000000000006002000000000B0590508FB
:1019B0000800000000000000F40500200000000006
:1019C000F0520508010000000000000000000000C7
:1019D00000000000000000000E00000000000000F9
:1019E0000000000000000000BC59050800000000D5
:1019F000000000000000000000000000D0590508B1
:101A00000800000000000000AC06002000000000FC
:101A1000DC5905080800000000000000A0060020B6
:101A200000000000E8590508080000000000000060
:101A30009406002000000000F4590508080000008A
:101A4000000000008806002000000000F052050899
:101A50000100000000000000000000000000000085
:101A6000000000000E000000000000000000000068
:101A700000000000FC590508000000000000000004
:101A800068030020000000000C5A05080800000050
:101A900000000000F406002000000000185A0508AD
:101AA0000B00000000000000E8060020000000001D
:101AB000245A05080700000000000000E00600208E
:101AC00000000000305A0508070000000000000078
:101AD000D8060020000000003C5A0508070000005E
:101AE00000000000D006002000000000485A050851
:101AF0000800000000000000C406002000000000F4
:101B0000505A05080800000000000000B806002038
:101B100000000000F0520508010000000000000075
:101B20000000000000000000000000000E000000A7
:101B3000000000000000000000000000585A0508E6
:101B4000000000000000000068030020000000000A
:101B5000645A05080700000000000000400700204C
:101B6000000000006C5A050807000000000000009B
:101B70003807002000000000745A05080700000024
:101B8000000000003007002000000000504A050857
:101B900007000000000000002807002000000000EF
:101BA000584A050807000000000000002007002038
:101BB00000000000604A0508070000000000000067
:101BC00018070020000000007C5A050807000000EC
:101BD000000000001007002000000000845A0508E3
:101BE00007000000000000000807002000000000BF
:101BF0008C5A0508070000000000000000070020C4
:101C000000000000F0520508010000000000000084
:101C10000000000000000000000000000E000000B6
:101C200000000000000000000000000000000000B4
:101C3000151A020848070020DD5F00202A00000076
:101C400050100508DC5F002000C80100DA5F0020AA
:101C5000E803D007010000004D4154454B463430A5
:101C600035000000795F002000030100785F00204C
:101C7000000301005D19020835190208240800203C
:101C8000F1180208A51802089C0800209D190208F6
:101C9000851902085009002011180208C51702080A
:101CA0005C0C00202B1A0208E9360208380D0020CF
:101CB0001116020800000000880D0020013B0208F8
:101CC000AD1C0208640E0020511A0208000000003A
:101CD000180F0020F91A0208C51A0208A40F0020E4
:101CE000891B0208D51B020858100020246100201F
:101CF00001060100911A0208651A020898110020D5
:101D00002D1B02086137020824120020051C02085E
:101D1000BD370208EC120020186100200103010009
:101D2000945A0508000000000000000000000000B8
:101D300000000000A05A0508080000000000000094
:101D4000FC13002000000000A85A0508070000004E
:101D500000000000F413002000000000B85A05083D
:101D60000D00000000000000E8130020000000004B
:101D7000C45A05080300000005390208DC130020DE
:101D800000000000F0520508010000000000000003
:101D90000000000000000000000000000E00000035
:101DA000000000000000000000000000CC5A050800
:101DB0000000000000000000000000000000000023
:101DC000DC5A05080A00000000000000E45A05087B
:101DD00000000000EC5A05080A00000000000000A6
:101DE0007949050800000000F45A05080A000000BF
:101DF00000000000AE61002000000000FC5A050851
:101E00000A0000000000000008140020000000008C
:101E1000F052050801000000000000000000000072
:101E200000000000000000000E00000000000000A4
:101E30000000000000000000045B05080000000036
:101E4000000000000000000000000000105B05081A
:101E500003000000053902083C14002000000000C7
:101E60001C5B05080300000005390208301400203F
:101E700000000000245B050803000000053902088B
:101E800024140020000000002C5B05080500000061
:101E900000000000775F002000000000345B0508B0
:101EA00007000000000000001C14002000000000DB
:101EB000405B05080700000000000000141400202B
:101EC00000000000F05205080100000000000000C2
:101ED0000000000000000000000000000E000000F4
:101EE0000000000000000000000000004C5B05083E
:101EF00000000000000000000000000000000000E2
:101F0000605B050803000000053902086C1400201E
:101F1000000000006C5B05080300000005390208A2
:101F20009001002000000000745B05080300000021
:101F30000539020860140020000000007C5B0508E1
:101F400003000000053902085414002000000000BE
:101F50001057050803000000053902084814002046
:101F600000000000F0520508010000000000000021
:101F70000000000000000000000000000E00000053
:101F8000000000000000000000000000885B050861
:101F90000000000000000000000000000000000041
:101FA000945B0508070000000D380208C8140020E3
:101FB000000000003457050803000000053902083E
:101FC000BC14002000000000A05B05080300000016
:101FD00005390208B014002000000000A85B0508C5
:101FE0000300000005390208A414002000000000CE
:101FF000B05B050807000000F13702089C140020C0
:1020000000000000E449050803000000053902084B
:102010009014002000000000BC5B050803000000D5
:10202000053902088414002000000000C85B050880
:1020300003000000053902087814002000000000A9
:10204000F052050801000000000000000000000040
:1020500000000000000000000E0000000000000072
:102060000000000000000000E5190208B519020890
:10207000D0140020791C0208000000005C1500202C
:10208000811802085D180208E81500200000000011
:10209000000000009C160020511C0208293802088C
:1020A0003C170020D45B0508000000000000000081
:1020B0000000000000000000E05B050803000000D5
:1020C000053902084818002000000000E85B0508F8
:1020D00003000000053902083C1800200000000041
:1020E000F45B0508030000000539020830180020E1
:1020F00000000000F85B0508030000000539020835
:102100002418002000000000045C05080300000003
:102110000539020818180020000000000C5C0508B2
:1021200002000000B93B02080000000000000000AF
:10213000145C050802000000B93B02080100000021
:1021400000000000205C050802000000B93B020806
:102150000200000000000000000000000E0000006F
:10216000000000000000000000000000565F00209A
:1021700088136F1701000000585F002088136F1745
:10218000000000002C5C05080000000000000000BA
:1021900000000000000000003C5C05080800000092
:1021A000000000002819002004000000485C050819
:1021B00008000000000000001C19002000000000C2
:1021C000CC57050804000000ED34020800000000B0
:1021D00000000000F05205080100000000000000AF
:1021E0000000000000000000000000000E000000E1
:1021F000000000000000000000000000545F00200C
:1022000088136F17010000006AA4002088136F175D
:1022100000000000551702080000000034190020DB
:102220008963002001000000FC1005086CA4002058
:10223000010000000811050862A40020020000004F
:10224000101105087EA20020000000000000000020
:102250007CA2002000000000000000007AA2002004
:10226000000000000000000078A200200000000034
:102270000000000076A20020000000000000000026
:1022800074A200200000000000000000FC240020D8
:102290000000000000000000535F0020020000006A
:1022A0001C110508845C0508000000000000000007
:1022B00000000000000000003C5C05080800000071
:1022C00000000000B819002004000000485C050868
:1022D0000800000000000000AC1900200000000011
:1022E000CC57050804000000251702080000000074
:1022F00000000000F052050801000000000000008E
:102300000000000000000000000000000E000000BF
:10231000000000000000000000000000945C0508C0
:1023200000000000000000000000000000000000AD
:10233000A45C05080D0000003D360208E8190020E5
:1023400004000000B05C05080D0000007D170208C5
:10235000DC19002004000000BC5C05080D00000032
:1023600001360208D019002000000000C85C0508F2
:1023700003000000D9220208C41900200800000050
:10238000D45C05080300000005390208EC1C00209D
:1023900000000000F05205080100000000000000ED
:1023A0000000000000000000000000000E0000001F
:1023B000000000000000000000000000E8520508D6
:1023C000000000000000000000000000000000000D
:1023D000874C0508040000000535020800000000D5
:1023E00000000000F052050801000000000000009D
:1023F0000000000000000000000000000E000000CF
:10240000000000000000000000000000285D05083A
:1024100000000000000000000000000000000000BC
:102420008C7605080D00000000000000481A00200E
:1024300004000000385D05080800000000000000EE
:102440003C1A002004000000445D0508080000005C
:1024500000000000301A0020040000004C5D050858
:102460000800000000000000241A00200400000002
:10247000545D05080800000000000000181A002044
:10248000040000005C5D050808000000000000007A
:102490000C1A002004000000645D0508080000001C
:1024A00000000000001A0020040000006C5D050818
:1024B0000800000000000000F419002004000000E3
:1024C000F0520508010000000000000000000000BC
:1024D00000000000000000000E00000000000000EE
:1024E00000000000000000003D170208000000008E
:1024F000541A00200000000000000000CC1A002048
:1025000000000000000000006C1B002068A40020F8
:10251000040000002811050866A40020E0150C172F
:102520000000000065A4002008000000483B0508EA
:1025300064A40020050000003C1105080000000014
:1025400000000000BC1B002001000000000001FF93
:10255000FF0100000000803FFF1FFF1F34860020A6
:1025600000000000A0220020040000001063050805
:10257000B86205080000000001850108A08601007E
:102580000400000000000000000000000000000047
:10259000000000000000000000000000000000003B
:1025A00010630508186305080000000045110108C4
:1025B000E80300000400000000000000000000002C
:1025C000000000000000000000000000000000000B
:1025D00000000000345705082063050800000000D3
:1025E000298C01087D0000000600000000000000AA
:1025F00000000000000000000000000000000000DB
:102600000000000000000000286305080000000032
:10261000000000001D360108E80300000300000070
:1026200000000000000000000000000000000000AA
:102630000000000000000000000000002C630508FE
:102640000000000000000000356E040810270000A4
:102650000300000000000000000000000000000077
:10266000000000000000000000000000000000006A
:10267000085F050800000000D9180308BD02010822
:102680005F76000005000000000000000000000070
:10269000000000000000000000000000000000003A
:1026A000000000001092050800000000000000007B
:1026B000C97301081027000001000000000000009D
:1026C000000000000000000000000000000000000A
:1026D0000000000000000000386305080000000052
:1026E0000000000095FD0008E80300000500000060
:1026F00000000000000000000000000000000000DA
:102700000000000000000000000000004463050815
:10271000000000000000000059020208204E0000E6
:1027200003000000000000000000000000000000A6
:102730000000000000000000000000000000000099
:102740005463050800000000000000004500020876
:10275000204E000003000000000000000000000008
:102760000000000000000000000000000000000069
:102770000000000064630508000000000000000085
:10278000D50E0108400D030003000000000000000A
:102790000000000000000000000000000000000039
:1027A0000000000000000000746305080000000045
:1027B00000000000518603081027000001000000FF
:1027C0000000000000000000000000000000000009
:1027D000000000000000000000000000045F050889
:1027E0000000000000000000A1DB0208102700002C
:1027F00003000000000000000000000000000000D6
:1028000000000000000000000000000000000000C8
:102810007C630508000000000000000049890208F0
:10282000A086010001000000000000000000000080
:102830000000000000000000000000000000000098
:102840000000000084630508000000000000000094
:10285000E901010850C30000010000000000000071
:102860000000000000000000000000000000000068
:1028700000000000000000000854050800000000EF
:102880000000000079FF0008A861000001000000BE
:102890000000000000000000000000000000000038
:1028A0000000000000000000000000008C6305082C
:1028B00000000000000000009D570208A0860100F3
:1028C0000100000000000000000000000000000007
:1028D00000000000000000000000000000000000F8
:1028E000986305080000000000000000ED420108A8
:1028F000A00F000001000000000000000000000028
:1029000000000000000000000000000000000000C7
:1029100000000000A46305080000000000000000A3
:1029200041A502081027000001000000000000007F
:102930000000000000000000000000000000000097
:102940000000000000000000F45B0508000000002B
:10295000000000002DFA02081A41000001000000EA
:102960000000000000000000000000000000000067
:10297000000000000000000000000000C85305082F
:102980000000000000000000A18D020810270000D8
:102990000100000000000000000000000000000036
:1029A0000000000000000000000000000000000027
:1029B000CC6205080000000000000000DD5B02089A
:1029C0001A410000010000000000000000000000AB
:1029D00000000000000000000000000000000000F7
:1029E00000000000B06305080000000000000000C7
:1029F00079B40208400D0300000000000000000050
:102A000000000000000000000000000000000000C6
:102A10000000000000000000B8630508000000008E
:102A200000000000637D0308400D0300000000006B
:102A30000000000000000000000000000000000096
:102A4000000000000000000000000000C063050856
:102A5000000000000000000039E9020850C3000037
:102A60000300000000000000000000000000000063
:102A70000000000000000000000000000000000056
:102A8000CC6305080000000000000000B9FF010849
:102A900040420F00000000000000000000000000A5
:102AA0000000000000000000000000000000000026
:102AB00000000000D86305080000000000000000CE
:102AC000857E030850C300000000000000000000E5
:102AD00000000000000000000000000000000000F6
:102AE000000000000000000001000000FFFFFFFFE9
:102AF000000200051002700BD6010000050E03084D
:102B0000000000000000000001FFFF00FFFFFFFFCA
:102B100085C9030851C5030879F7030800000000C0
:102B2000BDC303082DFF030839C90308B1F4030826
:102B3000000000000000000079C3030839C2030848
:102B40002DC20308FDEB030819EC0308E1EB0308B1
:102B5000C5EB0308A9EB03083DC903082DC503080D
:102B6000B9F603080000000091C30308B5F4030898
:102B70000DC9030811F40308000000000000000064
:102B800085C303080403090412010002EF02014097
:102B90008304563200020102030100001201000208
:102BA00002020040830440570002010203010000BA
:102BB00009022000010104C03209040000020806D5
:102BC0005005070581024000000705010240000092
:102BD00009026400030100C032090400000103007F
:102BE00000000921110100012226000705830308C6
:102BF000000A080B0102020201000904010001029F
:102C00000201000524001001052401000204240231
:102C1000020524060102070582030800FF090402D9
:102C200000020A00000007050102400000070581BC
:102C30000240000009024300020100C03209040002
:102C40000001020201000524001001052401000119
:102C5000042402020524060001070582030800FF80
:102C600009040100020A00000007050102400000FB
:102C70000705810240000000FF00000000FFFF0088
:102C800000000000AA55050100000000050109052B
:102C9000A101A100050109300931093209330935C3
:102CA0000934094009381581257F75089508810286
:102CB000C0C0000009022200010100E03209040046
:102CC0000001030102000921110100012226000771
:102CD00005830308000A000000000000010203044D
:102CE000010203040607080959F5030821FC03083B
:102CF0009DF70308F9C303081DC6030809C40308A8
:102D000025C40308D1C30308C1C3030800000000A1
:102D1000000000002D202D2D202D2D2D2D202D2DBE
:102D20002D2D000000000000000000000000000049
:102D3000000000AA550B010000AA5507010000AAD7
:102D4000550902000000000001000000C012AA5551
:102D500003009F000800000029C2030825C20308E1
:102D600021C2030815C2030811C203081DC20308CB
:102D700019C2030800600240106002400000000019
:102D800000000000000B0000000000000000000038
:102D900000000000006002402860024001000000C6
:102DA00000000000060C0000000000000000000011
:102DB000000000000060024040600240020000008D
:102DC00000000000100D00000000000000000000E6
:102DD0000000000000600240586002400300000054
:102DE00000000000160E00000000000000000000BF
:102DF000000000000060024070600240040000001B
:102E000000000000200F0000000000000000000093
:102E100000000000006002408860024005000000E1
:102E2000000000002610000000000000000000006C
:102E30000000000000600240A060024006000000A8
:102E40000000000030110000000000000000000041
:102E50000000000000600240B8600240070000006F
:102E600000000000362F00000000000000000000FD
:102E700000000000006402401064024000000000F6
:102E8000000000000038000000000000000000000A
:102E900000000000006402402864024001000000BD
:102EA00000000000063900000000000000000000E3
:102EB0000000000000640240406402400200000084
:102EC00000000000103A00000000000000000000B8
:102ED000000000000064024058640240030000004B
:102EE00000000000163B0000000000000000000091
:102EF0000000000000640240706402400400000012
:102F000000000000203C0000000000000000000065
:102F100000000000006402408864024005000000D8
:102F20000000000026440000000000000000000037
:102F30000000000000640240A0640240060000009F
:102F4000000000003045000000000000000000000C
:102F50000000000000640240B86402400700000066
:102F600000000000364600000000000000000000E5
:102F700000000000010000000000803F0000000091
:102F800000000000000000000000803F0000000082
:102F90000000000000000000000000000000000031
:102FA0000000000000000000000000000000000021
:102FB000010000000000803F000000000000000051
:102FC000000000000000803F7C270020000000007F
:102FD00000000000000000000000000000000000F1
:102FE00000000000000000000000000000000000E1
:102FF00000000000000000000000000000000000D1
:1030000000000000000000000000000000000000C0
:1030100000000000000000000000000000000000B0
:10302000000000000000000000000000010000009F
:1080000090ED057A90ED004AD0ED066AD0ED014A78
:10801000D0ED047A90ED035AD0ED025AA4EE007A26
:10802000B0EE406AB0EE470AB0EE667AA4EE867A09
:1080300067EEC07AA5EE407AE5EE867A80ED057AA5
:10804000C0ED067A704700BFD0ED057A90ED013A99
:10805000D0ED003AD0ED064A90ED024A90ED077A55
:1080600090ED035A90ED086AD0ED045AC0ED067AFF
:10807000F0EE406A27EE830AC0ED056AA3EEA60A79
:1080800080ED087AA4EE240AA5EE470AA5EEC60AFA
:1080900080ED070A704700BFD0ED007A90ED017ABD
:1080A00030EE670AE7EE007AB0EE670AC0ED007ABC
:1080B000704700BF704700BF2DE9F04714461D46CA
:1080C00006464FF47A7200232046294645F0EAFC22
:1080D0004D4BDFF848814D4A4D4F034488FB031058
:1080E0001844D91782FB032CC1EB601088FB0028D1
:1080F00087FB03279C44474AC1EBEC2CC0EB001ED6
:1081000082FB0C29A3EB8E0E1F44434A86F806E03F
:10811000C1EB27474FEAEC7E08EB000ACEEBA90E35
:1081200082FB07824FEAE0780EEB4E0EC8EB6A182E
:10813000ACEBCE0CC8EB0818DFF8E4E086F804C01E
:10814000A0EB880070718EFB0303F817C0EBE212FE
:1081500040F2B55000FB1272C1EBE353B2F5896FE8
:108160004FEA83073CDA40F2DA239A4242DCB2F566
:10817000B77FB4BF4FF0000E4FF0010E4FEA4E092B
:10818000DFF8A08009EB0E0308EBC3031FFA8EFC97
:10819000D88A09EB0E0108EBC10116310B2301E06F
:1081A00031F8020D904218DD013BF9D1CE44012394
:1081B00038F83E00B37007F5FA670132121ABC4472
:1081C000F270A6F800C0204629464FF47A720023C8
:1081D00045F068FC3281BDE8F0870133DBB2E9E7A6
:1081E0004FF0030CE64640F29650DFF838804FF02F
:1081F0000609CEE74FF0020CDFF82880E64640F291
:1082000029404FF00409C4E780BC92C7C5B3A291CE
:1082100007452EC2ABAAAA2A73B06D168988888832
:10822000792D031128F8040830B403888278C478C3
:10823000154DA3F5FA6303F0030101EB4101013A87
:1082400002EB81029B0835F812500279611E40F260
:10825000B55404FB03132B4403EB430302EBC303AA
:108260004279847909490089C3EB031302EB830344
:108270002144C3EB031301EB83034FF47A72002113
:10828000C2FB030130BC704728F8040880436D38F6
:108290000028F0B403DA2D230B7040420131092885
:1082A00004464FF0010307DD03EB83035B00B0FBE3
:1082B000F3F2092AF8D883B10F48A0FB0326B4FBD8
:1082C000F3F2092A02F1570C02F1300709DD03FB32
:1082D0001244F30801F801CBEFD100230B70F0BC7E
:1082E000704703FB1244F30801F8017BE5D100233A
:1082F0000B70F0BC704700BFCDCCCCCC884270B4C2
:108300004FF0010442D301FB04F4B0FBF4F58D42BD
:10831000F9D2ECB142BB092D04FB150005F157065B
:1083200005F130020EDDB4FBF1F403F8016B7CB112
:10833000B0FBF4F5092D04FB150005F1570605F116
:108340003002F0DCB4FBF1F403F8012B002CEFD188
:1083500000221A7070BC704703F8016BB4FBF1F493
:10836000002CF5D0B0FBF4F5092D04FB150005F148
:10837000370605F13002EFDCB4FBF1F403F8012B12
:10838000002CEFD100221A7070BC70470546002AFD
:10839000EAD1C0E703685A1C02601970704700BF39
:1083A0002DE9F047089C2578002B804689460CBFB4
:1083B0004FF0200A4FF0300A661C25B3002A26DD54
:1083C000334601E0024698B113F8011B501E002904
:1083D000F8D1971E60B13D46013D51464046C84721
:1083E0006B1C002BF8DC257827EAE770013045B1DB
:1083F000041B29464046C847301916F8015B002D7A
:10840000F7D1BDE8F087002A03DC2846F9E7002011
:10841000EEE7571EDFE700BF01212A220223017089
:1084200042708370704700BFF0B400250E4E00F11B
:10843000FF3C2F46322165B103788B420BD00346B7
:108440000CEB050403E013F8012F8A4203D0A3428A
:10845000F9D1C155013701350B2D02D016F8011F96
:10846000E9E7F0BC704700BF88F804080C4AF0B494
:10847000002302F1080717261625152403EB4303F2
:10848000C118BA42C4544D708E7006D092F90430AF
:1084900054799579D6790432F0E7F0BC704700BF83
:1084A00094F80408012310B43421352421224470A7
:1084B0004171C27003720370037183705DF8044BE5
:1084C000704700BF04224FF47A7302704360704714
:1084D00030B41D6995420AD314460A4621448D42A0
:1084E000996938BF2A1B214430BC45F03DBD30BCE2
:1084F000704700BF00207047002070470120704780
:108500000120704700207047002070474FF4007032
:10851000024B10609B680B6000207047D0BD0020AC
:1085200003484FF40073806A0860002013607047AE
:108530005CBD0020013A30B4D2B28C1C04EB420482
:108540000025020F092AD3B203F130028ABF373364
:108550000A700B704D7002318C424FEA0010F0D15E
:1085600030BC70470B4A0C4B10681B681A22C018AD
:108570000A8001D10948704710B5094B09491C68A8
:108580000822FFF7D7FF204604220749FFF7D2FF52
:10859000024810BDE8F7FF1FECF7FF1F00000020A6
:1085A000EAF7FF1F020000201200002004230B80C6
:1085B000004870471C00002012230B8000487047C1
:1085C000200000203022032302704370704700BF58
:1085D00008307047704700BF816170476D4B2DE9CF
:1085E000F04F1C686C4BB3F80AE0B3F804809A892A
:1085F0004FEA0E2AB4EB0A044FEA1E6B4FF0000557
:1086000087B065EB0B05CDE900450746009C18894E
:10861000019EA0FB044500FB0655E00940EA4560C9
:108620004FEA08448C46E9114FEA184510EB04085C
:10863000D888009C41EB0509CDE90489A0FB0445DD
:10864000B3F8028000FB0655200A40EA05604FEAB5
:10865000C83429124FEA584510EB040841EB0509CC
:108660000099A2FB010102FB06114FEAD05A4AEA27
:10867000412A1AF5FA634FEAE15B4BF10004B3F5C6
:10868000FA6FCDE9023474F10003424E64DA052436
:10869000AAFB040104FB0B1100FB0BF40AFB0144D1
:1086A000DDE90423A0FB0A0121444D104FEA300408
:1086B000121B4FEA900463EB050344EA8174B8EBA4
:1086C0000408CDE90423DDE9023434484FEAA1056A
:1086D00069EB05094FF0FF31834274EB010326DAA1
:1086E00040F6AC501AEB00024FF000014BEB0103D7
:1086F00002FB03F1A2FB022303EB4103D400DD00E4
:10870000101B45EA527563EB0501DDE904452418A9
:108710004D41CDE904450B24A2FB040104FB0311E8
:1087200049104FEA3000B8EB000869EB0109DDE9B8
:1087300000325343009ADDE90201A2FB02AB0BEBCE
:10874000430B4FEADA7242EA4B02801A4FEAEB73AC
:1087500061EB0301CDE9020197B17168A1FB082328
:1087600001FB0933540D5D1544EAC324DDE90423FC
:10877000A21A65EB03031D46D30B43EA45433B6056
:10878000BCF1000F02D0029BCCF8003007B0BDE86E
:10879000F08F00BFE02700205867002024FAFFFF79
:1087A0002DE9F04FDFF8DCC1754CDCF80850228869
:1087B000B4F90AA0C2EB25135200C2EBE502B4F9EA
:1087C00002505B436A43B4F904501B135D43AD137D
:1087D00005EBE225B5F5FA324FEAE57B85B04BF1C2
:1087E000FF33CDE90023DDE900325343009AA56150
:1087F000A2FB0289CDE90201B4F908200199009891
:1088000009EB43095143D31700FB0311A2FB0023DB
:108810000B444FEAEA7B0AFB09F11F0308FB0B1329
:10882000AAFB080119444FEA102A4AEA016A160312
:108830004FEA212B47EA12571AEB0602E6884BEB68
:10884000070312F1000A43F5004BAAFB060106FBE1
:108850000B114A10CB1752EA030100F08E80B4F9D5
:108860001060009806FB09F1F71708FB0711A6FB3B
:1088700008673944B4F90E808B4601994FEAE879CC
:1088800008FB01F100FB0911A8FB00898944DCF811
:108890000C104FEA4947C1F5801C47EAD837B24669
:1088A0004FEA4846B4F90C801AEB060A66464BEBD1
:1088B000070BF7174FEAC806019600260096F9073E
:1088C000DDE900674FEACC7016EB0A0647EB0B07B1
:1088D00041EA5C01801B61EB070140F6354C89469B
:1088E000A0FB0C010CFB091145F0DCF8B4F91620D3
:1088F000B4F914A04E13470B47EAC14702FB06FC2C
:10890000D31707FB03CCA2FB07236344564307FBA3
:108910000366A2FB07233344560E46EAC3163218F9
:108920004FEA636747EB010380460AFB01F14FEA18
:10893000EA7B08FB0B17AAFB08013944C60C46EA80
:10894000413612EB06084FEAE147B4F9122043EB37
:1089500007094FEA182141EA096113010B44029A01
:108960000AB11B0A1360039B23B105EB8505803513
:108970002D121D6005B0BDE8F08F0023EFE700BFAA
:108980006C670020E0270020704770472DE9F04118
:10899000334B344E1A8A7489B6F91450B6F90480F0
:1089A000B6F90E70B6F920C05B69121B34895443C6
:1089B000E213B6F912401544E40294FBF5F4B6F95B
:1089C00002501444A4F57A6E0EFB0EF20EFB05F570
:1089D0000EFB08FEB6F90C80F4611213574302FB3C
:1089E00008F2121402EB6E32ED1205EBE7270232A9
:1089F000B6F90050B6F806E0921002F5004207EB17
:108A000085070EFB02F207FA0CF74FEAD23E023757
:108A10004CF25032A3EBA70742FA0CF37B4355BF4D
:108A20005B00B3FBFEF3B3FBFEF35B0078B11A12FD
:108A300002FB02F540F6DE326A430B4D12145D4331
:108A400002EB254202F6CF6203EB2213036021B151
:108A50000A235C43083424110C60BDE8F08100BF98
:108A6000E02700203467002043E3FFFF4FF400635A
:108A7000838270474FF4006383827047012380F83C
:108A8000543070474FF4006383827047F0B4037C26
:108A9000456902681F2B37D9203B20215468994033
:108AA0000C4223D010249C40D160D4605168D9403E
:108AB000CE074ED4EFF31183502282F31288EA6B73
:108AC0001168C90709D45468002C52D1D5E909614D
:108AD0008E4243D1012285F86020DBB283F31188F6
:108AE000037C02681F2B194614D9203B08215068CB
:108AF0009940084200D0D1600421506801FA03F384
:108B0000184223D1F0BC7047202416689C402642AE
:108B10000FD11946082310688B40184200D093608B
:108B20000423106803FA01F10842EBD09160F0BC15
:108B3000704710219940946091601168D940CC072A
:108B4000B8D5012101FA03F39360B3E7D360F0BC19
:108B50007047012101FA03F3D360ABE7AF690F441B
:108B6000D7600ED82E69711A5160AC62002185F869
:108B70006010116841F00101DBB2116083F31188CC
:108B8000AEE7711A5160AE62F0E700BF70B4037CCB
:108B900001681F2B26D9A3F1200520224C68AA408A
:108BA000224214BF01220022D2B142691B481C4C50
:108BB00002EB420200EB4212257854682068CDB9DE
:108BC000E56856892C6824F001042C6082891F2BEB
:108BD00022EA060282811AD8202202FA03F38B606D
:108BE00070BC704720220C689A40224214BF0122B8
:108BF0000022D9E7A469226822F00102226082895A
:108C000022F480721204120C1F2B8281E4D9A3F18A
:108C1000200220239340CB6070BC70478CC600209C
:108C2000F812001070B59D4C2368002B40F00581B0
:108C30009B4B1A78002A68D09A4B19789A4B0029D6
:108C400064D11868B3F82C5141628489012A44EA3E
:108C500005048481A3F82C1157D0D3F83001B3F860
:108C60005C5241628489022A44EA05048481A3F8A3
:108C70005C124AD0D3F86002B3F88C534162848905
:108C8000032A44EA05048481A3F88C133DD0D3F869
:108C90009003B3F8BC5441628489042A44EA050471
:108CA0008481A3F8BC1430D0D3F8C004B3F8EC55D9
:108CB00041628489052A44EA05048481A3F8EC15FD
:108CC00023D0D3F8F005B3F81C5741628489062AF3
:108CD00044EA05048481A3F81C1716D0D3F82007B2
:108CE000B3F84C5841628489072A44EA0504848118
:108CF000A3F84C1809D0D3F85028B3F87C49516236
:108D0000908920439081A3F87C1970BD5C68198913
:108D100061602568186845F0010540F20D31256055
:108D2000A0F848108489012A44F480748481ECD02E
:108D3000D3F83441B3F83851D3F830016560256871
:108D400045F001052560A0F848108489022A44F402
:108D500080748481D9D0D3F86442B3F86852D3F8D0
:108D600060026560256845F001052560A0F848109F
:108D70008489032A44F480748481C6D0D3F8944350
:108D8000B3F89853D3F890036560256845F0010562
:108D90002560A0F848108489042A44F480748481F2
:108DA000B3D0D3F8C444B3F8C854D3F8C004656052
:108DB000256845F001052560A0F848108489052A3A
:108DC00044F480748481A0D0D3F8F445B3F8F85506
:108DD000D3F8F0056560256845F001052560A0F829
:108DE00048108489062A44F4807484818DD0D3F895
:108DF0002447B3F82857D3F820076560256845F065
:108E000001052560A0F848108489072A44F480747D
:108E100084813FF47AAFD3F85428B3F85808D3F8D4
:108E200050385060106840F001001060A3F84810FE
:108E30009A8942F480729A8170BD05460AF06AFFF1
:108E4000217AA9B16DB1194A002316890133002E88
:108E500018BF0021AB4202F16002F6D100293FF4B5
:108E6000E7AE00F51C501030002320602372DFE6CF
:108E70002368C31A002BFFF648AF637A3BB1013B6E
:108E8000DBB263722BB100F57A702060D0E623600C
:108E9000CEE6636803442360CAE600BF785500202D
:108EA0008CC90020F812001090C900208CC6002048
:108EB00010B5027C01681F2A4FF020030ED94C68C0
:108EC000203A93401C4208D00B4A4068002414709A
:108ED000026822F001020260CB6010BD0C68934072
:108EE0001C42FAD0044A406800241470026822F040
:108EF000010202608B60F0E7056E00202DE9F04171
:108F0000C40023189B00B749CA585268958AADB26D
:108F1000EFB2FE070B4461D4BE0737D5BFF35F8FB6
:108F20001D7EEDB2012D00F0BB80AF4E138BBFF361
:108F30005F8F231801EB83031D7E022D00F0CE808E
:108F4000231801EB83031D7E032D05D19B7E1BB1EE
:108F5000737E002B40F01A81938896F918C043F471
:108F600080639380231801EB83031B7E01336345E9
:108F70000AD1B37E00257576002B40F08A8020440C
:108F800001EB800000234375BDE8F081964E17F099
:108F9000040F96F918C04DD117F0400700F0B280C9
:108FA000178A1D6AFFB205F80C705FFA8CF56F1C0A
:108FB00093F818E07BB2DF1CBE4533769C4600F088
:108FC0000981271801EB87073F7EBB42CAD105F113
:108FD000020C4FFA8CFC86F818C0C3E71588824E45
:108FE00025F400652D042D0C1580158845F4806549
:108FF00015809D7E00273776002D3DD0757E002D93
:1090000037D0231801EB830301251B7E7576022BD5
:1090100003D1138843F400631380231801EB830307
:109020009B7D43F001031382204401EB8000037E0B
:10903000BDE8F0819F7E757E4FF0010E86F81AE044
:10904000002F5CD0002D78D1231801EB83035B7EC9
:10905000002B00F0A48013880CF1010C4FFA8CFC5B
:1090600043F4007386F818C013801388DF05FCD41E
:1090700078E7DB7DFF2BC4D0231801EB83039D7DB4
:1090800005F0FE051582DB7DFF2BCDD0FF23337667
:10909000CAE7938823F440731B041B0C93806EE78C
:1090A0009B7E514E002B3FF441AF737E002B3FF46B
:1090B0003DAF138823F480631B041B0C1380BFF3A4
:1090C0005F8F138B1388B57643F4007313809388F6
:1090D00096F918C043F48063938043E79B7E002B8E
:1090E0003FF42EAF737E002B3FF42AAF138896F91E
:1090F00018C023F480631B041B0C138016E0002DA2
:10910000A2D0A8E72D067FF52DAFBCF1FF3F6DD0B3
:10911000DD6915F80C5015820CF1010C1D7E4FFA1B
:109120008CF39D429C4633767FF41CAF938823F4E6
:1091300080631B041B0C938014E71F7ED3F82080F0
:109140005FFA8CF5AE44022F4FFA8EFE17882DD9A8
:1091500027F480673F043F0C1780178AFFB208F896
:109160000C701788D3F820C047F400731380138A5B
:10917000DBB20CF80E30938805F1020C4FFA8CFC30
:1091800043F4806386F818C093806EE7938896F95D
:1091900018C023F480631B041B0C9380E2E6138841
:1091A000012543F48073138075765EE747F40077FA
:1091B0001780178AFFB208F80C70178AD3F820803E
:1091C00005F1030C4FFA8CFCFBB286F818C008F8C6
:1091D0000E304AE7978827F480673F043F0C97805A
:1091E000EFE600BF245C0020E0270020DD7D158233
:1091F0009D7E37761DB91B7E002B7FF415AF9388BB
:1092000023F480631B041B0C93800DE738B51D4BC2
:109210001B78044600F1250593B104221A49203039
:1092200044F046FF28461422184944F041FF012328
:1092300084F83A30164B1B7873B984F83B3038BD4C
:1092400028461422134944F033FF012384F83A30AE
:109250000F4B1B78002BF0D00F4B186859689A6899
:10926000DD68E56020606160A260DD6918695969A8
:109270009A69A2610123E5612061616184F83B3054
:1092800038BD00BFAD8B0020AE8B0020B38B00201B
:109290008C8B0020D04605088D8B0020014B186870
:1092A0000BF020B8E454002010B500210446012042
:1092B00009F020FD207010BD38B500240472451E51
:1092C000E1B2022009F016FD0134082C05F8010F67
:1092D000F6D138BD38B52C22002144F0ABFE034650
:1092E000642140F2DC5240F2024019745A82132188
:1092F000202240F21A4540F26C74188399760E20B1
:1093000002211A7701229D82DC8240F2753540F6F7
:10931000430483F82200197283F82A109A7383F8A1
:109320002920DD831C8419460248BDE838402BF013
:10933000C9BF00BFDC46050810B42721262401223E
:109340000023047041708270C3705DF8044B704755
:109350002DE9F84FDDE90A648946174600212022ED
:109360009846054644F066FE5EB1D6E90032718942
:10937000EB81C3F30F432B82C2F30F43EA822B83AB
:109380006982484643F0A2FE17F0100B10D1431E2D
:1093900070B119F803202E2A18BF09EB030104D17C
:1093A0004AE011F8016D2E2E3ED013F1FF33F8D2B2
:1093B00008280246CA46A8BF08224FF0000B4FF00B
:1093C00020336B602B60C5F807304946284605F10D
:1093D000080644F0C9FD5A465146304644F0C4FDE3
:1093E0006B1EE81D13F8012FA2F1610119299CBF22
:1093F000203A1A708342F5D105F10B0116F8013BB2
:10940000A3F16102192A9CBF203B06F8013CB1423E
:10941000F4D11823C8F30F42EF722B73A5F81A800A
:10942000AA82EC61BDE8F88FC01A00F1FF3BBBF1E6
:10943000030FA8BF4FF0030B082B03F1010AA8BFCD
:109440000823CA441A46BAE72DE9F04F002087B036
:109450000C461D46012192460DF07AFE002D63D088
:1094600005EB0A03DFF8D094DFF8D0B40393554638
:109470001CE0002D00F0C581D9F81430AB4264D057
:10948000D9F81030AB4200F09780D9E90631AB42F1
:1094900052D8A94200F26F81691A204639F05CFE69
:1094A000039B01359D4204F500743DD0D9F820603E
:1094B000AE42DED8D9F83080AE1B4FEAD60AD8F8D3
:1094C00030300AF1020A9A4506F0070603D3D8F8AD
:1094D00038309A4509D94146504639F00BFE80464E
:1094E000002800F04D81C9F8300098F80430002BB6
:1094F00040F0E280D8F82870002F00F0DF81D8F823
:109500003030D8F80C20AAEB030A06EBCA0A43460F
:10951000204602EB4A224FF40071B847039B013505
:109520009D4204F50074C1D1002108460DF010FEE3
:10953000002007B0BDE8F08FA942ADD94FF400720A
:109540000021204644F076FDAAE752226120412303
:10955000002622706270A070722284F8E70184F8FD
:10956000E631D9F82800E3704FF0FF33314684F834
:10957000E42184F8E521C4F8E8014FF4F07284F89E
:10958000EC3184F8ED3184F8EE3184F8EF31201DB0
:1095900044F050FD55216FF05502C4F8F061C4F855
:1095A000F461C4F8F86184F8FC6184F8FD6184F822
:1095B000FE1184F8FF2173E74FF40072002120466A
:1095C00044F038FDD44BD54F03CBEB23022223705C
:1095D0004FF0080C9026F8234FF0580EC4F8030003
:1095E000227484F80DC0C4F8071084F801E0A67056
:1095F0006375D9F81010D9F80830D9F81C602273B7
:10960000591A21624FF0FF3100233F20A1763E21FD
:10961000A273E372E3736374A374E3742375A37595
:10962000E3756376E3766377A377E3772076217734
:1096300084F82C2007CFD9F8187084F82830F61B4E
:1096400084F8293084F82A3084F82B3084F82D30BF
:1096500084F82E3084F82F3084F8313084F832309A
:1096600084F8333080236662C4F8470004F147066B
:1096700084F8403029209423A94F84F846C084F808
:10968000420084F843300E200D234FF0010C84F883
:10969000440084F8453084F830C0716003CF33460D
:1096A0005527AA269A60C4F85200C4F8561084F8C8
:1096B000FE7184F8FF61F3E64FF40072002120464A
:1096C00044F0B8FCD8F84030002E61D104F12007F6
:1096D000002B77D0D8F8303092491122CDE90066BE
:1096E0002046FFF735FED8F840301A6C04F1400AE6
:1096F000002A79D01B6B8C49CDE9006638461122CF
:10970000FFF726FED8F84460002E3FF4C9AE4FF4B0
:10971000E078CDE904450CE00024CDE900C4FFF772
:1097200017FEB66CBA46A8F120080EB3B8F11F0FA9
:109730001ED93468356B96F804E011222B46214679
:1097400050460AF1200706F11C0CBEF1000FE3D1D0
:1097500072793369019342F021022B46CDF800C0A3
:10976000FFF7F6FDB66CBA46A8F12008002EDDD151
:10977000DDE9044594E6E91A204639F0EDFC8FE670
:10978000231F04F5FE7243F804BF9A42FBD187E61B
:10979000002BD8F844200CBF01230223C3EB06138F
:1097A000002A3FF47DAE966C013B002E3FF478AE6C
:1097B000013BB66CF9D1002E3FF472AEA2464FF4D5
:1097C0000078A6E7CDE900663346D9F80C100822E8
:1097D0002046FFF7BDFDD8F84460002E3FF460AE90
:1097E000BA464FF4F07894E7CDE900663346384640
:1097F00011224D49FFF7ACFDD8F84460002E86D108
:109800004EE64FF400722946204644F013FC8022B5
:109810000C2384F8BE2184F8C231D9F81000434BE0
:10982000D9F8086084F8B85183FB0032C117C1EB46
:109830002232B2F5806F84F8B95184F8BA5184F8B5
:10984000BB5184F8BC5184F8BD51C4F8C601C4F8BA
:10985000CA6142DBFF2384F8BF3184F8C13184F848
:10986000C031324B711E83FB0132CE17C6EB223260
:10987000B2F5806F29DA2E4B84F8C52183FB0103F2
:109880000B442C48C6EB6313C3EB831680FB0370B9
:10989000891B1844DE17921022F03F020131C6EBFB
:1098A000E0100A43034484F8C42184F8C3315522EC
:1098B000AA2384F8FE2184F8FF31F1E539464FF4FC
:1098C0000072204644F0B6FBEAE5FF2384F8C3317A
:1098D00084F8C53184F8C431E9E7154B84F8C12117
:1098E00083FB00730344134FC1EB631387FB031720
:1098F000C3EB831C9110A0EB0C02F818DF1721F0CA
:109900003F010132C7EBE0100A43034484F8C02151
:1099100084F8BF31A5E700BFF0460508FC460508FE
:109920000C470508E8460508EC46050897554541EB
:109930008320088281808080D0BD0020DEADBEEF14
:1099400008B534F083FE80F00100404240B208BD0B
:1099500070B50C4601211E46084615460DF0F8FB71
:10996000AEB104EB462601E034F070FE0022214641
:10997000284639F059FA0028F6D134F067FE00285D
:10998000FBD004F50074B44205F10105EED10021CD
:1099900001200DF0DDFB002070BD00BF70B50C464E
:1099A00001211E46084615460DF0D2FB96B104EB88
:1099B000462600222146284639F0CEFA0028F8D063
:1099C00034F044FE0028FBD004F50074B44205F1E5
:1099D0000105EED1002101200DF0BAFB002070BD81
:1099E000002108B508460DF0B3FB39F0EFFA34F06A
:1099F0002DFE0028FBD0012100200DF0A9FB002046
:109A000008BD00BF10B5044C04480A46214635F095
:109A1000A5F8204610BD00BFFC2700201847050808
:109A200010B5044C04480A46214635F097F8204604
:109A300010BD00BFFC2700202847050810B5044CC6
:109A400004480A46214635F089F8204610BD00BF7B
:109A5000FC270020344705080A4608B5054920B10F
:109A6000054835F07BF8034808BD044835F076F822
:109A7000004808BDFC270020604705084847050846
:109A800070B44E1C0568C2728672AC69A44670BC84
:109A9000604700BF2DE9F041044618460D461646C2
:109AA0001F4643F013FB2844A0722068E672294643
:109AB00045693B4632462046AC46BDE8F04160472A
:109AC000036810B504461B689847236820469B68C6
:109AD0009847A37B0133A37310BD00BF10B5036883
:109AE00004469B689847FF2301226373227310BDCD
:109AF00038B50D4608F04EFB044650B1362383714D
:109B0000C57101210DF038FA2046BDE838400DF04E
:109B1000D5BA38BD38B50D4608F03CFB044650B107
:109B200035238371C57120210DF026FA2046BDE84A
:109B300038400DF0C3BA38BD0E4B984214D0A3F58F
:109B4000784398420ED003F5806398420ED10222EA
:109B5000094B03EB02135A89013292B25A81588998
:109B600080B270470122F3E70022F1E74FF0FF30A7
:109B7000704700BF00300140A0B40020F8B58489D0
:109B80004FF6FF764FF47A7433B319B30F7801317F
:109B900001E0B44218D00589013CAD07A4B2F8D564
:109BA000BCB284814FF47A7402E0BCB2B4420BD0F0
:109BB0000589ED0704F1FF37F7D58589ADB20AB104
:109BC00015700132013BDFE7FFF7B6FF003018BF29
:109BD0000120F8BDFF27DEE70120F8BD30B5437F47
:109BE00083B004461BB90120637703B030BD052361
:109BF000ADF80430056800BFA8680DF059FA6A4650
:109C000001A902236868FFF7B9FFA8680DF056FAAA
:109C100000BF9DF8013003F0010383F0010063777A
:109C200003B030BDF8B5074C05460F46266803E083
:109C300023689B1BBB4204D82846FFF7CFFF0028B0
:109C4000F6D0F8BD1CB50020F0B5077F83B0044600
:109C50004FF0030C0020009016461D468DF80400BE
:109C60008DF800C06FB30B0E8DF801300DF10203BB
:109C7000080C0A0A99701870062120465A70FFF7DE
:109C8000D1FFE0B1236800BF98680DF011FA237F7F
:109C90002268002B14BF0523042369465068002264
:109CA000FFF76CFF23683246002158682B46FFF708
:109CB00065FF236898680DF001FA00BF284603B0DD
:109CC000F0BD0DF10103D3E72DE9F0418046806836
:109CD00010B1046880886083D8F8040085894FF447
:109CE0007A744FF6FF7613F1FF3320D341B30F7828
:109CF000013101E0B44218D00589013CAD07A4B29E
:109D0000F8D5BCB284814FF47A7402E0BCB2B4429C
:109D10000BD00589ED0704F1FF37F7D58589ADB282
:109D2000002AE0D015700132DDE7FFF705FFD8F813
:109D3000083013B11A689B8813830120BDE8F081B5
:109D4000FF27D9E7F0B5876983B0064617B13B68AE
:109D5000BA885A837069DFF8A8E08389C3244FF476
:109D60007A734FF0060C6D464FF6FF710EF1010E3F
:109D700003E0013B9BB28B4220D002899207F8D5C9
:109D8000A3B283814FF47A7302E0A3B28B4215D061
:109D90000289D20703F1FF34F7D5828992B20DB15F
:109DA0002A700135BCF1000F0BD00CF1FF3CFF24F1
:109DB000BEF1000FE1D09EF80040D7E7FFF7BCFEF0
:109DC000B76917B13B68BA881A839DF805009DF8FA
:109DD00001509DF802109DF803409DF804209DF865
:109DE000063041EA052143EA002342EA0422012029
:109DF000A6F85010A6F85220A6F8543003B0F0BDD3
:109E0000A0F8040808B540F2E93300E0A3B10289E4
:109E1000013B12F0020F9BB2F8D089B2818140F26F
:109E2000E93300E043B10289013B12F0010F9BB21C
:109E3000F8D08089C0B208BDFFF77EFEC0B208BD71
:109E4000427A4AB110B5044604F10A01D0E9003063
:109E500098470023637210BD704700BF437A5A1CB5
:109E60000344D2B242729972037A93420AD84AB139
:109E700010B5044604F10A01D0E9003098470023E8
:109E8000637210BD704700BF48B10123302803FA48
:109E900001F101D0312803D14A0709D100207047D0
:109EA0003228F9D03328F7D0342803D18B07F5D0E6
:109EB000012070473528F9D02028F7D02128F5D087
:109EC0001028E9D01128E7D01228E5D01328E3D0D4
:109ED0001428EBD01528E9D0162804D111F003007E
:109EE00018BF012070471728D8D111F0030018BF00
:109EF00001207047302829D0312829D0322829D094
:109F0000332829D0342829D0352829D020282BD00F
:109F100021282BD0102825D0112829D0122829D06B
:109F2000132829D0142829D0152829D0162805D07F
:109F3000172808BF0F2302D0002070470E23114AB4
:109F400003EB4303134493F8820070470023F6E7C2
:109F50000123F4E70223F2E70323F0E70423EEE70B
:109F60000523ECE70823EAE70623E8E70723E6E70B
:109F70000923E4E70A23E2E70B23E0E70C23DEE70B
:109F80000D23DCE728F80408024A136823EA0000DE
:109F9000106070478C630020F8B50468C4F30D04AA
:109FA00005460E4604B32F6836F0D6F8092840F06F
:109FB0008880454C236923F440732361236943F46B
:109FC00000732361236943F0010323613E6036F08F
:109FD000C3F82369092823F00103236171D12B6899
:109FE00004332B60002035E0384B394A93422BD99B
:109FF00002F58042934226D902F5804293422AD943
:10A0000002F58042934228D902F58032934226D944
:10A0100002F50032934224D902F50032934222D94C
:10A0200002F50032934220D902F5003293421ED944
:10A0300002F5802293421CD9B3F1016F1BD3052096
:10A0400009F002F9FBE7082436F086F8092814D055
:10A050004FF0FF30F8BD1024F6E71824F4E7202471
:10A06000F2E72824F0E73024EEE73824ECE7402438
:10A07000EAE74824E8E75824E6E7134F3B6923F46E
:10A0800040733B613B6943F400733B613B6923F0E0
:10A09000F8033B613B6943F002031C433C613B69AD
:10A0A00043F480333B6136F057F83B6923F00203F9
:10A0B0003B613B69092823F0F8033B613FF473AF30
:10A0C000C6E76FF00100C5E7003C02400040000811
:10A0D000FF3F0008F8B504460D468E180027B5422C
:10A0E000206900D1F8BDE368591CE160234415F8EC
:10A0F000012B1A720429F2D118B9A1682046FFF782
:10A100004BFFC4E90370EAE730B402681146531C00
:10A11000036011F8024B0160D31C517803609378FF
:10A12000151D05601B0443EA0123D078234343EA4D
:10A13000006030BC704700BF0368591C1A460160BC
:10A1400012F8021B0260587841EA0020704700BFF5
:10A1500003685A1C02601878704700BF70B5044647
:10A1600008460E4642F0B2FF3146054602462068D8
:10A1700043F0FAFE20682844206070BD38B50446DC
:10A180000068154643F0F0FE22682A44226038BD7C
:10A19000036810B40A0E5C1C04601A7003680A0C91
:10A1A0005C1C04601A7003680A0A5C1C04601A7064
:10A1B00003685A1C026019705DF8044B704700BFB9
:10A1C000036810B40A0A5C1C04601A7003685A1C05
:10A1D000026019705DF8044B704700BF03685A1C99
:10A1E000026010B4197003680A0A5C1C04601A70DB
:10A1F00003680A0C5C1C04601A700368090E5A1C80
:10A20000026019705DF8044B704700BF03685A1C68
:10A21000026019700368090A5A1C026019707047BD
:10A2200010EE103AC3F3160242F07E5207EE102AE7
:10A23000DFED167ADFED164A9FED165ADFED165A5E
:10A240009FED166ADFED163ADFED166A9FED164AAE
:10A25000E7EE274ADB1507EE903AA4EE875AF8EEB0
:10A26000E77AE5EE075A67EEA37AA5EE876AB5EEC0
:10A27000C00AE6EE077AF1EE10FAD4BFB0EE440A57
:10A28000B0EE660A37EE800A704700BFDACDFE3CBA
:10A29000B9D593BE5CB8903FAA841DC022E061404E
:10A2A0001872313F07F1B3C2000080FFDFED1D3AA5
:10A2B000DFED1D7A9FED1D7A9FED1D4ADFED1D4AF2
:10A2C0009FED1D5ADFED1D5A9FED1D6ADFED1D6AE2
:10A2D000E0EE237AF4EEC77AF1EE10FA88BFF0EEE2
:10A2E000477AF4EEC47AF1EE10FAB8BFF0EE447A91
:10A2F000FDEEE77A17EE903AC3F3160242F07E5273
:10A3000007EE102AA7EE245A03F0FF4300EE103A9E
:10A31000E5EE075AA5EE876AE6EE076A26EE800AA2
:10A32000704700BF3BAA384B00007E4E0000FF4E36
:10A3300000000000ED185E3C81900FBBAF9D2A3EEF
:10A34000B2D19F3EE886023F07EE901AF8EE677A98
:10A350009FED837A27EE800A20EE070AFDEEC07A91
:10A3600017EE903A2033402B00F28180DFED7D7AAA
:10A37000B4EEE70AF1EE10FA40F3E680B0EE407A70
:10A380009FED796ADFED796A01E0B0EE677AB4EEAD
:10A39000E67AF1EE10FA77EE467AF6DC9FED747A03
:10A3A000F4EEC77AF1EE10FA40F1D1809FED6E6ABB
:10A3B000DFED706A01E0F0EE477AF4EEE67AF1EE56
:10A3C00010FA37EE867AF6D4DFED6B7AB4EEE77AE0
:10A3D000F1EE10FA40F3A780DFED627A37EEC77A2C
:10A3E00027EE076ADFED655ADFED657ADFED656A16
:10A3F0009FED655AE6EE257A67EE065AE6EE276A85
:10A40000F7EE007AA5EEA67AF0EE675AE7EE055A67
:10A41000E7EE457A87EEA55ADFED577A30EE277AD8
:10A42000FDEEC76A16EE903A2033402B24D99FEDFB
:10A43000577AF6EE006AB7EE006AF7EE004AC4EE0D
:10A44000A57A0023836143610362C36180ED045AEE
:10A4500067EEA66A27EE866A27EE877AC0ED006A65
:10A46000C0ED026A80ED016A80ED037A7047B7EEB5
:10A47000005AF0EE455ACFE7B4EEE70AF1EE10FAD3
:10A480006BDD9FED396ADFED396A01E0B0EE677A86
:10A49000B4EEE67AF1EE10FA77EE467AF6DC9FED4E
:10A4A000347AF4EEC77AF1EE10FA53D59FED2E6AA6
:10A4B000DFED306A01E0F0EE477AF4EEE67AF1EE95
:10A4C00010FA37EE867AF6D4DFED2B7AB4EEE77A1F
:10A4D000F1EE10FA33DCDFED2E7AB4EEE77AF1EE2E
:10A4E00010FA44BFDFED227A37EEC77A27EE076A0B
:10A4F000DFED224ADFED226ADFED227AE6EE246A02
:10A5000067EE064AE6EE267AB7EE006AA4EEA77A70
:10A51000F6EE006A36EE476AF8EE007A27EE277A02
:10A5200066EE266A89E7DFED1A7AB4EEE77AF1EE95
:10A5300010FA44BFDFED0E7A37EEC77A50E7DFED51
:10A54000097A37EEC77AD1E7F0EE407A26E7B0EE27
:10A55000677A39E7B0EE677AB6E7F0EE477A9EE7BA
:10A5600027D4D236DB0F4940DB0FC940E4CB16417C
:10A57000DB0F49C0E4CB16C1DB0FC93F92E741B9FD
:10A580009730083C15A82ABEF304353F00000000B0
:10A59000DB0FC9BFDFED2E7AB4EEE70AF1EE10FA59
:10A5A0004ADDDFED2C6A9FED2C7A01E0B0EE670A00
:10A5B000B4EEC70AF1EE10FA70EE667AF6DC9FEDA3
:10A5C000277AF4EEC77AF1EE10FA3ED5DFED216A74
:10A5D0009FED237A01E0F0EE407AF4EEC77AF1EED7
:10A5E00010FA37EEA60AF6D4DFED1E7AB4EEE70ACB
:10A5F000F1EE10FA14DDDFED167A37EEC00A60EEE8
:10A60000006A9FED196A9FED197ADFED197AA6EEBF
:10A61000867A20EE266AE6EE877AA6EE270A70474B
:10A62000DFED147AB4EEE70AF1EE10FA44BFDFED85
:10A630000B7A37EEC00AE2E79FED087AF0EE407A37
:10A64000F4EEC77AF1EE10FAC0D4B0EE670ACBE7A9
:10A65000DB0F4940DB0FC940E4CB1641DB0F49C09B
:10A66000E4CB16C1DB0FC93F92E741B99730083CF4
:10A6700015A82ABEDB0FC9BFDFED317A30EE277A8D
:10A68000FDEEC76A16EE903A2033402B02D99FEDBB
:10A690002D0A7047B4EEE70AF1EE10FA4DDD9FED9A
:10A6A0002A6ADFED2A6A01E0B0EE677AB4EEE67A54
:10A6B000F1EE10FA77EE467AF6DC9FED257AF4EEAD
:10A6C000C77AF1EE10FA35D5DFED1F6A9FED217ADA
:10A6D00001E0F0EE407AF4EEC77AF1EE10FA37EED0
:10A6E000A60AF6D4DFED167AB4EEE70AF1EE10FA18
:10A6F0001BDCDFED197AB4EEE70AF1EE10FA44BF85
:10A70000DFED137A37EEC00A60EE006A9FED136A40
:10A710009FED137ADFED137AA6EE867A20EE266A95
:10A72000E6EE877AA6EE270A7047DFED0F7A37EE5E
:10A73000C00AE9E7B0EE670AD4E7F0EE477ABCE773
:10A74000DB0FC93F00000000DB0FC940E4CB16411E
:10A75000DB0F49C0E4CB16C1DB0FC9BF92E741B99B
:10A760009730083C15A82ABEDB0F49402DE9004868
:10A77000FDF75AFD054A064B1268B0EB020B61F17A
:10A78000000CC3E900BC0120BDE800881CB5002016
:10A79000D06E00200F4B2DE93048D3E9004554EA34
:10A7A00005020AD1034640F2011200201880988069
:10A7B00098715A801881BDE83088074B1A6814EBED
:10A7C000020B45F1000C5A466346FDF775FC01206B
:10A7D000BDE83088D06E00201CB5002002B370B4F4
:10A7E0008E1803E0121B14D1B14215D010F8012BC2
:10A7F000A2F14103192B11F8013BA3F1410598BFC8
:10A800002032192D03F12004ECD9D21A01D1002BEA
:10A81000EAD1104670BC70470022104670BC7047E9
:10A820001046704770B5044608460D4642F04EFC8F
:10A83000064602E014F8013F43B13246294620465D
:10A84000FFF7CCFF0028F5D1204670BD1C462046FE
:10A8500070BD00BF4FF0FF32FFF7C0BFA0F1610332
:10A86000192B98BF20387047A0F14103192B98BFCE
:10A8700020307047202805D0093804288CBF0020DC
:10A8800001207047012070472DE9F0411F46064620
:10A8900003461C782046FFF7EDFF1D4601330028D4
:10A8A000F7D12B2C51D02D2C24D0102A804628D023
:10A8B0004FF0FF33B3FBF2F302FB03FC6FEA0C0C27
:10A8C0005FFA8CFC013500200BE0303CE4B294428E
:10A8D00025DA98422E461DD81AD002FB004015F802
:10A8E000014B392CF1D944F02004602C17D9573C86
:10A8F000E4B2ECE74FF00108102A6C7805F101058D
:10A90000D6D1302C23D06FF070434FF00F0CD9E725
:10A910006445E2D907EA08084FF0FF30DFE701B1EC
:10A920000E60B8F1000F08D027B1B0F1004F28BF7A
:10A930004FF000404042BDE8F081002FFBD06FF0A7
:10A940000043984228BF1846F5E78046D4E76C7864
:10A950002046FFF789FF782805F1010605D0354626
:10A960006FF070434FF00F0CACE7AC786FF07043B2
:10A9700002354FF00F0CA5E701230A22002183E7DF
:10A98000613819288CBF00200120704741381928F0
:10A990008CBF002001207047303809288CBF002070
:10A9A00001207047A0F13003092B07D920F02000C7
:10A9B000413819288CBF00200120704701207047C2
:10A9C0000378202B024600F10100F9D0092BF7D0C3
:10A9D0002D2B00F0A4802B2B03BF5378B7EE000A79
:10A9E0000246B7EE000AA3F13001C8B209289FED74
:10A9F000577A10D8F2EE046A07EE901AF8EEE77A6A
:10AA000012F8013FE7EE267AA3F13001C8B2092817
:10AA1000B0EE677AF0D92E2B63D003F0DF03452B1D
:10AA200002D020EE070A704710B451782D294FD07C
:10AA30002B2979D0A1F13003092B02F101027AD838
:10AA40000024002303EB830301EB430312F8011FEF
:10AA5000A1F130000928A3F13003F3D9B3F59A7FAF
:10AA60001A4628BF4FF49A72072B6CD9DFED386A6B
:10AA70001346F7EE007A083B072B67EEA67AFAD862
:10AA800002F00702DAB1F2EE046A012A67EEA67A52
:10AA900015D0022A67EEA67A11D0032A67EEA67AAD
