:020000040800F2
:10000000F0FF001049DE04087DCE03085D0A0208F7
:10001000E5DE0408E5DE0408E5DE04080000000073
:1000200000000000000000000000000089CE03086E
:1000300085CE03080000000081CE030809D801081E
:10004000E5DE0408E5DE0408E5DE0408E5DE040874
:10005000E5DE0408E5DE0408E10A02080D0C0208EA
:10006000D10B0208950B0208590B0208DDD30008DA
:10007000CDD30008BDD30008ADD3000899D3000844
:1000800085D3000871D30008E5DE0408E5DE040826
:10009000E5DE0408E5DE0408E5DE04081D0B0208C1
:1000A000C9BA010855C00108E5DE040815C10108F8
:1000B00095BF0108D5BE010809BE010899FC0008DA
:1000C000A1FC000889FC000891FC0008E5DE04089A
:1000D000E5DE0408ADDA010811DA010875D9010876
:1000E000A50A0208E5DE040861140408E5DE040838
:1000F00099BB0108E5DE040869BC01085DD300086E
:10010000E5DE0408E5DE040839BD0108E5DE040883
:10011000D9D801083DD801085D5B0108495B010899
:1001200049D3000835D3000821D300080DD30008B7
:10013000F9D20008E5DE0408E5DE0408E5DE04087F
:10014000E5DE0408E5DE0408E5DE04083104040801
:10015000E5D20008D1D20008BDD20008E5DE0408CF
:1001600079FC000881FC0008E5DE0408E5DE0408EF
:10017000E5DE0408E5DE0408E5DE0408E5DE040843
:08018000E5DE0408E5DE0408D9
:08018800F0D9040001000000A1
:10019000100201009831002094310020000000007E
:1001A000080700080702020080570020C4570020FB
:1001B000000000000A07000802000C005857002049
:1001C000C8570020000000000000000006020C00DC
:1001D0004C570020D457002000000000A9920008CE
:1001E00008120900D0560020E0570020000000004F
:1001F00069840008F7010600CA560020EC57002069
:10020000000000000C0700080A020A00385600200F
:10021000F45700200000000012070008030001004E
:10022000485100200058002000000000000000009D
:100230001A023C0094590020085D002000000000D4
:10024000199200082700040090590020445D002006
:10025000000000001C07000814000300B465002023
:10026000C8670020000000002007000810100200EE
:1002700008670020CC670020000000002407000869
:1002800028101000F8660020D06700200000000051
:10029000991E020823001000C4620020E0670020BD
:1002A00000000000B11E0208F8210600F0660020E0
:1002B000F067002000000000260700080E40200123
:1002C000EC5F0020F867002000000000256B0408A8
:1002D000130004008C630020186900200000000057
:1002E0002C070008010104006A5F00201C6900203F
:1002F000000000000000000000010400625F002018
:1003000020690020000000003007000802010300FF
:100310005D5F00202469002000000000290701081B
:1003200009020100FC65002028690020000000008F
:10033000340700080C106C00386100202C69002084
:1003400000000000AD06010801020500725F0020F8
:10035000986900200000000049150208000205000D
:1003600044630020A069002000000000000000009D
:100370001B020800D88300205084002000000000E9
:100380001984000801200800A88200205884002059
:1003900000000000360700081900050058830020FF
:1003A00060840020000000003E07000837001E00A7
:1003B000308300206884002000000000440700080B
:1003C0001E000500386E0020888400200000000018
:1003D000620700081B00F400446B0020908400209A
:1003E0000000000085A902080E0202008C750020A2
:1003F0008485002000000000680700082F0011001D
:10040000F083002088850020000000006A070008B3
:1004100005100600308400209C85002000000000AC
:100420007C070008F5317000BC6A0020A48500201C
:100430000000000055D0020826000E00248600208F
:100440001486002000000000359102080B201000E7
:100450002E6B002058860020000000008207000854
:100460001F201C009C6A00206886002000000000FD
:1004700092070008050204009C700020848600207A
:1004800000000000AE070008031233005E8C00205D
:100490005E90002000000000B407000825009600D0
:1004A000C88B0020B88F0020000000000000000072
:1004B000F6210C00EC8D0020488F00200000000089
:1004C000E807000815007000F88D0020D88E002085
:1004D00000000000000000002A006000008A0020E8
:1004E000788E002000000000FD6A04082C00100037
:1004F000688E00204E90002000000000DD1C0308E4
:100500002B002400FC8C00209190002000000000B3
:10051000AD1C030829106400988C0020548F002023
:100520000000000000000000160008006891002094
:100530007091002000000000F407000803010A0089
:10054000ECA3002080A4002000000000FC070008AD
:1005500013020300A89900208CA4002000000000D2
:1005600006080008040080009CDC002054DD002008
:1005700000000000000000000D00440018DC002016
:10058000D4DD0020000000005D7E0308FD01240092
:1005900048D3002018DE002000000000D997010891
:1005A00018202C0018D300203CDE002000000000A2
:1005B000B99300080610180070C6002068DE0020FD
:1005C00000000000816B0408FB0101006CC60020E4
:1005D00080DE0020000000001D940008FC010900DE
:1005E00038C5002084DE0020000000002D940008A3
:1005F0000A401E0010C5002090DE00200000000010
:100600000A0800083400100040C40020B0DE0020BA
:1006100000000000556B04081102080018C40020F7
:10062000C0DE0020000000002808000812120400AC
:1006300010C40020C8DE00200000000030080008C0
:1006400012200D0000C40020CCDE002000000000BD
:1006500034080008FF010800C4BD0020DCDE0020D3
:1006600000000000CDCF0008F901040058BD0020B3
:10067000E4DE00200000000051980108180202008A
:1006800060B70020E8DE002000000000000000004D
:1006900017020B0054B70020ECDE00200000000021
:1006A00025840008FA01020030B70020F8DE00209F
:1006B00000000000C585000802020300E0B400202D
:1006C000FCDE002000000000000000000C0203001F
:1006D0009CB4002000DF002000000000A18400087E
:1006E000FE01090008B7002004DF00200000000020
:1006F000B18400081A000E0030F3002058F40020E6
:0807000000000000420800089F
:100708000000013C3D010000000000004A01B40067
:10071800D6010000200300000300000000050401CA
:10072800F401190048040430B30000001300E80382
:100738006400040A000100002801000020003200C3
:10074800C800D0079600140032002800B004400604
:100758000005500014000F00080000000100000010
:100768000000000000000000000000000000000081
:10077800000000002000020100002B21231E64015C
:100788000100000001000A0129000000000000012A
:100798000000000500000102030000000000000046
:1007A8000000000000000000000000000000000041
:1007B8000000000000000000000000000000000031
:1007C8000000000000000000000000000000000021
:1007D8000000000000000000000000000000010010
:1007E800000000000100000002020000C40900002F
:1007F80019012828040101006C16000000000000FF
:100808000000003001000000000064002C0100001E
:100818000000000000000000020000019E077D00AB
:100828000000000001010101FFFFFFFF00000001BF
:100838000000054D4B46340000007E05EA05B4056E
:080848003200E803D0070000B4
:100850001A0300000000000000000000000000007B
:100860000000000000000000000000000403090474
:100870001201000200000040830420570002010220
:1008800003010000E1990008218500084199000852
:10089000058500089D99000851990008F584000815
:1008A000DC00002045B800080D8500080985000817
:1008B0000185000849940008FD840008F9840008B7
:1008C00058FA0408FDEC03080DC803080DF80308E6
:1008D000000000000000000011F503082DF40308DB
:1008E00000000000000000000000000045C30308F5
:1008F000B9850008AD8500083D9A0008599A00089E
:1009000065850008219A0008059A0008010000008A
:10091000500100000700000002000000000000007D
:10092000000000000102030406070809008002021B
:100930001F00000053544D202020202050726F646F
:10094000757420202020202020202020302E3031BF
:100950000100000099FD00080000000000000000F8
:100960000000803F000000000000000000000000C8
:10097000FF00000000000000B45700200800000045
:1009800000000000A457002008000000F806050839
:1009900005080400000000004C110508583B05083C
:1009A00038110508000000000000000024070508B9
:1009B00005080A00000000004C110508583B050816
:1009C0001C1005080000000000000000685E0C001C
:1009D000010102FFFF000000E00101010100000031
:1009E000391702080000000004030020D05E05084B
:1009F00000000000000000000000000000000000F7
:100A00004061050800000000000000008503002090
:100A100004000000245D05080D0000000D370208E9
:100A2000E01C002000000000A85605080D00000092
:100A3000E5360208D41C00200000000020580508FC
:100A40000800000000000000C81C00200400000096
:100A5000145705080D000000ED170208BC1C00200B
:100A600000000000D05705080300000051390208BB
:100A7000B01C002000000000E05E0508030000003C
:100A800051390208A41C002000000000F45205089F
:100A90000100000000000000000000000000000055
:100AA000000000000E000000000000000000000038
:100AB00000000000D05E05080000000000000000FB
:100AC0000000000000000000406105080000000078
:100AD000000000008503002004000000D05C050831
:100AE0000300000005230208981C002008000000F5
:100AF000145705080D000000ED170208BC1C00206B
:100B000000000000D057050803000000513902081A
:100B1000B01C002000000000E05E0508030000009B
:100B200051390208A41C002000000000F4520508FE
:100B300001000000000000000000000000000000B4
:100B4000000000000E000000000000000000000097
:100B500000000000E85E0508000000000000000042
:100B600000000000000000004061050800000000D7
:100B7000000000008503002004000000D85C050888
:100B80000300000051390208EC1C002000000000A6
:100B9000F452050801000000000000000000000001
:100BA00000000000000000000E0000000000000037
:100BB000000000000000000020700020702D720076
:100BC000000101010008000000000000000000001A
:100BD00054180020012D202D2D202D2D2D2D202DC0
:100BE0002D2D0000000000000000000000000000AB
:100BF00000000000FFFFFFFFFA00000001000000FE
:100C00000100000001000000C4520508CC52050894
:100C1000EC52050800000000000000000000000089
:100C200000000000954C050804000000AD340208E7
:100C30000000000000000000F45205080100000060
:100C400000000000000000000000000000000000A4
:100C50000E00000000000000000000000000000086
:100C60003CDD00200100C409000000003ADD002046
:100C70000100C4090000000038DD00200100C409A3
:100C80000000000036DD00200100C4090000000063
:100C900032DD00200100C4090000000034DD002026
:100CA0000100C4090000000030DD00200100C4097B
:100CB000000000002EDD00200100C409000000003B
:100CC000845F00200100C80001000000825F002056
:100CD0003200307532000000805F0020055A0500A8
:100CE0007D5F002000FF01007F5F00200100000009
:100CF000B80300207B5F0020020000008414050878
:100D00007C5F002000FF01007E5F002001000000EA
:100D1000B80300207A5F0020020000008414050858
:100D2000705F002080C1803E050000006E5F0020E3
:100D300080C1803E05000000685F002080C1803EC9
:100D400005000000665F002080C1803E05000000B5
:100D5000605F002000FF01005C5F00200A3201009C
:100D60005B5F002004000000FC0F05085A5F0020B4
:100D70000200000010100508000000000000000044
:100D8000C003002030A400209CFF2C0100000000C4
:100D90008A0100200A0000001C100508505F002096
:100DA000E0150C17000000008C0100200800000076
:100DB000583B05088B010020050000004C11050878
:100DC000525F00200200000034100508B8610020C6
:100DD0000100FF7F01000000B76100200200000059
:100DE00040100508E15F00200300000050100508D6
:100DF000E05F00200300000050100508166100208D
:100E00000000F40101000000146100200000F40162
:100E100001000000126100200000F4010100000048
:100E2000106100200000F401010000000E610020AC
:100E30000000803E010000000C6100200000803EA8
:100E40000100000034610020E803D0070A00000020
:100E500032610020006401000A00000027610020C8
:100E60000064010026610020006401002E61002062
:100E7000006401000A0000002D61002000640100F0
:100E80000A0000002C610020006401000A0000003C
:100E900031610020006401000A0000003061002080
:100EA000006401000A0000002F61002000640100BE
:100EB0000A0000002B61002000FF01000A00000072
:100EC0002A61002000FF01000A00000029610020C3
:100ED00000FF01000A000000E85F00200000F401AC
:100EE00001000000E65F00200000F40101000000A6
:100EF000E45F00200000F40101000000E25F002038
:100F00000000F40101000000226100201400E80349
:100F10000100000020610020E80330750A00000095
:100F20001F61002000C801001E61002000C80100F0
:100F30001D61002000C801001C6100200064010048
:100F40000A0000001A6100200000D0070100000024
:100F5000AD61002000C80100AC61002000C80100A4
:100F6000AB61002000C80100AA61002000C8010098
:100F7000A961002000C80100A861002000C801008C
:100F8000A761002000C80100A661002000C8010080
:100F9000A561002000C801002453050800000000DE
:100FA00000000000000000000000000034530508AD
:100FB000090000000000000064040020040000009C
:100FC0003C53050809000000000000005804002000
:100FD00004000000A85A05080900000000000000F5
:100FE0004C040020040000006449050809000000CA
:100FF00000000000400400200400000044530508E5
:10100000090000000000000034040020040000007B
:101010004C530508090000000000000028040020CF
:1010200004000000545305080900000000000000FF
:101030001C040020040000005C53050809000000A7
:10104000000000001004002004000000F452050815
:10105000010000000000000000000000000000008F
:10106000000000000E000000000000000000000072
:101070000000000088550508000000000000000086
:101080000000000000000000289005080700000094
:1010900000000000880400200000000098550508AA
:1010A00008000000000000007C0400200000000098
:1010B000A45505080800000000000000700400208E
:1010C00000000000F45205080100000000000000CC
:1010D0000000000000000000000000000E00000002
:1010E000000000000000000000000000AC550508F2
:1010F00000000000000000000000000000000000F0
:10110000BC5505080D00000000000000C4040020CC
:1011100000000000C45505080D000000000000009C
:10112000B804002000000000CC55050807000000AE
:1011300000000000B004002000000000D4550508A5
:101140000D00000000000000A404002000000000CA
:10115000DC5505080D000000000000009804002088
:1011600000000000E4550508070000000000000032
:101170009004002000000000F45205080100000067
:10118000000000000000000000000000000000005F
:101190000E00000000000000000000000000000041
:1011A000EC550508000000000000000000000000F1
:1011B00000000000289005080C000000000000005E
:1011C000865F002000000000005605080C000000AB
:1011D00000000000885F0020000000001056050895
:1011E0000C00000000000000BE5F002000000000B6
:1011F000205605080C00000000000000B25F00202F
:1012000000000000345605080C000000000000003B
:101210008A5F002000000000405605080C00000016
:10122000000000008C5F0020000000004856050808
:101230000C000000000000008E5F00200000000095
:101240005C5605080C00000000000000905F0020C4
:1012500000000000645605080C00000000000000BB
:10126000925F0020000000006C5605080C00000092
:1012700000000000D05F0020000000008456050838
:101280000C00000000000000945F0020000000003F
:10129000905605080C00000000000000965F00203A
:1012A00000000000985605080C0000000000000037
:1012B000985F002000000000A45605080C00000004
:1012C000000000009A5F002000000000B0560508F2
:1012D0000C000000000000009C5F002000000000E7
:1012E000BC5605080C000000000000009E5F0020B6
:1012F00000000000C85605080C00000000000000B7
:10130000A05F002000000000D45605080C0000007B
:1013100000000000A25F002000000000E056050869
:101320000C00000000000000B65F0020000000007C
:10133000E85605080C00000000000000B45F002023
:1013400000000000F05605080C000000000000003E
:10135000C25F002000000000FC5605080C000000E1
:1013600000000000C45F00200000000008570508CE
:101370000C00000000000000CA5F00200000000018
:101380000C5405080C00000000000000A45F0020C1
:1013900000000000145705080C00000000000000C9
:1013A000AC5F0020000000001C5705080C00000086
:1013B00000000000A65F002000000000285705087C
:1013C0000C00000000000000A85F002000000000EA
:1013D000345705080C00000000000000AA5F002040
:1013E000000000003C5705080C0000000000000051
:1013F000AE5F002000000000485705080C00000008
:1014000000000000B85F00200000000050570508F1
:101410000C00000000000000B05F00200000000091
:101420005C5705080C00000000000000C05F0020B1
:1014300000000000685705080C00000000000000D4
:10144000BA5F002000000000705705080C00000083
:1014500000000000BC5F0020000000007857050875
:101460000C00000000000000C65F0020000000002B
:10147000805705080C00000000000000C85F002035
:1014800000000000F4520508010000000000000008
:101490000000000000000000000000000E0000003E
:1014A0000000000000000000000000008857050850
:1014B000000000000000000000000000000000002C
:1014C000945705080D000000000000001C050020D6
:1014D000000000009C5705080D00000000000000FF
:1014E0001005002000000000A457050807000000B8
:1014F000000000000805002000000000B0570508AB
:1015000007000000000000000005002000000000AF
:10151000BC5705080900000000000000F40400208A
:1015200000000000C8570508090000000000000086
:10153000E804002000000000D4570508090000005E
:1015400000000000DC04002000000000E457050853
:101550000900000000000000D0040020000000008E
:10156000F452050801000000000000000000000027
:1015700000000000000000000E000000000000005D
:101580000000000000000000F857050800000000FF
:1015900000000000000000000000000008580508DE
:1015A0000500000000000000DF5F002000000000D8
:1015B000F4520508010000000000000000000000D7
:1015C00000000000000000000E000000000000000D
:1015D0000000000000000000105805080000000096
:1015E000000000000000000000000000406105084D
:1015F0000000000000000000C424002004000000DF
:101600001C5805080D000000113502087005002067
:1016100000000000245D05080D000000F11602081E
:101620006405002000000000A85605080D00000019
:10163000D5160208580500200000000020580508B3
:1016400008000000000000004C050020040000001D
:10165000145705080D0000001D1602084005002063
:1016600000000000285805080900000000000000E4
:101670003405002004000000D057050803000000D6
:10168000513902082805002000000000F452050826
:101690000100000000000000000000000000000049
:1016A000000000000E00000000000000000000002C
:1016B0000000000030580508000000000000000095
:1016C0000000000000000000405805080D00000068
:1016D00000000000880500200000000048580508B0
:1016E0000A00000000000000E96300200000000084
:1016F000545805080A00000000000000F1630020B3
:10170000000000005C5805080A000000000000000E
:10171000F96300200000000064580508080000007C
:10172000000000007C050020000000006C58050847
:1017300004000000713B02080000000000000000EF
:10174000F452050801000000000000000000000045
:1017500000000000000000000E000000000000007B
:10176000000000000000000078580508000000009C
:101770000000000000000000000000008C58050878
:101780000D00000000000000A00500200000000087
:101790009C5805080400000089370208000000007A
:1017A00000000000A45805080D0000000000000023
:1017B0009405002000000000B8580508040000004F
:1017C000653702080000000000000000F452050820
:1017D0000100000000000000000000000000000008
:1017E000000000000E0000000000000000000000EB
:1017F00000000000C05805080000000000000000C4
:101800000000000000000000D45805080800000097
:1018100000000000E805002000000000E058050876
:101820000800000000000000DC05002000000000AF
:10183000EC5805080800000000000000D00500205A
:1018400000000000F8580508080000000000000033
:10185000C40500200000000004590508080000002D
:1018600000000000B8050020000000001059050825
:101870000800000000000000AC050020000000008F
:10188000F452050801000000000000000000000004
:1018900000000000000000000E000000000000003A
:1018A00000000000000000001C59050800000000B6
:1018B000000000006B03002000000000285905080C
:1018C0000B000000000000007C060020000000006B
:1018D000345905080B0000000000000070060020CD
:1018E00000000000405905080B0000000000000047
:1018F00064060020000000004C5905080B000000A1
:10190000000000005806002000000000585905089B
:101910000B000000000000004C060020000000004A
:10192000645905080B00000000000000400600207C
:1019300000000000705905080B00000000000000C6
:1019400034060020000000007C5905080B00000050
:10195000000000002806002000000000885905084B
:101960000B000000000000001C060020000000002A
:10197000945905080700000000000000140600202C
:10198000000000009C59050807000000000000004E
:101990000C06002000000000A85905080B000000FC
:1019A000000000000006002000000000B4590508F7
:1019B0000800000000000000F40500200000000006
:1019C000F4520508010000000000000000000000C3
:1019D00000000000000000000E00000000000000F9
:1019E0000000000000000000C059050800000000D1
:1019F000000000000000000000000000D4590508AD
:101A00000800000000000000AC06002000000000FC
:101A1000E05905080800000000000000A0060020B2
:101A200000000000EC59050808000000000000005C
:101A30009406002000000000F85905080800000086
:101A4000000000008806002000000000F452050895
:101A50000100000000000000000000000000000085
:101A6000000000000E000000000000000000000068
:101A700000000000005A05080000000000000000FF
:101A80006803002000000000105A0508080000004C
:101A900000000000F4060020000000001C5A0508A9
:101AA0000B00000000000000E8060020000000001D
:101AB000285A05080700000000000000E00600208A
:101AC00000000000345A0508070000000000000074
:101AD000D806002000000000405A0508070000005A
:101AE00000000000D0060020000000004C5A05084D
:101AF0000800000000000000C406002000000000F4
:101B0000545A05080800000000000000B806002034
:101B100000000000F4520508010000000000000071
:101B20000000000000000000000000000E000000A7
:101B30000000000000000000000000005C5A0508E2
:101B4000000000000000000068030020000000000A
:101B5000685A050807000000000000004007002048
:101B600000000000705A0508070000000000000097
:101B70003807002000000000785A05080700000020
:101B80000000000030070020000000002C4905087C
:101B900007000000000000002807002000000000EF
:101BA000344905080700000000000000200700205D
:101BB000000000003C49050807000000000000008C
:101BC0001807002000000000805A050807000000E8
:101BD000000000001007002000000000885A0508DF
:101BE00007000000000000000807002000000000BF
:101BF000905A0508070000000000000000070020C0
:101C000000000000F4520508010000000000000080
:101C10000000000000000000000000000E000000B6
:101C200000000000000000000000000000000000B4
:101C3000611A020848070020DD5F00202A0000002A
:101C400060100508DC5F002000C80100DA5F00209A
:101C5000E803D007010000004D4154454B463430A5
:101C600035000000795F002000030100785F00204C
:101C700000030100A91902088119020824080020A4
:101C80003D190208F11802089C080020E919020811
:101C9000D1190208500900205D1802081118020825
:101CA0005C0C0020771A020835370208380D002036
:101CB0005D16020800000000880D00204D3B020860
:101CC000F91C0208640E00209D1A020800000000A2
:101CD000180F0020451B0208111B0208A40F00204A
:101CE000D51B0208211C0208581000202461002086
:101CF00001060100DD1A0208B11A0208981100203D
:101D0000791B0208AD37020824120020511C02087A
:101D100009380208EC1200201861002001030100BC
:101D2000985A0508000000000000000000000000B4
:101D300000000000A45A0508080000000000000090
:101D4000FC13002000000000AC5A0508070000004A
:101D500000000000F413002000000000BC5A050839
:101D60000D00000000000000E8130020000000004B
:101D7000C85A05080300000051390208DC1300208E
:101D800000000000F45205080100000000000000FF
:101D90000000000000000000000000000E00000035
:101DA000000000000000000000000000D05A0508FC
:101DB0000000000000000000000000000000000023
:101DC000E05A05080A00000000000000E85A050873
:101DD00000000000F05A05080A00000000000000A2
:101DE0005648050800000000F85A05080A000000DF
:101DF00000000000AE61002000000000005B05084C
:101E00000A0000000000000008140020000000008C
:101E1000F45205080100000000000000000000006E
:101E200000000000000000000E00000000000000A4
:101E30000000000000000000085B05080000000032
:101E4000000000000000000000000000145B050816
:101E500003000000513902083C140020000000007B
:101E6000205B0508030000005139020830140020EF
:101E700000000000285B050803000000513902083B
:101E80002414002000000000305B0508050000005D
:101E900000000000775F002000000000385B0508AC
:101EA00007000000000000001C14002000000000DB
:101EB000445B050807000000000000001414002027
:101EC00000000000F45205080100000000000000BE
:101ED0000000000000000000000000000E000000F4
:101EE000000000000000000000000000505B05083A
:101EF00000000000000000000000000000000000E2
:101F0000645B050803000000513902086C140020CE
:101F100000000000705B0508030000005139020852
:101F20009001002000000000785B0508030000001D
:101F3000513902086014002000000000805B050891
:101F40000300000051390208541400200000000072
:101F500014570508030000005139020848140020F6
:101F600000000000F452050801000000000000001D
:101F70000000000000000000000000000E00000053
:101F80000000000000000000000000008C5B05085D
:101F90000000000000000000000000000000000041
:101FA000985B05080700000059380208C814002093
:101FB00000000000385705080300000051390208EE
:101FC000BC14002000000000A45B05080300000012
:101FD00051390208B014002000000000AC5B050875
:101FE0000300000051390208A41400200000000082
:101FF000B45B0508070000003D3802089C1400206F
:1020000000000000C0480508030000005139020824
:102010009014002000000000C05B050803000000D1
:10202000513902088414002000000000CC5B050830
:10203000030000005139020878140020000000005D
:10204000F45205080100000000000000000000003C
:1020500000000000000000000E0000000000000072
:102060000000000000000000311A0208011A0208F6
:10207000D0140020C51C0208000000005C150020E0
:10208000CD180208A9180208E81500200000000079
:10209000000000009C1600209D1C020875380208F4
:1020A0003C170020D85B050800000000000000007D
:1020B0000000000000000000E45B050803000000D1
:1020C000513902084818002000000000EC5B0508A8
:1020D00003000000513902083C18002000000000F5
:1020E000F85B050803000000513902083018002091
:1020F00000000000FC5B05080300000051390208E5
:102100002418002000000000085C050803000000FF
:10211000513902081818002000000000105C050862
:1021200002000000053C0208000000000000000062
:10213000185C050802000000053C020801000000D0
:1021400000000000245C050802000000053C0208B5
:102150000200000000000000000000000E0000006F
:10216000000000000000000000000000565F00209A
:1021700088136F1701000000585F002088136F1745
:1021800000000000305C05080000000000000000B6
:102190000000000000000000405C0508080000008E
:1021A0000000000028190020040000004C5C050815
:1021B00008000000000000001C19002000000000C2
:1021C000D05705080400000039350208000000005F
:1021D00000000000F45205080100000000000000AB
:1021E0000000000000000000000000000E000000E1
:1021F000000000000000000000000000545F00200C
:1022000088136F17010000006EA4002088136F1759
:1022100000000000A117020800000000341900208F
:1022200089630020010000000C11050870A4002043
:10223000010000001811050866A40020020000003B
:10224000201105087EA20020000000000000000010
:102250007CA2002000000000000000007AA2002004
:10226000000000000000000078A200200000000034
:102270000000000076A20020000000000000000026
:1022800074A200200000000000000000FC240020D8
:102290000000000000000000535F0020020000006A
:1022A0002C110508885C05080000000000000000F3
:1022B0000000000000000000405C0508080000006D
:1022C00000000000B8190020040000004C5C050864
:1022D0000800000000000000AC1900200000000011
:1022E000D057050804000000711702080000000024
:1022F00000000000F452050801000000000000008A
:102300000000000000000000000000000E000000BF
:10231000000000000000000000000000985C0508BC
:1023200000000000000000000000000000000000AD
:10233000A85C05080D00000089360208E819002095
:1023400004000000B45C05080D000000C917020875
:10235000DC19002004000000C05C05080D0000002E
:102360004D360208D019002000000000CC5C0508A2
:102370000300000025230208C41900200800000003
:10238000D85C05080300000051390208EC1C00204D
:1023900000000000F45205080100000000000000E9
:1023A0000000000000000000000000000E0000001F
:1023B000000000000000000000000000EC520508D2
:1023C000000000000000000000000000000000000D
:1023D000954C05080400000051350208000000007B
:1023E00000000000F4520508010000000000000099
:1023F0000000000000000000000000000E000000CF
:102400000000000000000000000000002C5D050836
:1024100000000000000000000000000000000000BC
:10242000907605080D00000000000000481A00200A
:10243000040000003C5D05080800000000000000EA
:102440003C1A002004000000485D05080800000058
:1024500000000000301A002004000000505D050854
:102460000800000000000000241A00200400000002
:10247000585D05080800000000000000181A002040
:1024800004000000605D0508080000000000000076
:102490000C1A002004000000685D05080800000018
:1024A00000000000001A002004000000705D050814
:1024B0000800000000000000F419002004000000E3
:1024C000F4520508010000000000000000000000B8
:1024D00000000000000000000E00000000000000EE
:1024E0000000000000000000891702080000000042
:1024F000541A00200000000000000000CC1A002048
:1025000000000000000000006C1B00206CA40020F4
:1025100004000000381105086AA40020E0150C171B
:102520000000000069A4002008000000583B0508D6
:1025300068A40020050000004C1105080000000000
:1025400000000000BC1B002001000000000001FF93
:10255000FF0100000000803FFF1FFF1F34860020A6
:1025600000000000A0220020040000001463050801
:10257000BC620508000000003D070108A0860100BC
:102580000400000000000000000000000000000047
:10259000000000000000000000000000000000003B
:1025A000146305081C6305080000000029AA01083F
:1025B000E80300000400000000000000000000002C
:1025C000000000000000000000000000000000000B
:1025D00000000000385705082463050800000000CB
:1025E000650E01087D0000000600000000000000EC
:1025F00000000000000000000000000000000000DB
:1026000000000000000000002C630508000000002E
:102610000000000001CF0108E803000003000000F3
:1026200000000000000000000000000000000000AA
:1026300000000000000000000000000030630508FA
:102640000000000000000000416E04081027000098
:102650000300000000000000000000000000000077
:10266000000000000000000000000000000000006A
:102670000C5F050800000000A1190308A59B0108D4
:102680005F76000005000000000000000000000070
:10269000000000000000000000000000000000003A
:1026A0000000000014920508000000000000000077
:1026B000A10C02081027000001000000000000002B
:1026C000000000000000000000000000000000000A
:1026D00000000000000000003C630508000000004E
:1026E000000000007D960108E803000005000000DE
:1026F00000000000000000000000000000000000DA
:102700000000000000000000000000004863050811
:102710000000000000000000ED840108204E0000D1
:1027200003000000000000000000000000000000A6
:102730000000000000000000000000000000000099
:10274000586305080000000000000000D98201085D
:10275000204E000003000000000000000000000008
:102760000000000000000000000000000000000069
:102770000000000068630508000000000000000081
:10278000B9A70108400D030003000000000000008D
:102790000000000000000000000000000000000039
:1027A0000000000000000000786305080000000041
:1027B0000000000009870308102700000100000046
:1027C0000000000000000000000000000000000009
:1027D000000000000000000000000000085F050885
:1027E000000000000000000069DC02081027000063
:1027F00003000000000000000000000000000000D6
:1028000000000000000000000000000000000000C8
:1028100080630508000000000000000091890208A4
:10282000A086010001000000000000000000000080
:102830000000000000000000000000000000000098
:102840000000000088630508000000000000000090
:10285000D19A010850C300000100000000000000F0
:102860000000000000000000000000000000000068
:1028700000000000000000000C54050800000000EB
:102880000000000061980108A8610000010000003C
:102890000000000000000000000000000000000038
:1028A0000000000000000000000000009063050828
:1028B0000000000000000000E9570208A0860100A7
:1028C0000100000000000000000000000000000007
:1028D00000000000000000000000000000000000F8
:1028E0009C6305080000000000000000D1DB010827
:1028F000A00F000001000000000000000000000028
:1029000000000000000000000000000000000000C7
:1029100000000000A863050800000000000000009F
:1029200089A5020810270000010000000000000037
:102930000000000000000000000000000000000097
:102940000000000000000000F85B05080000000027
:1029500000000000F5FA02081A4100000100000022
:102960000000000000000000000000000000000067
:10297000000000000000000000000000CC5305082B
:102980000000000000000000E98D02081027000090
:102990000100000000000000000000000000000036
:1029A0000000000000000000000000000000000027
:1029B000D06205080000000000000000295C020849
:1029C0001A410000010000000000000000000000AB
:1029D00000000000000000000000000000000000F7
:1029E00000000000B46305080000000000000000C3
:1029F000C1B40208400D0300000000000000000008
:102A000000000000000000000000000000000000C6
:102A10000000000000000000BC630508000000008A
:102A2000000000001B7E0308400D030000000000B2
:102A30000000000000000000000000000000000096
:102A4000000000000000000000000000C463050852
:102A5000000000000000000001EA020850C300006E
:102A60000300000000000000000000000000000063
:102A70000000000000000000000000000000000056
:102A8000D063050800000000000000004D8201082E
:102A900040420F00000000000000000000000000A5
:102AA0000000000000000000000000000000000026
:102AB00000000000DC6305080000000000000000CA
:102AC0003D7F030850C3000000000000000000002C
:102AD00000000000000000000000000000000000F6
:102AE000000000000000000001000000FFFFFFFFE9
:102AF000000200051002700BD6010000CD0E030885
:102B0000000000000000000001FFFF00FFFFFFFFCA
:102B100065C9030851C80308A9FA030800000000AA
:102B2000CDC3030861F60308A1C70308D9F503085C
:102B3000000000000000000089C3030849C2030828
:102B40003DC203080DEC030829EC0308F1EB030870
:102B5000D5EB0308B9EB03081DC903082DC803080A
:102B6000E9F9030800000000A1C30308DDF503082C
:102B700075C7030839F503080000000000000000D5
:102B800095C303080403090412010002EF02014087
:102B90008304563200020102030100001201000208
:102BA00002020040830440570002010203010000BA
:102BB00009022000010104C03209040000020806D5
:102BC0005005070581024000000705010240000092
:102BD00009026400030100C032090400000103007F
:102BE00000000921110100012226000705830308C6
:102BF000000A080B0102020201000904010001029F
:102C00000201000524001001052401000204240231
:102C1000020524060102070582030800FF090402D9
:102C200000020A00000007050102400000070581BC
:102C30000240000009024300020100C03209040002
:102C40000001020201000524001001052401000119
:102C5000042402020524060001070582030800FF80
:102C600009040100020A00000007050102400000FB
:102C70000705810240000000FF00000000FFFF0088
:102C800000000000AA55050100000000050109052B
:102C9000A101A100050109300931093209330935C3
:102CA0000934094009381581257F75089508810286
:102CB000C0C0000009022200010100E03209040046
:102CC0000001030102000921110100012226000771
:102CD00005830308000A000000000000010203044D
:102CE000010203040607080971F7030875F60308D3
:102CF000CDFA030809C4030881C9030819C40308ED
:102D000035C40308E1C30308D1C303080000000071
:102D1000000000002D202D2D202D2D2D2D202D2DBE
:102D20002D2D000000000000000000000000000049
:102D3000000000AA550B010000AA5507010000AAD7
:102D4000550902000000000001000000C012AA5551
:102D500003009F000800000039C2030835C20308C1
:102D600031C2030825C2030821C203082DC203088B
:102D700029C2030800600240106002400000000009
:102D800000000000000B0000000000000000000038
:102D900000000000006002402860024001000000C6
:102DA00000000000060C0000000000000000000011
:102DB000000000000060024040600240020000008D
:102DC00000000000100D00000000000000000000E6
:102DD0000000000000600240586002400300000054
:102DE00000000000160E00000000000000000000BF
:102DF000000000000060024070600240040000001B
:102E000000000000200F0000000000000000000093
:102E100000000000006002408860024005000000E1
:102E2000000000002610000000000000000000006C
:102E30000000000000600240A060024006000000A8
:102E40000000000030110000000000000000000041
:102E50000000000000600240B8600240070000006F
:102E600000000000362F00000000000000000000FD
:102E700000000000006402401064024000000000F6
:102E8000000000000038000000000000000000000A
:102E900000000000006402402864024001000000BD
:102EA00000000000063900000000000000000000E3
:102EB0000000000000640240406402400200000084
:102EC00000000000103A00000000000000000000B8
:102ED000000000000064024058640240030000004B
:102EE00000000000163B0000000000000000000091
:102EF0000000000000640240706402400400000012
:102F000000000000203C0000000000000000000065
:102F100000000000006402408864024005000000D8
:102F20000000000026440000000000000000000037
:102F30000000000000640240A0640240060000009F
:102F4000000000003045000000000000000000000C
:102F50000000000000640240B86402400700000066
:102F600000000000364600000000000000000000E5
:102F700000000000010000000000803F0000000091
:102F800000000000000000000000803F0000000082
:102F90000000000000000000000000000000000031
:102FA0000000000000000000000000000000000021
:102FB000010000000000803F000000000000000051
:102FC000000000000000803F01000000802700207A
:102FD00000000000000000000000000000000000F1
:102FE00000000000000000000000000000000000E1
:102FF00000000000000000000000000000000000D1
:1030000000000000000000000000000000000000C0
:1030100000000000000000000000000000000000B0
:1030200000000000000000000000000000000000A0
:1080000003685A1C02601970704700BF2DE9F047E1
:10801000089C2578002B804689460CBF4FF0200A2B
:108020004FF0300A661C25B3002A26DD334601E0F6
:10803000024698B113F8011B501E0029F8D1971E73
:1080400060B13D46013D51464046C8476B1C002B80
:10805000F8DC257827EAE770013045B1041B294692
:108060004046C847301916F8015B002DF7D1BDE82E
:10807000F087002A03DC2846F9E70020EEE7571EC8
:10808000DFE700BF2DE9F04714461D4606464FF4D2
:108090007A7200232046294645F00AFD4D4BDFF851
:1080A00048814D4A4D4F034488FB03101844D917AB
:1080B00082FB032CC1EB601088FB002887FB0327A1
:1080C0009C44474AC1EBEC2CC0EB001E82FB0C2900
:1080D000A3EB8E0E1F44434A86F806E0C1EB274708
:1080E0004FEAEC7E08EB000ACEEBA90E82FB07827A
:1080F0004FEAE0780EEB4E0EC8EB6A18ACEBCE0CF4
:10810000C8EB0818DFF8E4E086F804C0A0EB8800AC
:1081100070718EFB0303F817C0EBE21240F2B5500A
:1081200000FB1272C1EBE353B2F5896F4FEA83078C
:108130003CDA40F2DA239A4242DCB2F5B77FB4BFB0
:108140004FF0000E4FF0010E4FEA4E09DFF8A0800D
:1081500009EB0E0308EBC3031FFA8EFCD88A09EB68
:108160000E0108EBC10116310B2301E031F8020DBD
:10817000904218DD013BF9D1CE44012338F83E008E
:10818000B37007F5FA670132121ABC44F270A6F810
:1081900000C0204629464FF47A72002345F088FC3F
:1081A0003281BDE8F0870133DBB2E9E74FF0030C21
:1081B000E64640F29650DFF838804FF00609CEE7E9
:1081C0004FF0020CDFF82880E64640F229404FF0DD
:1081D0000409C4E780BC92C7C5B3A29107452EC26B
:1081E000ABAAAA2A73B06D1689888888792D0311E5
:1081F00038F8040830B403888278C478154DA3F5A4
:10820000FA6303F0030101EB4101013A02EB810241
:108210009B0835F812500279611E40F2B55404FBF8
:1082200003132B4403EB430302EBC303427984792A
:1082300009490089C3EB031302EB83032144C3EB19
:10824000031301EB83034FF47A720021C2FB030195
:1082500030BC704738F8040880436D380028F0B40B
:1082600003DA2D230B7040420131092804464FF0F8
:10827000010307DD03EB83035B00B0FBF3F2092A84
:10828000F8D883B10F48A0FB0326B4FBF3F2092A08
:1082900002F1570C02F1300709DD03FB1244F30829
:1082A00001F801CBEFD100230B70F0BC704703FB4A
:1082B0001244F30801F8017BE5D100230B70F0BCF8
:1082C000704700BFCDCCCCCC884270B44FF00104D5
:1082D00042D301FB04F4B0FBF4F58D42F9D2ECB1CA
:1082E00042BB092D04FB150005F1570605F13002CC
:1082F0000EDDB4FBF1F403F8016B7CB1B0FBF4F5D7
:10830000092D04FB150005F1570605F13002F0DCDC
:10831000B4FBF1F403F8012B002CEFD100221A700A
:1083200070BC704703F8016BB4FBF1F4002CF5D07E
:10833000B0FBF4F5092D04FB150005F1370605F136
:108340003002EFDCB4FBF1F403F8012B002CEFD189
:1083500000221A7070BC70470546002AEAD1C0E7B7
:1083600090ED057A90ED004AD0ED066AD0ED014A15
:10837000D0ED047A90ED035AD0ED025AA4EE007AC3
:10838000B0EE406AB0EE470AB0EE667AA4EE867AA6
:1083900067EEC07AA5EE407AE5EE867A80ED057A42
:1083A000C0ED067A704700BFD0ED057A90ED013A36
:1083B000D0ED003AD0ED064A90ED024A90ED077AF2
:1083C00090ED035A90ED086AD0ED045AC0ED067A9C
:1083D000F0EE406A27EE830AC0ED056AA3EEA60A16
:1083E00080ED087AA4EE240AA5EE470AA5EEC60A97
:1083F00080ED070A704700BFD0ED007A90ED017A5A
:1084000030EE670AE7EE007AB0EE670AC0ED007A58
:10841000704700BF704700BF04224FF47A730270A8
:1084200043607047F0B400250E4E00F1FF3C2F462C
:10843000322165B103788B420BD003460CEB050467
:1084400003E013F8012F8A4203D0A342F9D1C155AA
:10845000013701350B2D02D016F8011FE9E7F0BCFA
:10846000704700BF98F804080C4AF0B4002302F1EA
:10847000080717261625152403EB4303C118BA4233
:10848000C4544D708E7006D092F9043054799579A9
:10849000D6790432F0E7F0BC704700BFA4F80408B6
:1084A00001212A220223017042708370704700BFAD
:1084B000012310B434213524212244704171C2704B
:1084C00003720370037183705DF8044B704700BF43
:1084D00030B41D6995420AD314460A4621448D42A0
:1084E000996938BF2A1B214430BC45F043BD30BCDC
:1084F000704700BF00207047002070470120704780
:108500000120704700207047002070474FF4007032
:10851000024B10609B680B6000207047D0BD0020AC
:1085200003484FF40073806A0860002013607047AE
:108530005CBD0020013A30B4D2B28C1C04EB420482
:108540000025020F092AD3B203F130028ABF373364
:108550000A700B704D7002318C424FEA0010F0D15E
:1085600030BC70470B4A0C4B10681B681A22C018AD
:108570000A8001D10948704710B5094B09491C68A8
:108580000822FFF7D7FF204604220749FFF7D2FF52
:10859000024810BDE8F7FF1FECF7FF1F00000020A6
:1085A000EAF7FF1F020000201200002004230B80C6
:1085B000004870471C00002012230B8000487047C1
:1085C000200000203022032302704370704700BF58
:1085D00008307047704700BF816170476D4B2DE9CF
:1085E000F04F1C686C4BB3F80AE0B3F804809A892A
:1085F0004FEA0E2AB4EB0A044FEA1E6B4FF0000557
:1086000087B065EB0B05CDE900450746009C18894E
:10861000019EA0FB044500FB0655E00940EA4560C9
:108620004FEA08448C46E9114FEA184510EB04085C
:10863000D888009C41EB0509CDE90489A0FB0445DD
:10864000B3F8028000FB0655200A40EA05604FEAB5
:10865000C83429124FEA584510EB040841EB0509CC
:108660000099A2FB010102FB06114FEAD05A4AEA27
:10867000412A1AF5FA634FEAE15B4BF10004B3F5C6
:10868000FA6FCDE9023474F10003424E64DA052436
:10869000AAFB040104FB0B1100FB0BF40AFB0144D1
:1086A000DDE90423A0FB0A0121444D104FEA300408
:1086B000121B4FEA900463EB050344EA8174B8EBA4
:1086C0000408CDE90423DDE9023434484FEAA1056A
:1086D00069EB05094FF0FF31834274EB010326DAA1
:1086E00040F6AC501AEB00024FF000014BEB0103D7
:1086F00002FB03F1A2FB022303EB4103D400DD00E4
:10870000101B45EA527563EB0501DDE904452418A9
:108710004D41CDE904450B24A2FB040104FB0311E8
:1087200049104FEA3000B8EB000869EB0109DDE9B8
:1087300000325343009ADDE90201A2FB02AB0BEBCE
:10874000430B4FEADA7242EA4B02801A4FEAEB73AC
:1087500061EB0301CDE9020197B17168A1FB082328
:1087600001FB0933540D5D1544EAC324DDE90423FC
:10877000A21A65EB03031D46D30B43EA45433B6056
:10878000BCF1000F02D0029BCCF8003007B0BDE86E
:10879000F08F00BFE02700205867002024FAFFFF79
:1087A0002DE9F04FDFF8DCC1754CDCF80850228869
:1087B000B4F90AA0C2EB25135200C2EBE502B4F9EA
:1087C00002505B436A43B4F904501B135D43AD137D
:1087D00005EBE225B5F5FA324FEAE57B85B04BF1C2
:1087E000FF33CDE90023DDE900325343009AA56150
:1087F000A2FB0289CDE90201B4F908200199009891
:1088000009EB43095143D31700FB0311A2FB0023DB
:108810000B444FEAEA7B0AFB09F11F0308FB0B1329
:10882000AAFB080119444FEA102A4AEA016A160312
:108830004FEA212B47EA12571AEB0602E6884BEB68
:10884000070312F1000A43F5004BAAFB060106FBE1
:108850000B114A10CB1752EA030100F08E80B4F9D5
:108860001060009806FB09F1F71708FB0711A6FB3B
:1088700008673944B4F90E808B4601994FEAE879CC
:1088800008FB01F100FB0911A8FB00898944DCF811
:108890000C104FEA4947C1F5801C47EAD837B24669
:1088A0004FEA4846B4F90C801AEB060A66464BEBD1
:1088B000070BF7174FEAC806019600260096F9073E
:1088C000DDE900674FEACC7016EB0A0647EB0B07B1
:1088D00041EA5C01801B61EB070140F6354C89469B
:1088E000A0FB0C010CFB091145F0E2F8B4F91620CD
:1088F000B4F914A04E13470B47EAC14702FB06FC2C
:10890000D31707FB03CCA2FB07236344564307FBA3
:108910000366A2FB07233344560E46EAC3163218F9
:108920004FEA636747EB010380460AFB01F14FEA18
:10893000EA7B08FB0B17AAFB08013944C60C46EA80
:10894000413612EB06084FEAE147B4F9122043EB37
:1089500007094FEA182141EA096113010B44029A01
:108960000AB11B0A1360039B23B105EB8505803513
:108970002D121D6005B0BDE8F08F0023EFE700BFAA
:108980006C670020E0270020704770472DE9F04118
:10899000334B344E1A8A7489B6F91450B6F90480F0
:1089A000B6F90E70B6F920C05B69121B34895443C6
:1089B000E213B6F912401544E40294FBF5F4B6F95B
:1089C00002501444A4F57A6E0EFB0EF20EFB05F570
:1089D0000EFB08FEB6F90C80F4611213574302FB3C
:1089E00008F2121402EB6E32ED1205EBE7270232A9
:1089F000B6F90050B6F806E0921002F5004207EB17
:108A000085070EFB02F207FA0CF74FEAD23E023757
:108A10004CF25032A3EBA70742FA0CF37B4355BF4D
:108A20005B00B3FBFEF3B3FBFEF35B0078B11A12FD
:108A300002FB02F540F6DE326A430B4D12145D4331
:108A400002EB254202F6CF6203EB2213036021B151
:108A50000A235C43083424110C60BDE8F08100BF98
:108A6000E02700203467002043E3FFFF4FF400635A
:108A7000838270474FF4006383827047012380F83C
:108A8000543070474FF4006383827047F0B4037C26
:108A9000456902681F2B37D9203B20215468994033
:108AA0000C4223D010249C40D160D4605168D9403E
:108AB000CE074ED4EFF31183502282F31288EA6B73
:108AC0001168C90709D45468002C52D1D5E909614D
:108AD0008E4243D1012285F86020DBB283F31188F6
:108AE000037C02681F2B194614D9203B08215068CB
:108AF0009940084200D0D1600421506801FA03F384
:108B0000184223D1F0BC7047202416689C402642AE
:108B10000FD11946082310688B40184200D093608B
:108B20000423106803FA01F10842EBD09160F0BC15
:108B3000704710219940946091601168D940CC072A
:108B4000B8D5012101FA03F39360B3E7D360F0BC19
:108B50007047012101FA03F3D360ABE7AF690F441B
:108B6000D7600ED82E69711A5160AC62002185F869
:108B70006010116841F00101DBB2116083F31188CC
:108B8000AEE7711A5160AE62F0E700BF70B4037CCB
:108B900001681F2B26D9A3F1200520224C68AA408A
:108BA000224214BF01220022D2B142691B481C4C50
:108BB00002EB420200EB4212257854682068CDB9DE
:108BC000E56856892C6824F001042C6082891F2BEB
:108BD00022EA060282811AD8202202FA03F38B606D
:108BE00070BC704720220C689A40224214BF0122B8
:108BF0000022D9E7A469226822F00102226082895A
:108C000022F480721204120C1F2B8281E4D9A3F18A
:108C1000200220239340CB6070BC70478CC600209C
:108C2000F812001070B59D4C2368002B40F00581B0
:108C30009B4B1A78002A68D09A4B19789A4B0029D6
:108C400064D11868B3F82C5141628489012A44EA3E
:108C500005048481A3F82C1157D0D3F83001B3F860
:108C60005C5241628489022A44EA05048481A3F8A3
:108C70005C124AD0D3F86002B3F88C534162848905
:108C8000032A44EA05048481A3F88C133DD0D3F869
:108C90009003B3F8BC5441628489042A44EA050471
:108CA0008481A3F8BC1430D0D3F8C004B3F8EC55D9
:108CB00041628489052A44EA05048481A3F8EC15FD
:108CC00023D0D3F8F005B3F81C5741628489062AF3
:108CD00044EA05048481A3F81C1716D0D3F82007B2
:108CE000B3F84C5841628489072A44EA0504848118
:108CF000A3F84C1809D0D3F85028B3F87C49516236
:108D0000908920439081A3F87C1970BD5C68198913
:108D100061602568186845F0010540F20D31256055
:108D2000A0F848108489012A44F480748481ECD02E
:108D3000D3F83441B3F83851D3F830016560256871
:108D400045F001052560A0F848108489022A44F402
:108D500080748481D9D0D3F86442B3F86852D3F8D0
:108D600060026560256845F001052560A0F848109F
:108D70008489032A44F480748481C6D0D3F8944350
:108D8000B3F89853D3F890036560256845F0010562
:108D90002560A0F848108489042A44F480748481F2
:108DA000B3D0D3F8C444B3F8C854D3F8C004656052
:108DB000256845F001052560A0F848108489052A3A
:108DC00044F480748481A0D0D3F8F445B3F8F85506
:108DD000D3F8F0056560256845F001052560A0F829
:108DE00048108489062A44F4807484818DD0D3F895
:108DF0002447B3F82857D3F820076560256845F065
:108E000001052560A0F848108489072A44F480747D
:108E100084813FF47AAFD3F85428B3F85808D3F8D4
:108E200050385060106840F001001060A3F84810FE
:108E30009A8942F480729A8170BD054614F0DCFB79
:108E4000217AA9B16DB1194A002316890133002E88
:108E500018BF0021AB4202F16002F6D100293FF4B5
:108E6000E7AE00F51C501030002320602372DFE6CF
:108E70002368C31A002BFFF648AF637A3BB1013B6E
:108E8000DBB263722BB100F57A702060D0E623600C
:108E9000CEE6636803442360CAE600BF3450002076
:108EA0008CC90020F812001090C900208CC6002048
:108EB00010B5027C01681F2A4FF020030ED94C68C0
:108EC000203A93401C4208D00B4A4068002414709A
:108ED000026822F001020260CB6010BD0C68934072
:108EE0001C42FAD0044A406800241470026822F040
:108EF000010202608B60F0E7056E00202DE9F04171
:108F0000C40023189B00B749CA585268958AADB26D
:108F1000EFB2FE070B4461D4BE0737D5BFF35F8FB6
:108F20001D7EEDB2012D00F0BB80AF4E138BBFF361
:108F30005F8F231801EB83031D7E022D00F0CE808E
:108F4000231801EB83031D7E032D05D19B7E1BB1EE
:108F5000737E002B40F01A81938896F918C043F471
:108F600080639380231801EB83031B7E01336345E9
:108F70000AD1B37E00257576002B40F08A8020440C
:108F800001EB800000234375BDE8F081964E17F099
:108F9000040F96F918C04DD117F0400700F0B280C9
:108FA000178A1D6AFFB205F80C705FFA8CF56F1C0A
:108FB00093F818E07BB2DF1CBE4533769C4600F088
:108FC0000981271801EB87073F7EBB42CAD105F113
:108FD000020C4FFA8CFC86F818C0C3E71588824E45
:108FE00025F400652D042D0C1580158845F4806549
:108FF00015809D7E00273776002D3DD0757E002D93
:1090000037D0231801EB830301251B7E7576022BD5
:1090100003D1138843F400631380231801EB830307
:109020009B7D43F001031382204401EB8000037E0B
:10903000BDE8F0819F7E757E4FF0010E86F81AE044
:10904000002F5CD0002D78D1231801EB83035B7EC9
:10905000002B00F0A48013880CF1010C4FFA8CFC5B
:1090600043F4007386F818C013801388DF05FCD41E
:1090700078E7DB7DFF2BC4D0231801EB83039D7DB4
:1090800005F0FE051582DB7DFF2BCDD0FF23337667
:10909000CAE7938823F440731B041B0C93806EE78C
:1090A0009B7E514E002B3FF441AF737E002B3FF46B
:1090B0003DAF138823F480631B041B0C1380BFF3A4
:1090C0005F8F138B1388B57643F4007313809388F6
:1090D00096F918C043F48063938043E79B7E002B8E
:1090E0003FF42EAF737E002B3FF42AAF138896F91E
:1090F00018C023F480631B041B0C138016E0002DA2
:10910000A2D0A8E72D067FF52DAFBCF1FF3F6DD0B3
:10911000DD6915F80C5015820CF1010C1D7E4FFA1B
:109120008CF39D429C4633767FF41CAF938823F4E6
:1091300080631B041B0C938014E71F7ED3F82080F0
:109140005FFA8CF5AE44022F4FFA8EFE17882DD9A8
:1091500027F480673F043F0C1780178AFFB208F896
:109160000C701788D3F820C047F400731380138A5B
:10917000DBB20CF80E30938805F1020C4FFA8CFC30
:1091800043F4806386F818C093806EE7938896F95D
:1091900018C023F480631B041B0C9380E2E6138841
:1091A000012543F48073138075765EE747F40077FA
:1091B0001780178AFFB208F80C70178AD3F820803E
:1091C00005F1030C4FFA8CFCFBB286F818C008F8C6
:1091D0000E304AE7978827F480673F043F0C97805A
:1091E000EFE600BFE0560020E0270020DD7D15827D
:1091F0009D7E37761DB91B7E002B7FF415AF9388BB
:1092000023F480631B041B0C93800DE7014B18684B
:1092100014F0DABCB85C002038B51D4B1B7804464E
:1092200000F1250593B104221A49203046F0D4FA02
:1092300028461422184946F0CFFA012384F83A3020
:10924000164B1B7873B984F83B3038BD284614227E
:10925000134946F0C1FA012384F83A300F4B1B78CA
:10926000002BF0D00F4B186859689A68DD68E560EC
:1092700020606160A260DD69186959699A69A2611C
:109280000123E5612061616184F83B3038BD00BF96
:10929000AD8B0020AE8B0020B38B00208C8B002088
:1092A000E04605088D8B002010B4272126240122DA
:1092B0000023047041708270C3705DF8044B7047E6
:1092C0002DE9F84FDDE90A6489461746002120227E
:1092D0009846054646F042FA5EB1D6E900327189F9
:1092E000EB81C3F30F432B82C2F30F43EA822B833C
:1092F0006982484643F0F0FE17F0100B10D1431E70
:1093000070B119F803202E2A18BF09EB030104D10C
:109310004AE011F8016D2E2E3ED013F1FF33F8D242
:1093200008280246CA46A8BF08224FF0000B4FF09B
:1093300020336B602B60C5F807304946284605F19D
:10934000080644F017FE5A465146304644F012FED5
:109350006B1EE81D13F8012FA2F1610119299CBFB2
:10936000203A1A708342F5D105F10B0116F8013B42
:10937000A3F16102192A9CBF203B06F8013CB142CF
:10938000F4D11823C8F30F42EF722B73A5F81A809B
:10939000AA82EC61BDE8F88FC01A00F1FF3BBBF177
:1093A000030FA8BF4FF0030B082B03F1010AA8BF5E
:1093B0000823CA441A46BAE738B52C22002146F0E1
:1093C000CDF90346642140F2DC5240F202401974A8
:1093D0005A821321202240F21A4540F26C741883FD
:1093E00099760E2002211A7701229D82DC8240F2BA
:1093F000753540F6430483F82200197283F82A1069
:109400009A7383F82920DD831C8419460248BDE83D
:1094100038402BF0B3BF00BFEC46050810B5002163
:109420000446012013F0D8F8207010BD38B5002490
:109430000472451EE1B2022013F0CEF80134082C6C
:1094400005F8010FF6D138BD2DE9F04F002087B0A7
:109450000C461D460121924617F0E6FA002D63D016
:1094600005EB0A03DFF8D094DFF8D0B40393554638
:109470001CE0002D00F0C581D9F81430AB4264D057
:10948000D9F81030AB4200F09780D9E90631AB42F1
:1094900052D8A94200F26F81691A204639F064FE61
:1094A000039B01359D4204F500743DD0D9F820603E
:1094B000AE42DED8D9F83080AE1B4FEAD60AD8F8D3
:1094C00030300AF1020A9A4506F0070603D3D8F8AD
:1094D00038309A4509D94146504639F013FE804646
:1094E000002800F04D81C9F8300098F80430002BB6
:1094F00040F0E280D8F82870002F00F0DF81D8F823
:109500003030D8F80C20AAEB030A06EBCA0A43460F
:10951000204602EB4A224FF40071B847039B013505
:109520009D4204F50074C1D10021084617F07CFA71
:10953000002007B0BDE8F08FA942ADD94FF400720A
:109540000021204646F00AF9AAE752226120412371
:10955000002622706270A070722284F8E70184F8FD
:10956000E631D9F82800E3704FF0FF33314684F834
:10957000E42184F8E521C4F8E8014FF4F07284F89E
:10958000EC3184F8ED3184F8EE3184F8EF31201DB0
:1095900046F0E4F855216FF05502C4F8F061C4F8C4
:1095A000F461C4F8F86184F8FC6184F8FD6184F822
:1095B000FE1184F8FF2173E74FF40072002120466A
:1095C00046F0CCF8D44BD54F03CBEB2302222370CB
:1095D0004FF0080C9026F8234FF0580EC4F8030003
:1095E000227484F80DC0C4F8071084F801E0A67056
:1095F0006375D9F81010D9F80830D9F81C602273B7
:10960000591A21624FF0FF3100233F20A1763E21FD
:10961000A273E372E3736374A374E3742375A37595
:10962000E3756376E3766377A377E3772076217734
:1096300084F82C2007CFD9F8187084F82830F61B4E
:1096400084F8293084F82A3084F82B3084F82D30BF
:1096500084F82E3084F82F3084F8313084F832309A
:1096600084F8333080236662C4F8470004F147066B
:1096700084F8403029209423A94F84F846C084F808
:10968000420084F843300E200D234FF0010C84F883
:10969000440084F8453084F830C0716003CF33460D
:1096A0005527AA269A60C4F85200C4F8561084F8C8
:1096B000FE7184F8FF61F3E64FF40072002120464A
:1096C00046F04CF8D8F84030002E61D104F1200764
:1096D000002B77D0D8F8303092491122CDE90066BE
:1096E0002046FFF7EDFDD8F840301A6C04F1400A2F
:1096F000002A79D01B6B8C49CDE9006638461122CF
:10970000FFF7DEFDD8F84460002E3FF4C9AE4FF4F9
:10971000E078CDE904450CE00024CDE900C4FFF772
:10972000CFFDB66CBA46A8F120080EB3B8F11F0FF2
:109730001ED93468356B96F804E011222B46214679
:1097400050460AF1200706F11C0CBEF1000FE3D1D0
:1097500072793369019342F021022B46CDF800C0A3
:10976000FFF7AEFDB66CBA46A8F12008002EDDD199
:10977000DDE9044594E6E91A204639F0F5FC8FE668
:10978000231F04F5FE7243F804BF9A42FBD187E61B
:10979000002BD8F844200CBF01230223C3EB06138F
:1097A000002A3FF47DAE966C013B002E3FF478AE6C
:1097B000013BB66CF9D1002E3FF472AEA2464FF4D5
:1097C0000078A6E7CDE900663346D9F80C100822E8
:1097D0002046FFF775FDD8F84460002E3FF460AED8
:1097E000BA464FF4F07894E7CDE900663346384640
:1097F00011224D49FFF764FDD8F84460002E86D150
:109800004EE64FF400722946204645F0A7FF80221D
:109810000C2384F8BE2184F8C231D9F81000434BE0
:10982000D9F8086084F8B85183FB0032C117C1EB46
:109830002232B2F5806F84F8B95184F8BA5184F8B5
:10984000BB5184F8BC5184F8BD51C4F8C601C4F8BA
:10985000CA6142DBFF2384F8BF3184F8C13184F848
:10986000C031324B711E83FB0132CE17C6EB223260
:10987000B2F5806F29DA2E4B84F8C52183FB0103F2
:109880000B442C48C6EB6313C3EB831680FB0370B9
:10989000891B1844DE17921022F03F020131C6EBFB
:1098A000E0100A43034484F8C42184F8C3315522EC
:1098B000AA2384F8FE2184F8FF31F1E539464FF4FC
:1098C0000072204645F04AFFEAE5FF2384F8C331E1
:1098D00084F8C53184F8C431E9E7154B84F8C12117
:1098E00083FB00730344134FC1EB631387FB031720
:1098F000C3EB831C9110A0EB0C02F818DF1721F0CA
:109900003F010132C7EBE0100A43034484F8C02151
:1099100084F8BF31A5E700BF004705080C470508DC
:109920001C470508F8460508FC46050897554541BB
:109930008320088281808080D0BD0020DEADBEEF14
:1099400008B534F08BFE80F00100404240B208BD03
:1099500070B50C4601211E460846154617F064F8FE
:10996000AEB104EB462601E034F078FE0022214639
:10997000284639F061FA0028F6D134F06FFE00284D
:10998000FBD004F50074B44205F10105EED10021CD
:10999000012017F049F8002070BD00BF70B50C46DB
:1099A00001211E460846154617F03EF896B104EB15
:1099B000462600222146284639F0D6FA0028F8D05B
:1099C00034F04CFE0028FBD004F50074B44205F1DD
:1099D0000105EED10021012017F026F8002070BD0E
:1099E000002108B5084617F01FF839F0F7FA34F0EF
:1099F00035FE0028FBD00121002017F015F80020CB
:109A000008BD00BF10B5044C04480A46214635F095
:109A1000ADF8204610BD00BFFC27002028470508F0
:109A200010B5044C04480A46214635F09FF82046FC
:109A300010BD00BFFC2700203847050810B5044CB6
:109A400004480A46214635F091F8204610BD00BF73
:109A5000FC270020444705080A4608B5054920B1FF
:109A6000054835F083F8034808BD044835F07EF812
:109A7000004808BDFC270020704705085847050826
:109A800070B44E1C0568C2728672AC69A44670BC84
:109A9000604700BF2DE9F041044618460D461646C2
:109AA0001F4643F019FB2844A0722068E67229463D
:109AB00045693B4632462046AC46BDE8F04160472A
:109AC000036810B504461B689847236820469B68C6
:109AD0009847A37B0133A37310BD00BF10B5036883
:109AE00004469B689847FF2301226373227310BDCD
:109AF00038B50D4611F0C0FF044650B136238371CE
:109B0000C571012116F0A4FE2046BDE8384016F0CC
:109B100041BF38BD38B50D4611F0AEFF044650B117
:109B200035238371C571202116F092FE2046BDE8D1
:109B3000384016F02FBF38BD0E4B984214D0A3F515
:109B4000784398420ED003F5806398420ED10222EA
:109B5000094B03EB02135A89013292B25A81588998
:109B600080B270470122F3E70022F1E74FF0FF30A7
:109B7000704700BF00300140A0B40020F8B58489D0
:109B80004FF6FF764FF47A7433B319B30F7801317F
:109B900001E0B44218D00589013CAD07A4B2F8D564
:109BA000BCB284814FF47A7402E0BCB2B4420BD0F0
:109BB0000589ED0704F1FF37F7D58589ADB20AB104
:109BC00015700132013BDFE7FFF7B6FF003018BF29
:109BD0000120F8BDFF27DEE70120F8BD30B5437F47
:109BE00083B004461BB90120637703B030BD052361
:109BF000ADF80430056800BFA86816F0C5FE6A46D7
:109C000001A902236868FFF7B9FFA86816F0C2FE31
:109C100000BF9DF8013003F0010383F0010063777A
:109C200003B030BDF8B5074C05460F46266803E083
:109C300023689B1BBB4204D82846FFF7CFFF0028B0
:109C4000F6D0F8BD1CB50020F0B5077F83B0044600
:109C50004FF0030C0020009016461D468DF80400BE
:109C60008DF800C06FB30B0E8DF801300DF10203BB
:109C7000080C0A0A99701870062120465A70FFF7DE
:109C8000D1FFE0B1236800BF986816F07DFE237F06
:109C90002268002B14BF0523042369465068002264
:109CA000FFF76CFF23683246002158682B46FFF708
:109CB00065FF2368986816F06DFE00BF284603B064
:109CC000F0BD0DF10103D3E72DE9F0418046806836
:109CD00010B1046880886083D8F8040085894FF447
:109CE0007A744FF6FF7613F1FF3320D341B30F7828
:109CF000013101E0B44218D00589013CAD07A4B29E
:109D0000F8D5BCB284814FF47A7402E0BCB2B4429C
:109D10000BD00589ED0704F1FF37F7D58589ADB282
:109D2000002AE0D015700132DDE7FFF705FFD8F813
:109D3000083013B11A689B8813830120BDE8F081B5
:109D4000FF27D9E7F0B5876983B0064617B13B68AE
:109D5000BA885A837069DFF8A8E08389C3244FF476
:109D60007A734FF0060C6D464FF6FF710EF1010E3F
:109D700003E0013B9BB28B4220D002899207F8D5C9
:109D8000A3B283814FF47A7302E0A3B28B4215D061
:109D90000289D20703F1FF34F7D5828992B20DB15F
:109DA0002A700135BCF1000F0BD00CF1FF3CFF24F1
:109DB000BEF1000FE1D09EF80040D7E7FFF7BCFEF0
:109DC000B76917B13B68BA881A839DF805009DF8FA
:109DD00001509DF802109DF803409DF804209DF865
:109DE000063041EA052143EA002342EA0422012029
:109DF000A6F85010A6F85220A6F8543003B0F0BDD3
:109E0000B0F8040808B540F2E93300E0A3B10289D4
:109E1000013B12F0020F9BB2F8D089B2818140F26F
:109E2000E93300E043B10289013B12F0010F9BB21C
:109E3000F8D08089C0B208BDFFF77EFEC0B208BD71
:109E4000427A4AB110B5044604F10A01D0E9003063
:109E500098470023637210BD704700BF437A5A1CB5
:109E60000344D2B242729972037A93420AD84AB139
:109E700010B5044604F10A01D0E9003098470023E8
:109E8000637210BD704700BF48B10123302803FA48
:109E900001F101D0312803D14A0709D100207047D0
:109EA0003228F9D03328F7D0342803D18B07F5D0E6
:109EB000012070473528F9D02028F7D02128F5D087
:109EC0001028E9D01128E7D01228E5D01328E3D0D4
:109ED0001428EBD01528E9D0162804D111F003007E
:109EE00018BF012070471728D8D111F0030018BF00
:109EF00001207047302829D0312829D0322829D094
:109F0000332829D0342829D0352829D020282BD00F
:109F100021282BD0102825D0112829D0122829D06B
:109F2000132829D0142829D0152829D0162805D07F
:109F3000172808BF0F2302D0002070470E23114AB4
:109F400003EB4303134493F8820070470023F6E7C2
:109F50000123F4E70223F2E70323F0E70423EEE70B
:109F60000523ECE70823EAE70623E8E70723E6E70B
:109F70000923E4E70A23E2E70B23E0E70C23DEE70B
:109F80000D23DCE738F80408F8B50468C4F30D04C1
:109F900005460E4604B32F6836F0AEF8092840F0A7
:109FA0008880454C236923F440732361236943F47B
:109FB00000732361236943F0010323613E6036F09F
:109FC0009BF82369092823F00103236171D12B68D1
:109FD00004332B60002035E0384B394A93422BD9AB
:109FE00002F58042934226D902F5804293422AD953
:109FF00002F58042934228D902F58032934226D955
:10A0000002F50032934224D902F50032934222D95C
:10A0100002F50032934220D902F5003293421ED954
:10A0200002F5802293421CD9B3F1016F1BD30520A6
:10A0300012F07CFDFBE7082436F05EF8092814D006
:10A040004FF0FF30F8BD1024F6E71824F4E7202481
:10A05000F2E72824F0E73024EEE73824ECE7402448
:10A06000EAE74824E8E75824E6E7134F3B6923F47E
:10A0700040733B613B6943F400733B613B6923F0F0
:10A08000F8033B613B6943F002031C433C613B69BD
:10A0900043F480333B6136F02FF83B6923F0020331
:10A0A0003B613B69092823F0F8033B613FF473AF40
:10A0B000C6E76FF00100C5E7003C02400040000821
:10A0C000FF3F0008F8B504460D468E180027B5423C
:10A0D000206900D1F8BDE368591CE160234415F8FC
:10A0E000012B1A720429F2D118B9A1682046FFF792
:10A0F0004BFFC4E90370EAE7024A136823EA000051
:10A10000106070478C630020DFED2E7AB4EEE70A12
:10A11000F1EE10FA4ADDDFED2C6A9FED2C7A01E0BA
:10A12000B0EE670AB4EEC70AF1EE10FA70EE667A86
:10A13000F6DC9FED277AF4EEC77AF1EE10FA3ED501
:10A14000DFED216A9FED237A01E0F0EE407AF4EE34
:10A15000C77AF1EE10FA37EEA60AF6D4DFED1E7AD2
:10A16000B4EEE70AF1EE10FA14DDDFED167A37EE01
:10A17000C00A60EE006A9FED196A9FED197ADFED63
:10A18000197AA6EE867A20EE266AE6EE877AA6EEA1
:10A19000270A7047DFED147AB4EEE70AF1EE10FA01
:10A1A00044BFDFED0B7A37EEC00AE2E79FED087A95
:10A1B000F0EE407AF4EEC77AF1EE10FAC0D4B0EEC9
:10A1C000670ACBE7DB0F4940DB0FC940E4CB164100
:10A1D000DB0F49C0E4CB16C1DB0FC93F92E741B9A1
:10A1E0009730083C15A82ABEDB0FC9BFF0EEC07A35
:10A1F000B0EEE07AB4EEE77AF1EE10FAB4BFB0EE6A
:10A20000676AB0EE476AB5EE406AF1EE10FA46D0E2
:10A21000B4EEE77AF1EE10FA8CBFF0EE675AF0EE8A
:10A22000475AC5EE866A9FED1F3A9FED1F6A9FED64
:10A230001F4A9FED1F5ADFED1F3ADFED1F4ADFED8A
:10A240001F5AA6EEC36AE6EEA34AA6EE864AB7EE0A
:10A25000006AA6EE845AA6EEA46AE6EE855AC5EE1A
:10A26000866AB4EEE77AF1EE10FA48BFDFED147AB1
:10A27000F5EEC00A48BF77EEE66AF1EE10FA48BF85
:10A28000DFED107AB5EEC00A48BF77EEE66AF1EE70
:10A2900010FA48BFF1EE666AB0EE660A7047DFED6D
:10A2A000076ADEE739094E3DE3B59E3E88FA163E61
:10A2B00045FE7F3F99FB243F69A2163EA7DFA834E5
:10A2C000DB0FC93FDB0F4940DFED317A30EE277AF3
:10A2D000FDEEC76A16EE903A2033402B02D99FED6F
:10A2E0002D0A7047B4EEE70AF1EE10FA4DDD9FED4E
:10A2F0002A6ADFED2A6A01E0B0EE677AB4EEE67A08
:10A30000F1EE10FA77EE467AF6DC9FED257AF4EE60
:10A31000C77AF1EE10FA35D5DFED1F6A9FED217A8D
:10A3200001E0F0EE407AF4EEC77AF1EE10FA37EE83
:10A33000A60AF6D4DFED167AB4EEE70AF1EE10FACB
:10A340001BDCDFED197AB4EEE70AF1EE10FA44BF38
:10A35000DFED137A37EEC00A60EE006A9FED136AF4
:10A360009FED137ADFED137AA6EE867A20EE266A49
:10A37000E6EE877AA6EE270A7047DFED0F7A37EE12
:10A38000C00AE9E7B0EE670AD4E7F0EE477ABCE727
:10A39000DB0FC93F00000000DB0FC940E4CB1641D2
:10A3A000DB0F49C0E4CB16C1DB0FC9BF92E741B94F
:10A3B0009730083C15A82ABEDB0F494010B44C0961
:10A3C000012250F8243001F01F0102FA01F10B4381
:10A3D00040F824305DF8044B704700BF4B0901F092
:10A3E0001F0150F82320012303FA01F1114214BF89
:10A3F00018460020704700BF2DE9F043002489B0C3
:10A4000006460D461F46A04605E025290CD03046DD
:10A410000134A847039A531C039311780029F4D1FF
:10A42000204609B0BDE8F083931CCDE9033850788D
:10A43000302842D0A0F13003DBB2092B4FF00009E5
:10A4400045D96C282AD0642873D019D9732858D0DC
:10A4500063D9752840F0828007F1040C386805AB99
:10A4600000220A216746FDF72FFF05AB049A0093EF
:10A4700029464B463046FDF7C9FD039A0444CAE716
:10A4800025283CD051D958286BD06328C2D13978BF
:10A490003046A84704370134039ABCE7039B5A1C93
:10A4A00003921B78642B52D016D8252B27D064D961
:10A4B000582B18D0632BEAD0ADE7D31C03939078C8
:10A4C000A0F13003DBB2092B4FF00109B9D804AA7F
:10A4D00003A938F09BFEB4E7732B12D051D9752B2A
:10A4E0002DD0782B97D1A3F15802B2FA82F23868B6
:10A4F000520905AB10210437FDF7E6FEB5E725212B
:10A5000085E73B68049A0093294600233046FDF70F
:10A510007DFD04370444039A7DE76E287FF47AAF0B
:10A52000039A3B6804371C6075E700283FF478AF56
:10A5300070E7386805A9FDF791FE043795E738689C
:10A5400005AB00220A21FDF7BFFE04378DE73B1D56
:10A55000386805A91F46FDF781FE86E778287FF455
:10A5600059AFA0F15802B2FA82F23868520905AB2D
:10A570001021FDF7A9FE043777E7002B3FF450AF19
:10A5800049E76E2BCDD046E70EB400B584B005ABDD
:10A59000019053F8042B0649039301A8FFF72CFF01
:10A5A000019B00221A7004B05DF804EB03B0704701
:10A5B0000180000870B406688E4217D90139751EF3
:10A5C000002311F8014F0822634013F0800F4FEA77
:10A5D000430318BF83F0D503013ADBB2F5D18D42B6
:10A5E000EFD1721C0260337070BC7047721C002384
:10A5F0000260337070BC70470A44914215D010B4A9
:10A600000139541E11F8012F0823504010F0800F1B
:10A610004FEA400018BF80F0D500013BC0B2F5D131
:10A62000A142EFD15DF8044B7047704748400823C2
:10A6300010F0800F4FEA400018BF80F0D500013BBA
:10A64000C0B2F5D1704700BF0A44914215D030B472
:10A650000139551E41F2210211F8014F082380EA09
:10A66000042004044CBF82EA40004000013B80B259
:10A67000F7D18D42F0D130BC7047704770B50222DF
:10A680001349144C144E4FF6FF70FFF7DDFF22887C
:10A690004AB1A518B54218D2052A16D92146FFF7A6
:10A6A000D3FF2C46F3E721460222FFF7CDFF02221B
:10A6B000A118FFF7C9FF094BE41A094B1C8041F6AA
:10A6C0000F53C31A5842584170BD0020FCE700BF29
:10A6D000004000080240000800800008FA3F00081F
:10A6E000948C00202DE90048FDF784FD054A064BB7
:10A6F0001268B0EB020B61F1000CC3E900BC012051
:10A70000BDE800881CB50020D06E00200F4B2DE95D
:10A710003048D3E9004554EA05020AD1034640F225
:10A72000011200201880988098715A801881BDE825
:10A730003088074B1A6814EB020B45F1000C5A469F
:10A740006346FDF79FFC0120BDE83088D06E0020F5
:10A750001CB500202DE9F04707468CB01E469246F6
:10A76000002A5CD1154614460A88B2F5FA6F36D332
:10A770008B78581E0B2832D891F803C00CF1FF30AB
:10A780001E282CD891F804E0BEF1170F27D891F8B5
:10A790000590B9F13B0F22D888793B281FD8B1F832
:10A7A0000880B8F57A7F1AD24FF001085EBB09899C
:10A7B0000491002CB4BF2D212B21002CB8BF644282
:10A7C000CDE90290CDE905140795CDE900CE3846D4
:10A7D0002A49FFF7D9FE40460CB0BDE8F0870023B8
:10A7E0002749ADF828304FF0010C18468DF82A3073
:10A7F000ADF82C3099469E461A4698460991634614
:10A8000009A9002ED3D0CDE90290CDE900CE38467B
:10A810001C49FFF7B9FE40460CB0BDE8F0871A4C62
:10A8200084FB0234A318D417C4EB6314C4EB0415DF
:10A83000A2EB85052DB2002D0846B8BF6D42FDF78D
:10A84000D9FC4FF47A7200238046894643F030F9F0
:10A850003C230AFB030A4FF47A7200234046494620
:10A8600043F026F94FF47A7192B20023C1FB0A2318
:10A8700009A8FDF707FC24B209A975E7A847050850
:10A880000000010188470508898888880378202B03
:10A89000024600F10100F9D0092BF7D02D2B00F072
:10A8A000A4802B2B03BF5378B7EE000A0246B7EE05
:10A8B000000AA3F13001C8B209289FED577A10D8D9
:10A8C000F2EE046A07EE901AF8EEE77A12F8013F0A
:10A8D000E7EE267AA3F13001C8B20928B0EE677A14
:10A8E000F0D92E2B63D003F0DF03452B02D020EEEE
:10A8F000070A704710B451782D294FD02B2979D0F1
:10A90000A1F13003092B02F101027AD800240023BF
:10A9100003EB830301EB430312F8011FA1F13000A5
:10A920000928A3F13003F3D9B3F59A7F1A4628BF5B
:10A930004FF49A72072B6CD9DFED386A1346F7EEA5
:10A94000007A083B072B67EEA67AFAD802F00702D6
:10A95000DAB1F2EE046A012A67EEA67A15D0022A6D
:10A9600067EEA67A11D0032A67EEA67A0DD0042AE4
:10A9700067EEA67A09D0052A67EEA67A05D067EEBB
:10A98000A67A062A18BF67EEA67A002C3BD087EE7F
:10A99000277A5DF8044B20EE070A70479178A1F101
:10A9A0003003092B02F1020230D80124AFE75378BB
:10A9B000A3F13001C8B2092802F1010293D8F2EEE6
:10A9C000046AF0EE665A07EE901AF8EEE77A12F88B
:10A9D000013F87EEA66AA3F13001C8B2092866EEEE
:10A9E000A56A37EE067AEED97DE75378BFEE000A06
:10A9F00002465EE79178A1F13003092B02F10202D1
:10AA000084D9F7EE007A27EE277AC2E7F7EE007ACC
:10AA1000BDE7F7EE007A9BE70000000020BCBE4CCB
:10AA2000F8B5064615460846B6FBF2F434B905FB00
:10AA300014640C4B1B5D00F8013BF8BDB4FBF2F74E
:10AA40005FB905FB1747074B05FB1464DA5D00F897
:10AA5000012B1B5D00F8013BF8BD3846FFF7E0FF16
:10AA6000EFE700BFD8470508B5EEC00ADFED677A0B
:10AA7000674AF1EE10FACCBF30EE270A30EE670AD3
:10AA8000DFED647A20EE270A2DE9F047FDEEC07A6B
:10AA900088B017EE904A84EAE4760023A6EBE476C9
